:020000040800F2
:10000000C827002029020008ED0B00089F0B0008FC
:10001000E90B0008D50600080719000800000000D9
:100020000000000000000000000000009F14000815
:10003000D906000800000000810C0008B115000876
:10004000430200084302000843020008430200087C
:10005000430200084302000843020008430200086C
:10006000430200084302000843020008430200085C
:10007000430200084302000843020008430200084C
:10008000430200084302000843020008430200083C
:10009000430200084302000843020008430200082C
:1000A000430200084302000843020008430200081C
:1000B000430200084302000843020008430200080C
:1000C00043020008430200084302000843020008FC
:1000D00043020008691600084302000843020008B2
:1000E00043020008430200084302000843020008DC
:1000F00043020008430200084302000843020008CC
:1001000043020008430200084302000843020008BB
:1001100015160008430200084302000843020008C5
:10012000430200084302000843020008430200089B
:1001300000F002F800F065F80AA090E8000C824494
:100140008344AAF10107DA4501D100F05AF8AFF271
:10015000090EBAE80F0013F0010F18BFFB1A43F0A5
:100160000103184730220000502200000A444FF0DB
:10017000000C10F8013B13F0070408BF10F8014B06
:100180001D1108BF10F8015B641E05D010F8016B4B
:10019000641E01F8016BF9D113F0080F1EBF10F8AF
:1001A000014BAD1C0C1B09D16D1E58BF01F801CBD2
:1001B000FAD505E014F8016B01F8016B6D1EF9D555
:1001C0009142D6D37047000000230024002500266A
:1001D000103A28BF78C1FBD8520728BF30C148BFAA
:1001E0000B607047642900F0AB80782900F0E48050
:1001F000732900F0C481002070471FB51FBD10B5E2
:1002000010BD00F038FA1146FFF7F7FF01F062FC6D
:1002100000F056FA03B4FFF7F2FF03BC01F075FBE0
:1002200080F3088870470000094880470948004764
:10023000FEE7FEE7FEE7FEE7FEE7FEE7FEE7FEE796
:10024000FEE7FEE704480549054A064B70470000F3
:10025000B515000831010008C8210020C82700207A
:10026000C8230020C8230020704700000FB40449B1
:1002700010B503AA029800F087F910BC5DF814FBD2
:10028000280100202DE9F0410E460446002020629E
:100290002046E168884730B3252805D0D4E90121FC
:1002A0009047206A401CF2E7E16820460027884713
:1002B000050018D0A5F14100192802D820354FF4C7
:1002C00000673246294620462760FFF78BFF40B182
:1002D000012804D0F61D26F007060836D8E7361D9B
:1002E000D6E72846DAE7206ABDE8F08170B50C460B
:1002F0000546012A05D02878800600D5EA69002342
:1003000002E0012305E05B1C934202D2E05C00287E
:10031000F9D1A869E618C01AA861286A18442862A9
:100320002846AFF3008004E0D5E9012114F8010B61
:100330009047B442F8D32846AFF3008070BD000068
:100340002DE9F0410646002410687529314616A5AE
:1003500010D0AFF30080002802DA404213A507E076
:1003600031688A0701D512A502E0490704D511A515
:10037000012401E0AFF3008000210A2206F12407E6
:1003800009E0B0FBF2FCB0FBF2F302FB1C003030E2
:1003900078541846491C0028F3D123462A46304693
:1003A000BDE8F04100F080B8000000002D00000022
:1003B0002B0000002000000070B504460D462146C9
:1003C0001068AFF300802188090502D50F4A7A44EE
:1003D00002E00E4A7A440E32002104F1240305E0C3
:1003E00000F00F060009965D5E54491C0028F7D105
:1003F00020780023000704D5702D02D009B1022314
:1004000011322046BDE8704000F04EB84A1F00008F
:1004100002F0FF0343EA032242EA024200F0C8B8B6
:100420004FF0013C50F8042B51F8043B9A4221D183
:10043000A2EB0C03934313EACC1317D150F8042B0F
:1004400051F8043B9A4215D1A2EB0C03934313EAF3
:10045000CC130BD150F8042B51F8043B9A4209D12C
:10046000A2EB0C03934313EACC13DBD04FF0000054
:10047000704700BFD01A01BAB1FA81F101F018013A
:1004800022FA01F0CB40C1F12001DBB2C0B2C01AA8
:100490002CFA01F3D11A914311EAC311E6D1704746
:1004A00070477047704770472DE9F0470D469946F1
:1004B0009246044600F124080168880604D5E069E4
:1004C00021F01001216000E00120A84201DD471B5E
:1004D00000E00027A1697A1902EB0900081AA0615F
:1004E0002078C00602D42046AFF30080002608E042
:1004F000D4E901211AF806009047206A401C761CB6
:1005000020624E45F4DB2078C0060AD52046AFF3C2
:10051000008006E0D4E9012130209047206A401C89
:100520002062381EA7F10107F4DC07E0D4E90121BD
:1005300018F805009047206A401C2062281EA5F18B
:100540000105F3DC2046AFF300802078000602D5D9
:100550000220BDE8F0870120FBE710B5436913B125
:10056000AFF3008001E0FFF7C1FE012010BD12785B
:1005700000F124010A7000224A700122EDE711689F
:100580004FF0FF32E9E70000074B70B50D467B44A2
:1005900000F033F80446284600F042F810B14FF05E
:1005A000FF3070BD204670BD631400004FF00002A4
:1005B0000429C0F0128010F0030C00F03780CCF159
:1005C000040CBCF1020F18BF00F8012BA8BF20F8E3
:1005D000022BA1EB0C0100F029B85FEAC17C24BF1B
:1005E00000F8012B00F8012B48BF00F8012B7047E1
:1005F00001694A1C02610878704700B58FB0CDE9E7
:1006000001310021059105497944CDE903101146D6
:100610006846FFF737FE0FB000BD0000E5FFFFFFA3
:10062000007B00F0800070474FF0000200B51346D9
:1006300094469646203922BFA0E80C50A0E80C5002
:10064000B1F12001BFF4F7AF090728BFA0E80C50B3
:1006500048BF0CC05DF804EB890028BF40F8042BAC
:1006600008BF704748BF20F8022B11F0804F18BF19
:1006700000F8012B7047754600F028F8AE460500DB
:100680006946534620F00700854618B020B5FFF7AD
:10069000D9FDBDE820404FF000064FF000074FF0B5
:1006A00000084FF0000B21F00701AC46ACE8C00990
:1006B000ACE8C009ACE8C009ACE8C0098D46704799
:1006C0000446AFF300802046FFF7A4FD00487047C2
:1006D0006421002000BFFEE77047000030B50446EB
:1006E00004254FF4302000F089F80546042D17D179
:1006F0000C48006940F002000A490861084644615C
:10070000006940F0400008614FF4302000F076F8B6
:1007100005460448006941F6FD7108400149086139
:10072000284630BD0020024004200B49C96801F072
:10073000010109B101200EE00749C96801F0040177
:1007400009B1022007E00449C96801F0100109B1AC
:10075000032000E0042070470020024003480069A5
:1007600040F080000149086170470000002002400D
:100770000549096821F01001034A11601146096812
:1007800001431160704700000020024070B504462C
:100790000D460426F00200F031F80646042E11D171
:1007A0000948006940F00100074908612580F0020E
:1007B00000F024F806460448006941F6FE7108403E
:1007C00001490861304670BD00200240014600200A
:1007D000034A106800F038000843106070470000BA
:1007E00000200240024803494860034848607047BF
:1007F0002301674500200240AB89EFCD00B50246DA
:100800000423FFF791FF034603E0FFF78DFF034644
:10081000521E012B01D1002AF7D102B90523184637
:1008200000BD000038B5044600200090451E0A2C8B
:1008300034DAC4EBC4001A4901EB8000007D68B3D0
:100840000020C4EBC401164A02EB81010875C4EB19
:10085000C40102EB81010861C4EBC40002EB80001B
:1008600004224168684600F0FDFBC4EBC4000C495B
:1008700001EB80008069009988420ED0C4EBC4026D
:10088000074B03EB82025168C4EBC40203EB820204
:1008900002F11800042200F051FC0025284638BD62
:1008A0000400002070B506460D460024304601F0D5
:1008B000B3F804460A2C0EDAC4EBC400074901EB76
:1008C0008000007D38B1C4EBC40001EB800080697A
:1008D0002860002070BD4FF0FF30FBE704000020CF
:1008E0002DE9F04105460F460024661E284601F01A
:1008F00093F804460A2C26DAC4EBC400134901EB32
:100900008000007DE8B90120C4EBC4010F4A02EB6E
:10091000810108750420C4EBC40102EB8101086168
:10092000C4EBC402094B03EB82025168C4EBC4025E
:1009300003EB820202F11800042200F093FB26462A
:1009400001E04FF0FF363046BDE8F08104000020A2
:100950002DE9F04704460F46164698460025A9465D
:100960000A2C58DAC4EBC4002C4901EB8000007D4E
:1009700018B96FF00900BDE8F0873546C4EBC40034
:10098000264901EB80008068B04204D2C4EBC40069
:1009900001EB80008568C4EBC400204901EB8000B6
:1009A0004068C4EBC4011D4A02EB8101096900EBF8
:1009B0000109C4EBC400114601EB80000069284422
:1009C000001FC4EBC40102EB8101896988420CD984
:1009D000C4EBC400114601EB80008069001DC4EB2C
:1009E000C40102EB81010969451AAAB24946384699
:1009F00000F038FBC8F80050C4EBC400074901EB15
:100A0000800000692844C4EBC401044A02EB810160
:100A100008612846AFE74FF0FF30ACE70400002044
:100A20002DE9F04706460F46144698460025A9468C
:100A30000A2E21DA04B3C6EBC600114901EB80058A
:100A4000287D18B96FF00900BDE8F087296968684A
:100A500000EB010909EB0400E96888420CD2A2B25C
:100A60004946384600F06AFBC8F80040286920442F
:100A7000001FA8612046E7E74FF0FF30E4E70000E1
:100A8000040000202DE9F041024600250026002048
:100A900000230024002791F803C00CF00F0591F803
:100AA00003C00CF0100CBCF1000F03D091F802C091
:100AB0004CEA050591F800C0BCF1000F31D0146874
:100AC00000202BE04FF0010C0CFA00F3B1F800C04D
:100AD0000CEA03069E4220D183004FF00F0C0CFA63
:100AE00003F7BC4305FA03FC4CEA040491F803C085
:100AF000BCF1280F06D14FF0010C0CFA00FCC2F833
:100B000014C00AE091F803C0BCF1480F05D14FF0C2
:100B1000010C0CFA00FCC2F810C0401C0828D1D30C
:100B20001460B1F800C0BCF1FF0F34DD5468002040
:100B30002EE000F1080C4FF0010808FA0CF3B1F8B0
:100B400000C00CEA03069E4221D183004FF00F0C37
:100B50000CFA03F7BC4305FA03FC4CEA040491F8D1
:100B600003C0BCF1280F05D100F1080C08FA0CF8FD
:100B7000C2F8148091F803C0BCF1480F07D100F10E
:100B8000080C4FF0010808FA0CF8C2F81080401C5D
:100B90000828CED35460BDE8F0810161704700BFE2
:100BA000FEE700004CF6CC400149086070470000A9
:100BB000003000404AF6AA20014908607047000052
:100BC000003000400149486070470000003000409C
:100BD000014988607047000000300040014908600A
:100BE000704700000030004000BFFEE7704710B5BE
:100BF0004FF4806000F03AF810BD000070B500219D
:100C000000230F22C47804B3154C246804F4E06474
:100C1000C4F5E064210AC1F10403CA40447804FA2F
:100C200003F184781440214309010E4C0678A15544
:100C3000047804F01F050124AC4005786D11AD0067
:100C400005F1E025C5F8004109E0047804F01F052E
:100C50000124AC40044D0678761145F8264070BD5D
:100C60000CED00E000E400E080E100E00249014317
:100C7000024A1160704700000000FA050CED00E028
:100C80007047000029B1064AD2690243044BDA6179
:100C900004E0034AD2698243014BDA6170470000E5
:100CA0000010024029B1064A12690243044B1A613E
:100CB00004E0034A12698243014B1A617047000045
:100CC0000010024029B1064A92690243044B9A611E
:100CD00004E0034A92698243014B9A617047000025
:100CE0000010024029B1064AD2680243044BDA6080
:100CF00004E0034AD2688243014BDA607047000087
:100D00000010024010B500F031F84FF4803000F0D0
:100D1000EFF800F04BF9012826D1002000F0DCF8B4
:100D2000002000F017F94FF4806000F007F902206E
:100D3000FFF74CFD1020FFF71BFD4FF4E0114FF4BF
:100D4000803000F019F9012000F010F900BF3920BF
:100D500000F09CF80028FAD0022000F01BF900BF38
:100D600000F0B2F80828FBD110BD00000F48006861
:100D700040F001000D490860084640680C490840F1
:100D80000A494860084600680A490840074908605F
:100D90000846006820F4802008600846406820F477
:100DA000FE0048604FF41F0088607047001002404A
:100DB0000000FFF8FFFFF6FE30B5002100220024FE
:100DC00000232D4D6D6805F00C0121B1042905D0DB
:100DD000082923D105E0294D056022E0274D056053
:100DE0001FE0254D6D6805F47012234D6D6805F404
:100DF0008034022505EB92421CB9214D5543056014
:100E00000BE01D4D6D6805F400351DB11C4D5543BB
:100E1000056002E0194D5543056002E0174D05607D
:100E200000BF00BF144D6D6805F0F0010909154DB4
:100E30006B5C0568DD4045600F4D6D6805F4E06151
:100E4000090A104D6B5C4568DD4085600A4D6D6890
:100E500005F46051C90A0B4D6B5C4568DD40C56007
:100E6000054D6D6805F44041890B074D6B5CC56805
:100E7000B5FBF3F5056130BD0010024000127A00A9
:100E800000093D002C0100203C01002010B5014666
:100E90000022002300204A11012A02D1094C2368B4
:100EA00006E0022A02D1074C236A01E0054C636A7E
:100EB00001F01F02012494401C400CB1012000E00D
:100EC000002010BD001002400248406800F00C00F5
:100ED000704700000010024001460020034A50689D
:100EE00020F0F000084350607047000000100240FE
:100EF0001149096821F480310F4A116011460968CF
:100F000021F480211160B0F5803F03D0B0F5802F2F
:100F10000ED106E00849096841F48031064A1160A3
:100F200007E00549096841F4A021034A116000E087
:100F300000BF00BF704700000010024001460020C3
:100F4000034A506820F4E060084350607047000096
:100F50000010024001460020034A506820F460500F
:100F600040EAC10050607047001002400149086625
:100F7000704700000000424202460020044B5868BF
:100F800020F47C1042EA01031843014B586070477B
:100F90000010024001460020034A506820F0030080
:100FA00008435060704700000010024038B5002030
:100FB00000900024002500BF3120FFF767FF0546A1
:100FC0000098401C00900098B0F5A06F01D0002D53
:100FD000F2D03120FFF75AFF08B1012400E00024CD
:100FE000204638BD21B1028842F04002028004E070
:100FF00002884FF6BF731A400280704710B5002078
:1010000004490860062000F06DF901200249C1F88A
:10101000900110BD900121420000214210B504460C
:101020002403FFF7EBFF00F07FF800200B49086076
:10103000202000F057F9C4F3074000F053F9C4F33F
:10104000072000F04FF9E0B200F04CF9012004490C
:10105000C1F8900100F068F810BD00009001214235
:10106000000021422DE9F04106460C4617460020BB
:101070000F490860032000F035F9C4F3074000F081
:1010800031F9C4F3072000F02DF9E0B200F02AF99D
:10109000002505E0FF2000F025F97055681C85B299
:1010A000BD42F7DB012002490860BDE8F081000085
:1010B0009001214210B5002400200E4908609020C4
:1010C00000F010F9002000F00DF9002000F00AF9FE
:1010D000002000F007F9FF2000F004F944EA0024A2
:1010E000FF2000F0FFF8044301200349C1F89001FC
:1010F000204610BD900121420000214210B500247D
:10110000002007490860052000F0ECF8FF2000F0FF
:10111000E9F8044601200349C1F89001204610BDBA
:10112000900121420000214210B500BFFFF7E6FF09
:1011300000F001000028F9D110BD00002DE9F047B2
:1011400081460F4616464FEA1738C7F30B0ACAF511
:101150008054A64200DC344644E04FEA08314FF4A4
:1011600080522248FFF77EFF002508E00AEB0500C9
:101170001E49085CFF2800D003E0681C85B2A54228
:10118000F4DB00BFA54216DA4046FFF747FF002513
:1011900007E019F8050005EB0A01144A5054681CD1
:1011A00085B2A542F5DB4FEA08314FF480520F4873
:1011B00000F01EF804E022463946484600F018F8D0
:1011C000A64200D10FE008F101084FF0000AA14447
:1011D0002744301B86B2B6F5805F02DD4FF48054A1
:1011E00000E03446B9E700BFBDE8F087640900209D
:1011F0002DE9F04107460E461446F0B2C0F5807561
:10120000AC4200DC254612E02A463146384600F062
:1012100013F8AC4200D10BE02F442E44601B84B283
:10122000B4F5807F02DD4FF4807500E02546EBE7E2
:1012300000BFBDE8F08100002DE9F04106460C46F4
:101240001746FFF7DBFE00200F490860022000F080
:1012500049F8C4F3074000F045F8C4F3072000F054
:1012600041F8E0B200F03EF8002504E0705D00F0C7
:1012700039F8681C85B2BD42F8DB012002490860DC
:10128000FFF752FFBDE8F0819001214202460020A5
:1012900013890B400BB1012000E00020704701468C
:1012A000888970478181704710B50022028802F456
:1012B00041520B884C8823438C882343CC8823439A
:1012C0000C8923434C8923438C892343CC892343B2
:1012D0001A430280838B4FF2FF74234083830B8A6F
:1012E000038210BD70B50546002407E0601CC4B23F
:1012F00000F0AAFBC82C01DD002070BD02210F48C0
:10130000FFF7C4FF0028F1D029460C48FFF7CAFFB9
:10131000002407E0601CC4B200F096FBC82C01DD7D
:101320000020EAE701210548FFF7B0FF0028F1D0CF
:101330000248FFF7B4FFC0B2DFE700000030014011
:1013400010B50446074800884FF6C77108400549A4
:101350000880084600882043088001210148FFF7E3
:1013600041FE10BD0030014030B503460C46154625
:10137000002207E0184600F008F824F812009B1C31
:10138000501C82B2AA42F5DB30BD01460888704786
:101390002DE9F05F80468A461746B8F1006F02D308
:1013A0003348804501D3BDE8F09FFFF71BFAA8F151
:1013B000006B4FEADB25CBF34909C9F58064A742EE
:1013C00000DC3C464DE04FF0006101EBC5204A14C3
:1013D0002849FFF7C9FF00260BE009EB0600254965
:1013E00031F810004FF6FF71884200D003E0701C06
:1013F00086B2A642F1DB00BFA6421BDA4FF00061C5
:1014000001EBC520FFF76AF9002608E03AF816005C
:1014100006EB0901174A22F81100701C86B2A64299
:10142000F4DB4FF0006101EBC5204A14114900F0D4
:1014300023F804E022465146404600F01DF8A7423A
:1014400000D10FE06D1C4FF000090AEB440AA044E4
:10145000381B87B2B7F5806F02DD4FF4806400E07F
:101460003C46B0E700BFFFF779F900BF9BE70000FB
:1014700000000408641900202DE9F04105460E46DD
:101480001746002407E036F814102846FFF77EF9C7
:10149000AD1C601C84B2BC42F5DBBDE8F081704736
:1014A00010B500F001F810BD0CB5002001900090BF
:1014B0003348006840F480303149086000BF30484C
:1014C000006800F4003000900198401C01900098E2
:1014D00018B90198B0F5A06FF1D12948006800F45F
:1014E000003010B10120009001E000200090009831
:1014F000012843D12348006840F0100021490860CA
:101500000846006820F0030008600846006840F0C4
:10151000020008601A484068194948600846406857
:1015200048600846406840F480604860084640686B
:1015300020F47C1048600846406840F4E810486099
:101540000846006840F08070086000BF0C480068E2
:1015500000F000700028F9D00948406820F003002E
:10156000074948600846406840F00200486000BFF4
:101570000348406800F00C000828F9D10CBD0000B9
:101580000010024000200240042808D14FF0E02162
:10159000096941F004014FF0E022116107E04FF0CA
:1015A000E021096921F004014FF0E0221161704748
:1015B0007047000010B51348006840F00100114961
:1015C000086008464068104908400E4948600846CF
:1015D00000680E4908400B4908600846006820F47E
:1015E000802008600846406820F4FE0048604FF400
:1015F0001F008860FFF754FF4FF000600449086047
:1016000010BD0000001002400000FFF8FFFFF6FED2
:1016100008ED00E010B500BF40F22551114800F080
:10162000AEF848B140F225510E4800F031F80D48AF
:1016300000F060F9C4B213E04FF45871094800F0AB
:101640009EF848B14FF45871064800F021F805485B
:1016500000F050F9C4B203E0024800F04BF9C4B204
:1016600010BD0000004C004010B500BF40F22551F5
:10167000064800F084F820B1044800F03BF9C4B2F9
:1016800003E0024800F036F9C4B210BD004C00403F
:1016900010B50022002340F66A14A14200D100BF19
:1016A0000A1201249440A3B2DC43048010BD21B18E
:1016B000828942F40052828104E082894DF6FF73F0
:1016C0001A4082817047000010B5044620488442C9
:1016D00009D101218803FFF705FB00214FF4804069
:1016E000FFF700FB32E01B48844209D10121480486
:1016F000FFF7D8FA00214FF40030FFF7D3FA25E0C6
:101700001548844209D101218804FFF7CBFA002152
:101710004FF48020FFF7C6FA18E01048844209D140
:101720000121C804FFF7BEFA00214FF40020FFF7A3
:10173000B9FA0BE00A48844208D101210805FFF7F5
:10174000B1FA00214FF48010FFF7ACFA10BD000091
:10175000003801400044004000480040004C004078
:101760000050004002460020B1F5007F00D100BFCC
:1017700013880B400BB1012000E00020704770B5CA
:101780000246002400230025002040F66A16B142DC
:1017900000D100BFC1F3421501F01F03012606FA74
:1017A00003F3012D02D19689334006E0022D02D1C8
:1017B000168A334001E0968A33400C12012606FA5D
:1017C00004F41688344013B10CB1012000E000206D
:1017D00070BDF0B50346002400260025002040F629
:1017E0006A17B94200D100BF1846C1F3421401F094
:1017F0001F06012707FA06F5012C01D10C3004E081
:10180000022C01D1103000E014301AB107682F43C8
:10181000076002E00768AF430760F0BD2DE9F047BD
:1018200086B005460E460024A24600BFA14600270A
:10183000B08900B100BF2F462C8A4CF6FF700440DF
:10184000F08804432C82AC894EF6F3100440B08833
:1018500031890843718908430443AC81AC8A4FF64F
:10186000FF400440B0890443AC8201A8FFF7A4FA0A
:101870001F48874202D1DDF810A001E0DDF80CA07E
:10188000A88900F4004040B10AEBCA0000EB0A103E
:1018900031684900B0FBF1F807E00AEBCA0000EB41
:1018A0000A1031688900B0FBF1F86420B8FBF0F051
:1018B00004012009642101FB1089A88900F400407B
:1018C00040B1322000EBC900B0FBF1F000F007009E
:1018D000044308E0322000EB09106421B0FBF1F072
:1018E00000F00F0004432C8106B0BDE8F087000033
:1018F0000038014001468888C0F308007047C1F3F2
:1019000008028280704700BFFEE7014600BF7047B3
:1019100010B502464FF6FF7312B1B1F5902F01D901
:10192000184610BD09E010785840C0B2054C34F894
:10193000100080EA2323521C491E0029F3D1D8430A
:1019400080B2EEE71C21000870B505460C4645F252
:101950005550FFF743F92846FFF734F92046FFF7C3
:1019600037F9FFF727F9FFF71DF970BD10B56FF0D4
:101970000400FFF709FE084800680849B0FBF1F0D1
:10198000074908600846008880B24FF47A714843DE
:101990000449086010BD00004001002000127A00D8
:1019A0001C010020200100200146114A12684A4310
:1019B0004FF0E0235A6100229A611A46126942F000
:1019C00001021A6100BF4FF0E022106900F001022D
:1019D0001AB100F48032002AF5D04FF0E0221269EB
:1019E00022F001024FF0E0231A6100229A61704751
:1019F0001C01002070B504460D46E1B20548FFF712
:101A00007EFF00BF40210348FFF7ACFE0028F9D05D
:101A1000204670BD004C004070B50546002400BF54
:101A20000CE0C4EBC401074A52F821002946FEF736
:101A3000F7FC08B9204670BD601CC4B20A2CF0DB6C
:101A4000FF20F8E70400002010B5FFF7B3F810BD41
:101A500070B504460025216815A0FEF707FC206834
:101A600017490840B0F1005F21D16068154908604E
:101A70002068FEF7D5FB00BF09E04FF0FF311248A8
:101A800040F82510114840F82510681CC5B2082DF3
:101A9000F3DBFFF76BF90E48FFF716FE00204FF05F
:101AA000E02108614861886106480068804770BD90
:101AB0005245414420646174612025780D0A00007C
:101AC0000000FE2F0000002080E100E080E200E046
:101AD000004C004000BFFFF715F9FFF788F84FF4FE
:101AE000E13000F055F9FFF741FF00F033F840F224
:101AF000E2410420FFF728FF13E0FFF7DBFA04467A
:101B000046F61500844201D100F00CF9FFF79CFF66
:101B100004A109A0FEF7AAFBFFF796FF0C48FFF708
:101B200097FFEAE7426F6F744C6F616465722076CD
:101B3000312E302E300000003D3D3D3D3D42796567
:101B4000206279652025733D3D3D0D0A00000000AF
:101B50000080000800B587B001210420FFF7B2F82B
:101B600001210803FFF7AEF88020ADF81800182017
:101B70008DF81B0003208DF81A0006A92F48FEF7E8
:101B800081FF2020ADF8180018208DF81B0006A951
:101B90002A48FEF777FF20212848FEF7FEFF402065
:101BA000ADF8180048208DF81B0006A92348FEF761
:101BB00069FF1020ADF8180014208DF81B000320D9
:101BC0008DF81A0006A91D48FEF75CFF10211B487E
:101BD000FEF7E3FF0020ADF804004FF48270ADF88B
:101BE00006000020ADF808000220ADF80A00012030
:101BF000ADF80C004002ADF80E003820ADF8100032
:101C00000020ADF812000720ADF8140001A90C481F
:101C1000FFF74AFB01210A48FFF7E4F9C820FFF764
:101C2000C3FEFF20FFF75EFB0020FFF789FBFFF7F5
:101C300041FA0449088007B000BD000000080140D7
:101C400000300140240100207CB50020019000906C
:101C5000451E214E0024002120A0FEF741FE05462E
:101C6000002D07DA29461EA0FEF700FB2846FEF7E6
:101C7000D9FD7CBD694619A0FEF714FE18E0FF22CD
:101C80004FF400613046FEF7C3FB01AB4FF4006236
:101C900031462846FEF75CFE214960180199C1F3E0
:101CA0004F023146FFF774FB01980444FFF7CCFE66
:101CB00000988442E3D3FF224FF400613046FEF7E0
:101CC000A7FB174960184A143146FFF761FB284605
:101CD000FEF7A8FD00BFCCE7640100205359530074
:101CE0007570646174655F66696C656D6F645F676C
:101CF00065745F636865636B73756D20617373658D
:101D000072742846535F4F70656E29206661696C56
:101D100065642E207265743A25640D0A0000000087
:101D20000080000870B5002400F066F9054600F058
:101D300091F8D8B10E480068A84217D10DA000F064
:101D40008DF904460A48214642680BA0FEF78EFA38
:101D500007484068A04209D1FFF776FF00200449F8
:101D6000486088818860086000F0E8F870BD000075
:101D70005401002053595300726561642063686503
:101D8000636B73756D202578202C2025780D0A0053
:101D900030B587B0044601211020FEF793FF0121E2
:101DA000C804FEF76FFF4FF48060ADF81800032001
:101DB0008DF81A0018208DF81B0006A92348FEF79D
:101DC00061FE4FF40060ADF8180004208DF81B0090
:101DD00006A91E48FEF756FE34208DF804000320A5
:101DE0008DF805008DF8060001208DF8070001A888
:101DF000FEF704FF02940020ADF80C00ADF80E00D1
:101E0000ADF81000ADF814000C20ADF8120002A9D6
:101E10000F48FFF703FD012240F225510C48FFF760
:101E2000D8FC01224FF458710948FFF7D2FC00BFDB
:101E30000748001D0088C5B205480088C5B20121C9
:101E40000348FFF734FC07B030BD0000001001402C
:101E5000004C004010B500F013F858B10E210648B0
:101E6000FFF756FD0446044880680449884201D1C2
:101E7000012010BD0020FCE754010020A55A5AA5FE
:101E800038B54FF0FF3400200090002110A0FEF77D
:101E900027FD0446002C05DA0DA10FA0FEF7E6F998
:101EA000002038BD6B46102217492046FEF750FD32
:101EB0002046FEF7B7FC0098102806D0102213A089
:101EC0000099FEF7D3F90020EBE70120E9E70000D5
:101ED000537973496E666F007570646174655F66EF
:101EE000696C655F696E666F5F72656164204653F9
:101EF0005F4F70656E206E616D6520257320666191
:101F0000696C0D0A000000005401002075706461C6
:101F100074655F66696C655F696E666F5F72656147
:101F200064206661696C2072656164206C656E2056
:101F3000257820213D2025780D0A000038B54FF086
:101F4000FF3400200090002110A0FEF7C9FC0446D9
:101F5000002C05DA0DA10FA0FEF788F9002038BD8E
:101F60006B46102217492046FEF75AFD2046FEF721
:101F700059FC0098102806D0102213A00099FEF7F3
:101F800075F90020EBE70120E9E700005379734978
:101F90006E666F007570646174655F66696C655F1D
:101FA000696E666F5F736176652046535F4F70653B
:101FB0006E206E616D65202573206661696C0D0A67
:101FC00000000000540100207570646174655F6654
:101FD000696C655F696E666F5F73617665206661C7
:101FE000696C2072656164206C656E202578202103
:101FF0003D2025780D0A000038B54FF0FF34002051
:10200000009000210AA0FEF76BFC0446002C05DAC4
:1020100007A108A0FEF72AF9002038BD694604A0F0
:10202000FEF740FC2046FEF7FDFB0098F5E70000B8
:10203000535953007570646174655F66696C655FC0
:102040006C656E2046535F4F70656E206E616D65E6
:10205000202573206661696C0D0A00002DE9FC479C
:102060008146002001900090441E1B4E0025002751
:10207000804600214846FEF733FC0446002C09DA6E
:10208000214616A0FEF7F2F82046FEF7CBFB002013
:10209000BDE8FC8769464846FEF704FC002712E0CD
:1020A00001AB4FF4006231462046FEF751FC019827
:1020B0008044002502E0705D07446D1C0198854254
:1020C000F9D3FFF7C1FC00988045E9D32046FEF71D
:1020D000A9FB3846DCE700006401002075706461EC
:1020E00074655F66696C656D6F645F6765745F6377
:1020F0006865636B73756D206173736572742846D0
:10210000535F4F70656E29206661696C65642E208F
:102110007265743A25640D0A000000000000891100
:1021200012239B322446AD573665BF74488CC19D3F
:102130005AAFD3BE6CCAE5DB7EE9F7F8811008011F
:1021400093331A22A5562C47B7753E64C99C408D1F
:10215000DBBF52AEEDDA64CBFFF976E802218B30BB
:10216000100299132667AF763444BD554AADC3BCFF
:10217000588ED19F6EEBE7FA7CC8F5D983310A20DF
:1021800091121803A7772E66B5543C45CBBD42ACDF
:10219000D99E508FEFFB66EAFDD874C904428D5377
:1021A00016619F702004A9153227BB364CCEC5DFBF
:1021B0005EEDD7FC6888E1997AABF3BA85520C439F
:1021C00097711E60A1142805B3373A26CDDE44CF9F
:1021D000DFFD56ECE9986089FBBB72AA06638F723B
:1021E00014409D512225AB343006B9174EEFC7FE7F
:1021F0005CCCD5DD6AA9E3B8788AF19B87730E625F
:1022000095501C41A3352A24B1163807CFFF46EE5E
:10221000DDDC54CDEBB962A8F99A708B0884819506
:102220001AA793B62CC2A5D33EE1B7F04008C9194E
:10223000522BDB3A644EED5F766DFF7C899400850E
:102240009BB712A6ADD224C3BFF136E0C11848092E
:10225000D33B5A2AE55E6C4FF77D7E6C0AA583B4AA
:10226000188691972EE3A7F23CC0B5D14229CB380E
:10227000500AD91B666FEF7E744CFD5D8BB502A4CE
:1022800099961087AFF326E2BDD034C1C3394A28EE
:10229000D11A580BE77F6E6EF55C7C4D0CC685D766
:1022A0001EE597F42880A1913AA3B3B2444ACD5BCE
:1022B0005669DF78600CE91D722FFB3E8DD604C78E
:1022C0009FF516E4A9902081BBB332A2C55A4C4BAE
:1022D000D7795E68E11C680DF33F7A2E0EE787F62A
:1022E0001CC495D52AA1A3B03882B193466BCF7A8E
:1022F0005448DD59622DEB3C700EF91F8FF706E64E
:102300009DD414C5ABB122A0B9923083C77B4E6A6D
:10231000D5585C49E33D6A2CF11E780F30313233D9
:102320003435363738394142434445464030580009
:10233000303132333435363738396162636465663B
:102340004030780053595300455854004D616E5049
:1023500061726100426B7050617261004E756C6C0D
:1023600046696C650000000048697346696C650049
:102370004167707346696C650000000053746166C4
:10238000696C6500537973496E666F0045787449CE
:102390006E666F00B42300080000002054010000A6
:1023A0006C01000828240008540100207426000055
:1023B000C801000841134C2352085A1004B12A5492
:1023C0001C6918E2202A681C3914191DCA20393AE0
:1023D0007C1C19142917CA301C2A701C391419774F
:1023E000D330183A5C1C29141959D330383A841C5C
:1023F0001914293BCA401C2A441C3914191DD34006
:10240000486A8C1C2938CA50380A19483801142DDA
:10241000010203040410090607080902040608ACB7
:08242000A24A041C2918000067
:0400000508000131BD
:00000001FF
