:020000040800F2
:10800000F8AC0020F9810008E3A100085DA0000899
:10801000A9A1000849960008EFC50008000000006B
:1080200000000000000000000000000039BA000855
:1080300061980008000000009381000861BE0008FC
:1080400013820008138200081382000813820008BC
:1080500013820008138200081382000813820008AC
:10806000138200081382000813820008138200089C
:10807000138200081382000813820008138200088C
:10808000138200081382000813820008138200087C
:10809000138200081382000813820008138200086C
:1080A000138200081382000813820008138200085C
:1080B00013820008D5BE000813820008138200084E
:1080C000138200081382000813820008138200083C
:1080D00013820008C1C200084DC3000813820008C3
:1080E000138200081382000813820008138200081C
:1080F000138200081382000813820008138200080C
:1081000013820008138200081382000813820008FB
:1081100055C2000813820008138200081382000869
:1081200013820008138200081382000813820008DB
:10813000DFF80CD001F00EF800480047455F010859
:10814000F8AC0020EFF3108072B6704780F310880F
:108150007047204C204D25604FF0000484F30988BF
:108160001E4C4FF0010525701D4C4FF080552560C9
:1081700062B6FEE730B41A4C4FF08055256030BC33
:10818000704730B4164C4FF08055256030BC7047B6
:1081900000BF72B6EFF3098028B1203880E8F00FF5
:1081A00010490968086000B50F4880475DF804EB86
:1081B0000E480F490A7802700A480E490A680260A0
:1081C000106890E8F00F203080F309884EF0040E1C
:1081D00062B6704720ED00E00000FFFFAE05002012
:1081E00004ED00E0B40500207DAA0008A3050020EE
:1081F000A4050020BC05002006488047064800472B
:10820000FEE7FEE7FEE7FEE7FEE7FEE7FEE7FEE746
:10821000FEE7FEE775BE0008318100082DE9F05F3A
:108220000546002092469B468846064681464024E5
:108230001BE0284641464746224600F08EFD534645
:108240005A46C01A914110D311461846224600F0F2
:1082500075FD2D1A67EB01084F46224601200021CB
:1082600000F06CFD17EB00094E41201EA4F1010443
:10827000DFDC484631462A464346BDE8F09F000011
:1082800038B5D0E90221491E01EB410102EBC101E1
:108290004268C1EB011102EB81010268C1EB0111DF
:1082A00002EB8102D0E9043101EB410103EB8101D2
:1082B0003023A1F5527191FBF3F4174D6C4302EB9F
:1082C000C41291FBF3F403FB141100921A2902DB90
:1082D000124B1A4400920C2291FBF2F3104C6343B0
:1082E000009C04EBC313009391FBF2F302FB131108
:1082F0000C4A08E0491E40F2A324535C6343009CEF
:1083000004EBC31300930029F4DC0146684600F037
:108310004DFD009838BD00003F0C0F00805101005A
:1083200067C20300C804020840EA01039B0703D0A8
:1083300009E008C9121F08C0042AFAD203E011F8A4
:10834000013B00F8013B521EF9D27047D2B201E066
:1083500000F8012B491EFBD270470022F6E710B54A
:1083600013460A4604461946FFF7F0FF204610BDA3
:1083700030B505462A460B4612F8010B13F8014B9F
:1083800008B1A042F8D01CB1002802D06D1CF1E762
:10839000284630BD10B5044604E00B7800F8013BD8
:1083A00003B1491C521EF8D2204610BD421C10F8E1
:1083B000011B0029FBD1801A704710B5002200E094
:1083C000521C835C8C5CA34201D1002BF8D1D8B243
:1083D000E1B2401A10BD30B504460020034600E06B
:1083E0005B1C934203D2E05CCD5C401BF8D030BDF7
:1083F000034611F8012B00F8012B002AF9D1184689
:10840000704700000FB400B58DB010A909900B9013
:1084100000914FF0FF300A9000200C900548069024
:10842000054807906A4609A80F9900F019FD0DB09C
:108430005DF814FB7D8E00089B8E00082DE9FF5F20
:108440001D464FF0FF3BD5E9014691465F464FF090
:108450000008A9697F1C01988847296A82468847D5
:108460000028F6D1BAF1FF3F0CD024F4C064002EEE
:1084700019DD600614D5BAF12B0F09D0BAF12D0F12
:108480000ED103E0584604B0BDE8F09F44F4806488
:10849000A9697F1C01988847761E8246002E02DD5E
:1084A000BAF1300F03D0B9F1000F26D032E0A9693C
:1084B000761E44F400747F1C019888478246002E83
:1084C00005DDBAF1780F06D0BAF1580F03D0B9F133
:1084D000000F10D01EE0B9F1000F02D0B9F1100F5B
:1084E00018D1A969761E24F400747F1C019888476E
:1084F0008246102002E0082000E00A20814609E0C0
:1085000008FB0908A969761E44F400747F1C0198D1
:1085100088478246002E05DD4946504600F08CFC17
:108520000028EDDAE96901988847A00502D46FF0C8
:108530000100A8E7E00725D1600613D5600502D544
:10854000C8F1000000E0404629680A1D2A60096859
:10855000220501D5087015E0220701D5088011E039
:1085600008600FE02868011D29600068210502D518
:1085700080F8008006E0210702D5A0F8008001E025
:10858000C0F8008038467EE72DE9FF5FD2E901A7F9
:108590004FF00008916999461446DDF838B0464618
:1085A00001988847054659EA0B0005D009E0A16902
:1085B000761C019888470546216A28468847002886
:1085C000F5D1681C03D05FEACA7005D015E04FF002
:1085D000FF3004B0BDE8F09F2068011D2160D0F895
:1085E00000800AE05FEACA7001D108F8015BA16966
:1085F000761C7F1E019888470546002F1ADD681CEF
:1086000018D0B9F1000F0DD0E81705EBD06042117A
:1086100020F01F0059F822102A1A01209040014230
:10862000E0D107E0BBF1000FDCD1216A2846884782
:108630000028D7D0E16901988847BBF1000F07D126
:10864000002E05DD5FEACA7002D1002188F8001013
:10865000A068B84203DDBBF1000F03D017B16FF083
:108660000100B6E73046B4E770B5064604F010F8EE
:10867000046805460A220021304600F01FFC2C60E9
:1086800070BDF0B480EA0102D40F4200B2EB410F9A
:1086900002D20246084611464A0042D0C30DDDB25E
:1086A000C1F3C752AD1A202D35DAC1F3160141F4DA
:1086B000000204B15242C5F1200602FA06F12A4135
:1086C0001044B3EBD05F23D0C4B1012DA0EBC35055
:1086D00009DCF0BC4FF0004202EAC352DBB200F505
:1086E000000000F02CBC400000F1807000EBC35093
:1086F000A0F1807040EAD170490009E0490841EAE0
:10870000C071A0EBC35000F50000400800EBC3505F
:10871000F0BC00F00BBC6142012202EB4101001BE6
:10872000F6E7F0BC704781F00041AAE780F0004016
:10873000A7E780EA010210B502F00043400022D012
:108740004A001FD0010E01EB1261C0F35600C2F3C4
:10875000560240F4000042F40002A0FB0220000494
:108760007F39140400D0401C50EA124001D440006C
:10877000491EC2B20C0604EBD010401C4008802AEF
:1087800002D003E0002010BD20F00100002900DA33
:108790000020184310BD30B480EA010202F0004509
:1087A00030F0004221F0004013D090B1C30DD40D41
:1087B000C2F31601C0F31600E41A41F4000140F4BC
:1087C00000027D34914201D3641C00E04900002C7A
:1087D00002DA30BC002070474FF4000000239142C1
:1087E00001D3891A034340084FEA4101F7D151B13F
:1087F000914202D14FF0004105E002D24FF0010159
:1088000001E06FF0010103EBC450284430BC00F0DC
:108810008DBB2DE9FE4F804681EA0300C00F0C4658
:10882000009021F0004123F00045B8EB0200A9417F
:1088300005D24046214690461C460B46024623F090
:108840000040104347D0270DC7F30A00C3F30A5175
:108850000290401A019040286BDAC3F3130040F4F1
:10886000801B0098924620B10023D2EB030A63EBF1
:108870000B0B01985946C0F14002504600F05EFAD9
:1088800006460D4650465946019A00F076FA10EB1E
:1088900008006141002487EA115284EAE7731A4311
:1088A00040D0009A62B3019A012A4FEA075215DCC0
:1088B000001B61EB02014FF0004202EA0752CDE9D2
:1088C0000042001C41F5801132462B4600F074FB3B
:1088D00003B0BDE8F08F40462146F9E7001B61EB8D
:1088E0000201001C41F5801300185B412018A2F51D
:1088F000001747EB030140EAD570B6196D4111E04E
:108900006D084FEA360645EAC0754FEA0752001B6C
:1089100061EB0201001C41F5801149084FEA30006B
:108920000019514132462B4603B0BDE8F04F00F02C
:1089300034BB0098012240000023D0EB020263EB1D
:10894000E073009821464FEAE074B8EB000061EB59
:108950000401E9E783F000435BE781F0004158E759
:108960002DE9FE4F81EA030404F0004421F00041A8
:1089700000944FF0000B23F0004350EA01045ED056
:1089800052EA03045BD0C3F30A54C1F30A552C44E2
:10899000A4F2F3340194A0FB0254C1F3130141F497
:1089A0008011C3F3130343F4801301FB024400FB63
:1089B000034E840A970A44EA815447EA8357A4FB8A
:1089C000076802958D0A05FB07854FEA932C04FB87
:1089D0000C542705029D4FEA065847EA1637B5EBB7
:1089E00008056EEB070C870E920E47EA811742EAE4
:1089F0008312A7FB0201B6EB0B0164EB00042B0D05
:108A000043EA0C335E1844EB1C50DA465146E7FB50
:108A10000201C5F313044FEA0B3343EA14534FEA40
:108A20000432019C43EA0603A4F10C040294009C66
:108A3000CDE900B400F0C0FA03B0BDE8F08F00202B
:108A40000146F9E72DE9F04D81EA030404F0004BFB
:108A500021F0004514464FF0000A23F0004150EA8F
:108A6000050220D054EA01021DD0C5F30A57024680
:108A7000C5F31303C1F31300C1F30A5640F4801584
:108A800043F48013A7EB0608101BD64608F2FD3806
:108A900073EB050002D308F1010801E092185B4175
:108AA000B8F1000F03DA00200146BDE8F08D002088
:108AB0004FF48011064684460EE0171B73EB050742
:108AC00005D3121B63EB050306434CEA010C49086E
:108AD0004FEA300092185B4150EA0107EDD152EAAB
:108AE000030012D082EA040083EA0501084305D09E
:108AF000101BAB4106D20122002306E000224FF0FA
:108B0000004302E06FF0010253101AEB06004CEB39
:108B1000085110EB0A0041EB0B01BDE8F04D00F0ED
:108B20003CBAC10F80EAE0700844CA0796230021CE
:108B300000F005BA96230022114600F000BA30B4C6
:108B4000044696230800214604D0B62330BC0022F8
:108B500000F0F5B920460021F8E70EB5C10F80EA14
:108B6000E0700844CA07002140F233438DE80E004C
:108B70000A460B4600F020FA03B000BD0EB540F2E5
:108B8000334102910021CDE900110A460B4600F065
:108B900013FA03B000BD20F00040C10DC0F3160071
:108BA00040F400007F2901DA00207047962903DC99
:108BB000C1F19601C840704796398840704720F04F
:108BC0000040C20DC0F3160040F400007F2A02DA14
:108BD0000020014670470021962A03DCC2F196026C
:108BE000D0407047963A00F0A9B870B5C1F30A5268
:108BF00001F000450024C1F3130140F2FF3341F4BA
:108C000080119A4201DA002070BD40F233439A424B
:108C1000A2F2334203DC524200F09FF800E09040A1
:108C20002C43F1D0404270BD00F0004230F00040D3
:108C30000AD0C10D01F56071C0F3160042EA01517E
:108C4000C2084007114370470020014670470000EA
:108C500030B5041E71F1000404DB4FF000444042C3
:108C600064EB0101141E73F1000405DB1C464FF098
:108C70000043524263EB04038B4208BF824230BD83
:108C800030B5041E71F1000404DB4FF00044404293
:108C900064EB0101141E73F1000405DB1C464FF068
:108CA0000043524263EB0403994208BF904230BD37
:108CB00001F0004330B421F0004150EA010206D037
:108CC0000A0DA2F56072C1F31301002A02DC30BC68
:108CD00000207047440F44EAC104C100E01830BCD2
:108CE00000EBC25000F022B9002801DBC0F10040C7
:108CF000002901DBC1F1004181427047002801DBFE
:108D0000C0F10040002901DBC1F1004188427047F9
:108D100030B50B46014600202022012409E021FA4B
:108D200002F59D4205D303FA02F5491B04FA02F548
:108D30002844151EA2F10102F1DC30BD202A04DB1B
:108D4000203A00FA02F1002070479140C2F120035E
:108D500020FA03F3194390407047202A04DB203A9D
:108D600021FA02F00021704721FA02F3D040C2F14B
:108D700020029140084319467047202A06DBCB1792
:108D8000203A41FA02F043EAE07306E041FA02F3C6
:108D9000D040C2F1200291400843194670470000BC
:108DA000014900F003B80000C858002010B5006861
:108DB0003C22B0FBF2F302FB1303B0FBF2F00B60BA
:108DC000B0FBF2F302FB1303B0FBF2F018224B608E
:108DD000B0FBF2F302FB1303B0FBF2F0021D8B6059
:108DE0000723B2FBF3F403FB1422800040F2B553D7
:108DF00000F66C308A61B0FBF3F2B0FBF3F403FBD6
:108E00001400443280084A61C8613B2802D39207AB
:108E100000D0401C0022074C13460A61E25C8242EB
:108E200003D8801A5B1C0B61F8E7401CC860084639
:108E300010BD0000000602083A2800D2303820F0A9
:108E40002002412A01D3A2F13700884201D34FF01A
:108E5000FF3070470268114413780160184670476C
:108E6000D160044951610449116200211161114628
:108E700000F090B9558E000881910008426842B117
:108E8000016811F8013B23B1521EC0E900121846D7
:108E900070470121C160881E704742685AB1C3689B
:108EA000016843B983688B4205D0491E521CC0E952
:108EB0000012002070474FF0FF3070472DE9F04757
:108EC00091460F4680460446002614F8015B2DB1FA
:108ED00000F052F90068405DC007F6D12B2D02D09A
:108EE0002D2D18D0641E4A463946204600F0E8FA77
:108EF00027B13968A14201D1C7F8008071054FF050
:108F000002040BD54042002803DD03F0C1FB0460DE
:108F1000A007BDE8F08746F48066E4E70028F8DAA9
:108F200003F0B6FB04606FF00040F2E70029A8BF31
:108F30007047401C490008BF20F00100704710B482
:108F4000B0FA80FC00FA0CF050EA010404BF10BC37
:108F5000704749B1CCF1200421FA04F411FA0CF164
:108F600018BF012121430843A3EB0C01CB1D4FEA9D
:108F700000614FEA102042BF002010BC704700EB98
:108F8000C35010440029A4BF10BC7047401C4900C6
:108F900008BF20F0010010BC704710B5141E73F11B
:108FA000000408DA401C41F1000192185B411A43A9
:108FB00001D120F0010010BD2DE9F04D92469B46F5
:108FC00011B1B1FA81F202E0B0FA80F2203290469B
:108FD000FFF7B4FE04460F4640EA0A0041EA0B01DF
:108FE00053465A46084313D0114653EA010019D09C
:108FF000C8F140025046FFF7B0FE05460E46504607
:1090000059464246FFF79AFE084305D0012004E086
:1090100020463946BDE8F08D0020054346EAE0765B
:109020002C4337430A986305E40AA0EB08000022AA
:10903000FD0A44EA47540A3002D500200146E9E718
:10904000010510196941DDE9084500196941BDE8CC
:10905000F04DA2E770B521F0004303430CD0C1F3FB
:109060000A550024D5EB040564EB0403D617AD1AAA
:10907000B34102DB0020014670BD201841EB0251D4
:1090800070BD2DE9F04D00231A461B1A8A4103DBFF
:1090900000200146BDE8F08DC1F30A52C1F313016F
:1090A00041F480154FF0000BD10702D100186D413B
:1090B000521E0027044640F2FF11384601EB620AB7
:1090C0003E468046024600204FF48011FFF745FEE1
:1090D000C2197141BB1846EB0100B4EB030C75EBF0
:1090E000000C04D3E41A65EB000517460E4624195C
:1090F00008F101006D4180463428E3DDF91946EBA3
:109100000600091BA84103D24FF0FF32134601E0CD
:10911000002213461BEB070046EB0A51BDE8F04D59
:10912000FFF73BBFC1F30A52C1F3130140F2FF3313
:1091300041F480119A4202DA00200146704740F261
:1091400033439A42A2F2334202DC5242FFF705BE99
:10915000FFF7F4BD064C074D06E0E06840F0010360
:1091600094E8070098471034AC42F6D3FEF7E4FFCA
:109170005025020870250208004870479006020832
:1091800010B50446FFF7F8FF0068005D00F001002D
:1091900010BD00002DE9F34F8BB04FF0000801F136
:1091A0000C000C464FF0010B46460DF1080A0190E9
:1091B000626901210198904705002DD0252D2CD002
:1091C000216A8847C0B16269012101989047216AEC
:1091D00088470028F7D1411E62690198904700E056
:1091E000761CA1690B988847216A88470028F7D127
:1091F000E1690B988847DBE7A1690B988847074628
:10920000A84201D1761CD3E7E1690B9888477F1CFF
:1092100002D1B8F1000F6FD046E1002762693D46E8
:109220003946019890472A2804D1626901210198A2
:1092300090470125DFF884926269012101989047E7
:10924000A0F130010A290AD24F45E5DC07EB87017E
:1092500000EB4107303FDFD445F01005ECE7E906AD
:1092600001D46FF000476C280AD04C2814D068282D
:1092700015D06A280DD074281CD07A281AD01DE089
:1092800062690121019890476C2802D045F00405DD
:1092900014E045F002050DE045F020050AE06269A2
:1092A000012101989047682802D045F0080505E0A3
:1092B00045F400656269012101989047C4E90157AE
:1092C00065283DD019DC58287AD00CDC452837D0E9
:1092D00004DC252826D0412831D131E046282FD082
:1092E00047282CD12CE05B2877D0612828D0632830
:1092F0007CD0642823D15AE0D0E06F2848D008DC25
:1093000066281DD067281BD0692821D06E2816D169
:1093100027E0702845D0732868D0752847D0782872
:109320000DD14DE0A1690B988847054625283FF4EB
:1093300069AFE1690B9888476D1C3FF46AAFB3E0F1
:1093400023466A466FF001000B99AFF300809EE060
:1093500045F040006060A80723464FF0000236D475
:109360003EE0E8077FF447AF2068011D21600068F8
:10937000290501D506701BE7290701D5068017E7E7
:10938000A90703D5F117C0E9006111E706600FE7EF
:1093900045F040006060A80723464FF0080216D44D
:1093A0001EE040F60E0125EA0100606016E045F07F
:1093B00040006060A80723464FF00A0207D40FE080
:1093C00045F040006060A80708D5234610226FF0E2
:1093D00001000B99AFF3008059E007E0234610220B
:1093E0006FF001000B99FFF729F850E04FF00009EA
:1093F0004F464B46632802D05B2806D040E0E80683
:1094000001D40120A06001273AE06269012101989E
:1094100090475E2805D14FF00109626949460198DD
:109420009047216939B900210A46534643F8212063
:10943000491C0829FADBB0B3216969B9C11700EBEF
:10944000D16253110AEB830122F01F02821A01201C
:109450000B68904003430B606269012101989047BB
:109460005D28E8D1B9F1000F09D00020514651F82C
:109470002020D24341F82020401C0828F7DB02AB13
:10948000224600976FF001000B99FFF77DF8002846
:109490000CDA401C08D1BBF1000F05D04FF0FF30B3
:1094A0000DB0BDE8F08FFFE74046F9E7E90701D1CD
:1094B00008F1010806444FF0000B79E6CCCCCC0C47
:1094C0002DE9F05F82460078002715468B460AF1A9
:1094D0000104B946302801D09DB113E014F8010B06
:1094E0000127782803D0582801D045B10AE00DB1F2
:1094F000102D07D10027102514F8010B02E00825D4
:1095000000E00A250026B0460EE005FB080005FB3A
:1095100006F1012701EB10461FFA80F8B6F5803FEF
:1095200000D3B94614F8010B2946FFF785FC002843
:10953000EBDABBF1000F05D00FB1641E00E054461A
:10954000CBF80040B9F1000F06D003F0A1F80221DA
:109550000160C81EBDE8F09F48EA0640FAE770B512
:109560008C1810F8015B15F0070301D110F8013BCE
:109570002A1106D110F8012B03E010F8016B01F855
:10958000016B5B1EF9D12B0705D40023521E0DD4AD
:1095900001F8013BFAE710F8013BCB1A921C03E0FB
:1095A00013F8015B01F8015B521EF9D5A142D8D333
:1095B000002070BD38B5002405A000231A4608A17C
:1095C000009040F6B83012F0C3FE0446204638BD85
:1095D00041542B514944454143543D310D0A00004B
:1095E0004F4B000070B586B004460D4694F8A400B9
:1095F00004F1840104F16402CDE90142CDE90310D4
:1096000007A000231A460FA100904FF4167012F025
:109610009FFE06460EB901202860304606B070BD98
:1096200041542B5149435347503D312C312C222575
:1096300073222C222573222C222573222C25640DC3
:109640000A0000004F4B000000BFFEE70148807A8F
:1096500070470000203B002070B586B005460C46E0
:1096600000200290039004900590002605A804A90C
:1096700003AB02AACDE900100BA12846FEF7C2FEFB
:1096800004280DD102982070039860700498A0708F
:109690000598E07002AE306810B1002006B070BDD1
:1096A0004FF0FF30FAE7000025642E25642E256474
:1096B0002E25640021B1026842F00102026004E03C
:1096C00002684FF6FE731A400260704701684FF659
:1096D000FE72114001600021016041608160C16043
:1096E0004B49884208D14A490839496841F00F017D
:1096F000474A083A51608AE045491431884208D106
:1097000043490839496841F0F001414A083A51603B
:109710007DE03F492831884208D13D4908394968F0
:1097200041F470613A4A083A516070E038493C317E
:10973000884208D136490839496841F47041344AB1
:10974000083A516063E032495031884208D13049CB
:109750000839496841F470212D4A083A516056E0B1
:109760002B496431884208D129490839496841F4B4
:109770007001274A083A516049E02549783188420A
:1097800008D123490839496841F07061204A083AF4
:1097900051603CE01F49884206D1011F096841F031
:1097A0000F01021F116032E01A491431884208D1BA
:1097B0001849091F096841F0F001164A121F11608B
:1097C00025E014492831884208D11249091F096847
:1097D00041F470610F4A121F116018E00D493C31CD
:1097E000884208D10B49091F096841F47041094AB0
:1097F000121F11600BE007495031884207D105491B
:10980000091F096841F47021024A121F1160704754
:1098100008000240080402400146486880B27047D0
:1098200010B50022026847F6F0739A430C6A8B6801
:1098300023430C6923434C6923438C692343CC693C
:1098400023434C6A23438C6A23431A430260CB6848
:1098500043600B6883604B68C36010BD4160704714
:109860007047000001460248016000207047000078
:10987000040300200549096821F01001034A116022
:109880001146096801431160704700000020024042
:1098900001460020034A106800F0380008431060B9
:1098A000704700000020024070B5044600252046A5
:1098B00007F076FE05460A2D01DA002070BD4FF054
:1098C000FF30FBE738B5044600200090451E0A2C07
:1098D00034DAC4EBC4001A4901EB8000007D68B3A0
:1098E0000020C4EBC401164A02EB81010875C4EBE9
:1098F000C40102EB81010861C4EBC40002EB8000EB
:1099000004224168684601F005FFC4EBC4000C491D
:1099100001EB80008069009988420ED0C4EBC4023C
:10992000074B03EB82025168C4EBC40203EB8202D3
:1099300002F11800042201F059FF0025284638BD25
:10994000E000002070B505460024284607F028FEF8
:1099500004460A2C21DA0020C4EBC401104A02EBB1
:1099600081018861C4EBC40102EB81010861C4EB91
:10997000C40102EB81010875C4EBC402084B03EB80
:1099800082025168C4EBC40203EB820202F11800A8
:10999000042201F085FF002070BD4FF0FF30FBE78F
:1099A000E000002070B506460D460024304607F062
:1099B000F7FD04460A2C0EDAC4EBC400074901EB9C
:1099C0008000007D38B1C4EBC40001EB80008069E9
:1099D0002860002070BD4FF0FF30FBE7E000002062
:1099E0002DE9F843064688460024651E304607F0F8
:1099F000D7FD04460A2C3ADAC4EBC400224901EB35
:109A00008000007D002830D10120C4EBC4011E4A33
:109A100002EB810108750420C4EBC40102EB810153
:109A20000861C4EBC402184B03EB82025168C4EB1B
:109A3000C40203EB820202F11800042201F06AFE64
:109A4000254605F057FE0746C4EBC4000E4901EB5E
:109A5000800080690090C4EBC40051F820303A4681
:109A60000AA1002005F028FD01E04FF0FF3505F0C8
:109A700041FE07462B463A460EA1002005F01CFD8C
:109A80002846BDE8F8830000E0000020636C6F63A7
:109A90006B282564292066696C65206E616D6520E0
:109AA0002573206F70656E6421206C656E202564BF
:109AB00000000000636C6F636B28256429206669D1
:109AC0006C652068616E646C652025640000000090
:109AD0002DE9F04704460F46164698460025A9464C
:109AE0000A2C58DAC4EBC4002C4901EB8000007D3D
:109AF00018B96FF00900BDE8F0873546C4EBC40023
:109B0000264901EB80008068B04204D2C4EBC40057
:109B100001EB80008568C4EBC400204901EB8000A4
:109B20004068C4EBC4011D4A02EB8101096900EBE6
:109B30000109C4EBC400114601EB80000069284410
:109B4000001FC4EBC40102EB8101896988420CD972
:109B5000C4EBC400114601EB80008069001DC4EB1A
:109B6000C40102EB81010969451AAAB24946384687
:109B700001F0D0FDC8F80050C4EBC400074901EB68
:109B8000800000692844C4EBC401044A02EB81014F
:109B900008612846AFE74FF0FF30ACE7E000002057
:109BA00070B503460C461546002100220A2B12DA36
:109BB000C3EBC300094E06EB8001087D10B96FF0BE
:109BC000090070BD08691044CE68B04203D2201D60
:109BD00008610020F5E74FF0FF30F2E7E0000020D9
:109BE0002DE9FC4706460F46144698460025A9462F
:109BF0000A2E2EDA002C2CD0C6EBC600164901EB3B
:109C00008005287D18B96FF00900BDE8FC87296937
:109C1000686800EB010905F06DFD8246A869CDE991
:109C2000004052460DA100202B6805F045FC09EBD1
:109C30000400E96888420CD2A2B24946384601F0D5
:109C4000D5FDC8F8004028692044001FA8612046BF
:109C5000DBE74FF0FF30D8E7E0000020636C6F6374
:109C60006B282564292066696C65206E616D65200E
:109C70002573207772697465206C656E20256421D8
:109C8000206375722073697A6520256420000000C6
:109C900010B504462948844208D10121042001F06E
:109CA00059FB0021042001F055FB46E02448844282
:109CB00008D10121082001F04DFB0021082001F00E
:109CC00049FB3AE01F48844208D10121102001F0ED
:109CD00041FB0021102001F03DFB2EE01A48844298
:109CE00008D10121202001F035FB0021202001F0C6
:109CF00031FB22E01548844208D10121402001F0C7
:109D000029FB0021402001F025FB16E01048844289
:109D100008D10121802001F01DFB0021802001F0ED
:109D200019FB0AE00B48844207D10121801501F09C
:109D300011FB0021A01501F00DFB10BD0008014032
:109D4000000C0140001001400014014000180140C7
:109D5000001C0140002001402DE9F0410246002591
:109D60000026002000230024002791F803C00CF0F7
:109D70000F0591F803C00CF0100CBCF1000F03D0DC
:109D800091F802C04CEA050591F800C0BCF1000F43
:109D900031D0146800202BE04FF0010C0CFA00F3D6
:109DA000B1F800C00CEA03069E4220D183004FF0B8
:109DB0000F0C0CFA03F7BC4305FA03FC4CEA04044D
:109DC00091F803C0BCF1280F06D14FF0010C0CFA3A
:109DD00000FCC2F814C00AE091F803C0BCF1480FBF
:109DE00005D14FF0010C0CFA00FCC2F810C0401C69
:109DF0000828D1D31460B1F800C0BCF1FF0F34DDE6
:109E0000546800202EE000F1080C4FF0010808FA19
:109E10000CF3B1F800C00CEA03069E4221D1830086
:109E20004FF00F0C0CFA03F7BC4305FA03FC4CEAA5
:109E3000040491F803C0BCF1280F05D100F1080C0F
:109E400008FA0CF8C2F8148091F803C0BCF1480F6E
:109E500007D100F1080C4FF0010808FA0CF8C2F81D
:109E60001080401C0828CED35460BDE8F08100006B
:109E7000F0B50A46002300240021002500F000462A
:109E8000B6F1004F02D11D4EF16901E01B4E716821
:109E9000C0F3034583B200F44016B6F5401F08D165
:109EA00021F07061154E766826F07066134F7E6063
:109EB00012E000F48016B6F5801F06D1032606FADC
:109EC00005F4A14341F0706106E0460D360103FA46
:109ED00006F6B14341F0706122B1460D360103FA36
:109EE00006F6314300F00046B6F1004F02D1034EB2
:109EF000F16101E0014E7160F0BD00000000014021
:109F000041617047016170477CB50446002505F04A
:109F1000F1FB401B13D005F0EDFB054601200EA11F
:109F200000231A46CDE900100FA147F2305012F07D
:109F30000FFA012803D101210C4880F895100B4835
:109F400090F89500012802D1042020607CBD0020FB
:109F5000206000BFFAE7000041542B5149414354AF
:109F60003D25640D0A0000004F4B0000203B0020FF
:109F70002DE9FC4104460F46154607A000231A466A
:109F80000BA1CDE900044FF4167012F0E1F906467A
:109F90002E700020BDE8FC8141542B5149444E53A2
:109FA0004749503D312C222573220D0A0000000044
:109FB0004F4B000000B58FB000200E90342101A857
:109FC000FEF7CBF905F096FB1A490968401A21D033
:109FD000194890F8350001281CD0174890F8350032
:109FE000052817D005F086FB1249086013A032231C
:109FF00001AA15A100904FF47A7012F0A9F9012876
:10A0000008D10EAA12A101A8FEF7FCF90A490E9880
:10A0100081F83500084890F83500012804D006483A
:10A0200090F83500052802D101200FB000BD0020B6
:10A03000FBE7000014030020203B002041542B4389
:10A04000475245473F0D0A002B43475245473A00C8
:10A05000252A5B5E2C5D2C256400000000BFFEE716
:10A0600021B1028842F00102028004E002884FF62A
:10A07000FE731A40028070472DE9F04385B0044614
:10A080000D460026B1460427DFF8CC80A6884FF69F
:10A09000C0700640684601F0C7F9DDF808802F4817
:10A0A000B8FBF0F01FFA80F946EA0906A68020887E
:10A0B0004FF6FE7108402080002629492868884212
:10A0C0000CD828684000B8FBF0F087B2042F00DA03
:10A0D00004273E4309F10100208427E0E8884BF67D
:10A0E000FF71884206D1286800EB4000B8FBF0F011
:10A0F00087B209E0286800EBC00101EB0010B8FB53
:10A10000F0F087B247F48047C7F30B0008B947F077
:10A11000010747F4004006434FF4967009FB00F036
:10A120004FF47A7190FBF1F0401C2084A6832088C4
:10A1300040F00100208026884FF6F5300640A888C0
:10A140006989084306432680A88929890843208114
:10A1500005B0BDE8F083000000127A0040420F0015
:10A16000A08601004CF6CC40014908607047000011
:10A17000003000404AF6AA200149086070470000FC
:10A180000030004001494860704700000030004046
:10A1900001498860704700000030004001490860B4
:10A1A000704700000030004000BFFEE770B5024677
:10A1B0000B464FF6FF70002110E0565C7040002403
:10A1C00008E000F00105401015B14AF201067040A8
:10A1D000661CB4B2082CF4DB4E1CB1B29942ECDB25
:10A1E00070BD704710B54FF4806000F039F810BDB5
:10A1F00070B5002100230F22C47804B3154C2468E5
:10A2000004F4E064C4F5E064210AC1F10403CA4027
:10A21000447804FA03F184781440214309010E4C78
:10A220000678A155047804F01F050124AC40057898
:10A230006D11AD0005F1E025C5F8004109E0047895
:10A2400004F01F050124AC40044D0678761145F852
:10A25000264070BD0CED00E000E400E080E100E08D
:10A2600002490143024A1160704700000000FA05EC
:10A270000CED00E010B500F013F800F0AFFD00F0B9
:10A28000D7FD00F0F7FD00F07FFD00F051FD00F07C
:10A290008BFE00F02FFE00F055FE00F002F810BD1E
:10A2A0007047704706480078012808D105480078B3
:10A2B000FF2804D203480078401C02490870704708
:10A2C000AE050020A105002010B500241A48007832
:10A2D000012830D1FDF736FF04461848007820B138
:10A2E00016480078401E1549087014480078F8B9DF
:10A2F00013480078E0B900F0B9FE12481249097815
:10A3000050F82100114908600F4800781049097879
:10A3100088420DD00D480068806B401C0B490968CD
:10A3200088630C480068401C0A490860FDF729FF53
:10A330002046FDF70BFF10BDAE050020A105002053
:10A34000A205002060530020A4050020BC050020C9
:10A35000A3050020880500202DE9F04106460D46A2
:10A360004FF000083078022804D001202870002027
:10A37000BDE8F081FDF7E6FE80467468E08A78B1BA
:10A380002169081D20610F68E08A401EE082A168F3
:10A390002069884201D1606820610020287002E0B5
:10A3A0001F20287000274046FDF7D0FE3846DFE723
:10A3B0002DE9F04106460F464FF000081F4800788F
:10A3C00010B10020BDE8F081FDF7BCFE80461C48BE
:10A3D0000568006820B11A4800684068184908609C
:10A3E0004046FDF7B3FE3DB3FDF7ACFE8046154891
:10A3F0000468C4B100680068124908604046FDF76F
:10A40000A5FE666006EB8700A060E6602661A78275
:10A410000020E08202202870002028816C602846FD
:10A4200000F078FC08E006480068686004480560B1
:10A430004046FDF78BFE00252846C3E7A105002016
:10A440008C050020C80500202DE9F04105460E4688
:10A4500000272878022802D00120BDE8F081FDF70E
:10A4600071FE0746A87A60B10023042231462846CF
:10A4700000F0BAFB3846FDF769FE00F0BDFD002094
:10A48000EBE76C68E08AA18A884204DB3846FDF776
:10A490005DFE1E20E1E7E168081DE0600E60E08AD5
:10A4A000401CE082D4E90210884201D16068E0607B
:10A4B0003846FDF74BFE0020CFE7000070B505469B
:10A4C00000260F48007808B1002070BDFDF73AFE65
:10A4D00006460C480468006820B10A4800684068D5
:10A4E000084908603046FDF731FE3CB1032020707A
:10A4F000258100206060204600F00CFC2046E4E747
:10A50000A10500208C0500202DE9F04105460E46EE
:10A51000144600272878032803D001202070BDE8C6
:10A52000F0813148007810B102202070F7E72F4801
:10A53000007810B10D202070F1E7FDF703FE07460B
:10A54000288940B12889401E28813846FDF7FEFD44
:10A5500000202070E3E72648006890F8300040F0C3
:10A5600001002349096881F830000020204909686A
:10A5700081F831001E480068C662284600F08CFB56
:10A580003846FDF7E3FD00F037FDFDF7DBFD07463C
:10A590001748006890F8310020B1012809D002283E
:10A5A00006D102E0002020700BE00E20207008E0B1
:10A5B00000BF29460E48006800F058FB0A202070B2
:10A5C00000BF00BF00200A49096881F8300008492F
:10A5D000096881F8310006490968C8613846FDF705
:10A5E000B5FD00BF9BE70000A1050020A2050020EB
:10A5F000B405002070B5044600252078032801D05A
:10A60000012070BDFDF79EFD0546A07A60B10023D4
:10A6100001221946204600F0E7FA2846FDF796FD8C
:10A6200000F0EAFC0020ECE720894FF6FF71884239
:10A6300007D22089401C20812846FDF787FD002095
:10A64000DFE72846FDF782FD3320DAE72DE9F04108
:10A6500004460E46154600272078032803D0012023
:10A660002870BDE8F081FDF76DFD074600202870D9
:10A67000208908B1268105E0A07A08B9268101E089
:10A68000492028703846FDF761FD00BFE9E700006A
:10A6900010B50B48007890B900F0E8FC0948007844
:10A6A0000949087009480749097850F82100084904
:10A6B00008600846006807490860FDF74AFD10BDBC
:10A6C000AE050020A4050020A30500206053002053
:10A6D000BC050020B4050020704700002DE9FE4FA6
:10A6E00006460F4690461C464FF00009FDF72AFD2E
:10A6F00081461F48007828B14846FDF727FD3C20D9
:10A70000BDE8FE8F1B4850F8240060BB01201949AA
:10A7100041F824004846FDF719FD0023424639461A
:10A72000304600F009F9824600200090019003466F
:10A73000024651460290204600F0AEFC054635B96F
:10A740000D48007801280CD100F056FC09E0FDF717
:10A75000F9FC81460020074941F824004846FDF7EE
:10A76000F5FC2846CCE74846FDF7F0FC2820C7E773
:10A77000A105002060530020AE0500202DE9F04F18
:10A7800085B081468A4693461C46DDE90F78129DC6
:10A7900000200390FDF7D6FC03902348007830B1E9
:10A7A0000398FDF7D3FC3C2005B0BDE8F08F1F48AF
:10A7B00050F8240088BB01201C4941F8240003986C
:10A7C000FDF7C4FC2A464146384600F075FD2B468D
:10A7D0005A465146484600F0AFF804901198CDE92A
:10A7E000008002953A4620460E9B049900F054FCE6
:10A7F000064636B90E48007801280CD100F0FCFB63
:10A8000009E0FDF79FFC03900020084941F824006F
:10A810000398FDF79BFC3046C6E7FFE70398FDF77A
:10A8200095FC2820C0E70000A1050020605300200F
:10A83000AE050020704770472DE9F04106460F46EF
:10A8400014464FF000081548007818B11220207007
:10A85000BDE8F081FDF776FC8046FF2E03D110485D
:10A86000006890F832600F4850F826502DB94046E5
:10A87000FDF76CFC43202070EAE7012D05D140462E
:10A88000FDF764FC43202070E2E7EF644046FDF7EB
:10A890005DFC0020207000BFDAE70000A105002069
:10A8A000B405002060530020704700002DE9F047F8
:10A8B00007460D464FF0000A002028606860FDF74B
:10A8C00041FC8246FF2F03D11948006890F832708E
:10A8D000184850F827402CB95046FDF737FC432064
:10A8E000BDE8F087012C04D15046FDF72FFC432032
:10A8F000F6E7207C00F0010020B95046FDF726FC69
:10A900004520EDE70026D4F80C90D4F80880504696
:10A91000FDF71CFC00E0761C58F8041B0029FAD057
:10A92000B0002860A9EB0600800068600020D7E72F
:10A93000B40500206053002070B5044610464FF067
:10A9400080750560051F28462C606FF00106051F05
:10A9500028462E604FF01236051F28462E604FF015
:10A960000336051F28462E604FF00236051F284685
:10A970002E607610051F28462E60051F2846296088
:10A980004FF01136051F28462E604FF01036051F78
:10A9900028462E604FF00936051F28462E604FF0DE
:10A9A0000836051F28462E604FF00736051F28463B
:10A9B0002E604FF00636051F28462E604FF00536F4
:10A9C000051F28462E604FF00436051F28462E60CE
:10A9D00070BD00002DE9F04105464FF00008FDF77D
:10A9E000B1FB8046FF2D05D12048006890F8325019
:10A9F000012608E01D48006890F83200A84201D105
:10AA0000012600E000261A4850F825402CB940469F
:10AA1000FDF79CFB4820BDE8F081012C04D14046A5
:10AA2000FDF794FB4320F6E794F834701148C05DBD
:10AA300094F8351088430F49C8550846C05D30B9B1
:10AA400094F836100C48007888430B49087094F845
:10AA5000300040F0080084F830004046FDF776FBF7
:10AA6000012E01D100F0C8FA0020D4E7B40500207F
:10AA700060530020A6050020A505002070470000B7
:10AA800070B5054600261748007800B170BD16481D
:10AA9000007800B1FAE71DB3FDF754FB06461348F2
:10AAA000006890F834401248005D1049096891F838
:10AAB000351088430E4908550846005D40B90B48DB
:10AAC000006890F836100B480078884309490870F0
:10AAD00006480068C5623046FDF738FB00F08CFA86
:10AAE00000BFD3E7A1050020A2050020B405002087
:10AAF000A6050020A505002070B5002600F072F81C
:10AB0000FDF720FB064631480068401C2F490860CD
:10AB10003046FDF71BFB2E480078012853D12D4805
:10AB2000007820B1012804D0022809D103E00125D2
:10AB30000BE0002509E0012501202649087004E00A
:10AB4000012500202349087000BF00BF05B970BD72
:10AB50002148046833E0FDF7F5FA0646E06A50B391
:10AB6000E06A401EE062E06A28BB94F8300000F022
:10AB7000370040B114F8300F00F0C80020700120F9
:10AB80006070303C02E0002084F8310094F830001E
:10AB900000F0080078B93434A078104909780843E7
:10ABA0000E49087020780E49085C6178084314F853
:10ABB00034190B4A505464693046FDF7C7FA94F8CB
:10ABC00032003F28C7D100BFC1E70000CC050020FC
:10ABD000AE050020C4050020C0050020A50500200A
:10ABE000A6050020704700002DE9F04F05460F46EE
:10ABF00090469946A87A19490E5C05F10B00805DD4
:10AC000011F800B00BEBC60000F0FF0A144850F832
:10AC10002A4000202034E0602760207C20EA0800E1
:10AC2000207484F81190207C203C00F0080068B962
:10AC300094F836000B49097808430A4908700A4815
:10AC4000805D94F835100843074988552946204609
:10AC500000F00CF85046BDE8F08F0000F00202084A
:10AC600060530020A5050020A605002010B590F82F
:10AC7000342001F10B039B5C90F83540A34301F1B4
:10AC80000B04A35423469B5C23B98B7A90F836407F
:10AC9000A3438B7210BD000010B51B4A1268D0612F
:10ACA000194A126892F8343000F10B02D25C164B4C
:10ACB0001B6893F835301A43134B1B6893F83440E4
:10ACC00000F10B031A55827A0F4B1B6893F836304C
:10ACD0001A4382720C4A126892F834100B4A525C82
:10ACE000094B1B6893F835309A43084B5A541A465F
:10ACF000525C42B9044A126892F83630044A12781B
:10AD00009A43034B1A7010BDB4050020A60500201D
:10AD1000A5050020014600228A72002005E00023DC
:10AD200001F10B021354421CD0B20828F7D370472C
:10AD30002DE9F0415021114800F02CF900250DE0DB
:10AD4000681C86B20D4800EB051400EB06170020C6
:10AD5000207067600AA0E060681C85B2042DEFD304
:10AD6000064800EB051400202070606004A0E0603D
:10AD7000024804490860BDE8F0810000104F00203F
:10AD80003F0000009005002070B5C821114800F078
:10AD900001F900230FE0581C85B203EB83000D4935
:10ADA00001EB800405EB850001EB8006002020709C
:10ADB0006660581C83B2092BEDD303EB8300054971
:10ADC00001EB8004002020706060084602490860A2
:10ADD00070BD0000484E00208C05002000200A496C
:10ADE00008600A4908700A4908700A4908700A4947
:10ADF00008700A4908600A4908600A4908600A4957
:10AE000008600A4908707047CC050020A1050020A1
:10AE1000A2050020AF050020AE0500208805002017
:10AE2000B00500209C05002098050020A00500200A
:10AE300000210A4A1170002004E00021084A115440
:10AE4000411CC8B20828F8D30021064A1170064AEE
:10AE50001170064A1160064A11607047A50500206E
:10AE6000A6050020A3050020A4050020BC050020A5
:10AE7000B405002070B54FF47C71194800F08AF8D1
:10AE80004FF48071174800F085F8002413E0601C2F
:10AE9000C5B2C4EBC40000EB4000114901EB8003D4
:10AEA000C5EBC50000EB400001EB80065E610EA023
:10AEB000D864601CC4B20B2CE9D3C4EBC40000EB13
:10AEC0004000074901EB80030020586106A0D864C8
:10AED00000200649086002480549086070BD00006E
:10AEE00060540020605300203F000000C005002097
:10AEF000B805002000B587B00320002180220A4B4E
:10AF0000CDE90132CDE903104FF6FF703F23074A28
:10AF100000900748FFF732FC06AA06A13F20FFF782
:10AF20008BFC07B000BD0000605100205C53002086
:10AF3000CDB1000875432F4F532D49492049646C0A
:10AF40006500000000B587B00320002180220A4B75
:10AF5000CDE90132CDE903104FF6FE703E23074ADA
:10AF600000900748FFF70AFC06AA06A13E20FFF75B
:10AF700063FC07B000BD0000604F00205C51002062
:10AF8000F5B1000875432F4F532D49492053746183
:10AF90007400000004E0002200F8012B4A1E91B268
:10AFA0000029F8D1704700002DE9F04178211048C0
:10AFB000FFF7F0FF00240DE0601C86B204EB4400B4
:10AFC0000B4901EBC00506EB460001EBC0072F6003
:10AFD000601C84B2042CEFD304EB4400044901EB61
:10AFE000C00500202860084602490860BDE8F081DD
:10AFF00050580020C805002010B50024FDF7A2F825
:10B00000044613480078F8B912480078E0B900F017
:10B010002DF811481149097850F8210010490860AD
:10B020000E4800780F49097888420DD00C48006816
:10B03000806B401C0A49096888630B480068401C03
:10B0400009490860FDF796F82046FDF77FF810BD26
:10B05000A1050020A205002060530020A4050020C7
:10B06000BC050020A3050020880500200649074AEA
:10B070001278885C0649095C034A515C01EBC00107
:10B08000044A117070470000F0020208A505002074
:10B09000A6050020A40500202DE9F84F05460F461F
:10B0A00090469946DDE90AAB00200090FDF74AF88A
:10B0B00000903F480468002C74D0183454F8040CF5
:10B0C0003B4908600098FDF741F844F8187CA576E4
:10B0D000002020766076606144F814BC44F80CAC23
:10B0E00044F8108C0C9824F8080C24F8069C0020D6
:10B0F000E077E810207705F00700E076217F012057
:10B100008840A077E17E0120884060770020606061
:10B11000E060A0602062A0626062E062206325A01F
:10B120006063183C002606E0002104F1500040F85E
:10B130002610701CC6B2002EF6D02046FFF7CCFABF
:10B140002046FFF777FBFCF7FDFF00901A4840F818
:10B1500025401A48006860610020A0611748006817
:10B1600010B1164800688461144804603434A07833
:10B170001349097808431249087020781149085C7E
:10B180006178084314F834190E4A50540E48007878
:10B19000401C0D4908700098FCF7D8FF0020BDE85E
:10B1A000F88FFFE70098FCF7D1FF4220F7E7000097
:10B1B000B80500203F00000060530020C0050020BB
:10B1C000A5050020A6050020AF050020002400BF33
:10B1D00000BFFCF7B7FF044605480068401C04495F
:10B1E00008602046FCF7B2FFFFF725FBF1E70000FF
:10B1F000B0050020002400BF02E02820FFF740FC3B
:10B20000194800780028F8D0184800686421B0FB7D
:10B21000F1F0164908600846006828B90020144972
:10B220000870FF20FFF7D6FB00BFFCF78BFF04463A
:10B23000104800681049086000200E490860204648
:10B24000FCF784FF0C48006808490968B0FBF1F07E
:10B25000C0F1640006490870FFF726FB00F00EF805
:10B260001420FFF70DFCE0E7A00500209805002062
:10B2700094050020B00500209C0500207CB5002529
:10B2800014E069462846FFF711FB064666B90948EF
:10B2900050F8254044B1012C06D0D4E9020100EB5E
:10B2A000810060640198A064681CC5B23F2DE8D994
:10B2B0007CBD00006053002002F0010343B102F0A6
:10B2C00002032BB102E0491E002308C00029FAD175
:10B2D0007047000029B1064A52690243044B5A6183
:10B2E00004E0034A52698243014B5A6170470000EF
:10B2F0000010024029B1064AD2690243044BDA61C8
:10B3000004E0034AD2698243014BDA6170470000CE
:10B310000010024029B1064A12690243044B1A6127
:10B3200004E0034A12698243014B1A61704700002E
:10B330000010024029B1064A92690243044B9A6107
:10B3400004E0034A92698243014B9A61704700000E
:10B350000010024029B1064AD2680243044BDA6069
:10B3600004E0034AD2688243014BDA607047000070
:10B370000010024010B500F031F84FF4803000F0BA
:10B38000EFF800F04BF9012826D1002000F0DCF89E
:10B39000002000F017F94FF4806000F007F9022058
:10B3A000FEF776FA1020FEF765FA4FF4E0114FF43D
:10B3B000803000F019F9012000F010F900BF3920A9
:10B3C00000F09CF80028FAD0022000F01BF900BF22
:10B3D00000F0B2F80828FBD110BD00000F4800684B
:10B3E00040F001000D490860084640680C490840DB
:10B3F0000A494860084600680A4908400749086049
:10B400000846006820F4802008600846406820F460
:10B41000FE0048604FF41F00886070470010024033
:10B420000000FFF8FFFFF6FE30B5002100220024E7
:10B4300000232D4D6D6805F00C0121B1042905D0C4
:10B44000082923D105E0294D056022E0274D05603C
:10B450001FE0254D6D6805F47012234D6D6805F4ED
:10B460008034022505EB92421CB9214D55430560FD
:10B470000BE01D4D6D6805F400351DB11C4D5543A5
:10B48000056002E0194D5543056002E0174D056067
:10B4900000BF00BF144D6D6805F0F0010909154D9E
:10B4A0006B5C0568DD4045600F4D6D6805F4E0613B
:10B4B000090A104D6B5C4568DD4085600A4D6D687A
:10B4C00005F46051C90A0B4D6B5C4568DD40C560F1
:10B4D000054D6D6805F44041890B074D6B5CC568EF
:10B4E000B5FBF3F5056130BD0010024000127A0093
:10B4F00000093D00600500207005002010B50146E0
:10B500000022002300204A11012A02D1094C23689D
:10B5100006E0022A02D1074C236A01E0054C636A67
:10B5200001F01F02012494401C400CB1012000E0F6
:10B53000002010BD001002400248406800F00C00DE
:10B54000704700000010024001460020034A506886
:10B5500020F0F000084350607047000000100240E7
:10B560001149096821F480310F4A116011460968B8
:10B5700021F480211160B0F5803F03D0B0F5802F19
:10B580000ED106E00849096841F48031064A11608D
:10B5900007E00549096841F4A021034A116000E071
:10B5A00000BF00BF704700000010024001460020AD
:10B5B000034A506820F4E060084350607047000080
:10B5C0000010024001460020034A506820F46050F9
:10B5D00040EAC1005060704700100240014908660F
:10B5E000704700000000424202460020044B5868A9
:10B5F00020F47C1042EA01031843014B5860704765
:10B600000010024001460020034A506820F0030069
:10B6100008435060704700000010024038B5002019
:10B6200000900024002500BF3120FFF767FF05468A
:10B630000098401C00900098B0F5A06F01D0002D3C
:10B64000F2D03120FFF75AFF08B1012400E00024B6
:10B65000204638BD70B5044600200649087004F045
:10B6600049F8054623462A4603A1022003F024FF99
:10B6700070BD00001005002028636C6F636B2025EF
:10B68000642952657365742053797374656D282538
:10B690007329000021B1028842F04002028004E0D8
:10B6A00002884FF6BF731A400280704710B5002021
:10B6B00004490860062000F06DF901200249C1F834
:10B6C000900110BD900121420000214210B50446B6
:10B6D0002403FFF7EBFF00F07FF800200B49086020
:10B6E000202000F057F9C4F3074000F053F9C4F3E9
:10B6F000072000F04FF9E0B200F04CF901200449B6
:10B70000C1F8900100F068F810BD000090012142DE
:10B71000000021422DE9F04106460C461746002064
:10B720000F490860032000F035F9C4F3074000F02A
:10B7300031F9C4F3072000F02DF9E0B200F02AF946
:10B74000002505E0FF2000F025F97055681C85B242
:10B75000BD42F7DB012002490860BDE8F08100002E
:10B760009001214210B5002400200E49086090206D
:10B7700000F010F9002000F00DF9002000F00AF9A7
:10B78000002000F007F9FF2000F004F944EA00244B
:10B79000FF2000F0FFF8044301200349C1F89001A5
:10B7A000204610BD900121420000214210B5002426
:10B7B000002007490860052000F0ECF8FF2000F0A9
:10B7C000E9F8044601200349C1F89001204610BD64
:10B7D000900121420000214210B500BFFFF7E6FFB3
:10B7E00000F001000028F9D110BD00002DE9F0475C
:10B7F00081460F4616464FEA1738C7F30B0ACAF5BB
:10B800008054A64200DC344644E04FEA08314FF44D
:10B8100080522248FFF77EFF002508E00AEB050072
:10B820001E49085CFF2800D003E0681C85B2A542D1
:10B83000F4DB00BFA54216DA4046FFF747FF0025BC
:10B8400007E019F8050005EB0A01144A5054681C7A
:10B8500085B2A542F5DB4FEA08314FF480520F481C
:10B8600000F01EF804E022463946484600F018F879
:10B87000A64200D10FE008F101084FF0000AA144F0
:10B880002744301B86B2B6F5805F02DD4FF480544A
:10B8900000E03446B9E700BFBDE8F087881E00200D
:10B8A0002DE9F04107460E461446F0B2C0F580750A
:10B8B000AC4200DC254612E02A463146384600F00C
:10B8C00013F8AC4200D10BE02F442E44601B84B22D
:10B8D000B4F5807F02DD4FF4807500E02546EBE78C
:10B8E00000BFBDE8F08100002DE9F04106460C469E
:10B8F0001746FFF7DBFE00200F490860022000F02A
:10B9000049F8C4F3074000F045F8C4F3072000F0FD
:10B9100041F8E0B200F03EF8002504E0705D00F070
:10B9200039F8681C85B2BD42F8DB01200249086085
:10B93000FFF752FFBDE8F08190012142024600204E
:10B9400013890B400BB1012000E000207047014635
:10B95000888970478181704710B50022028802F4FF
:10B9600041520B884C8823438C882343CC88234343
:10B970000C8923434C8923438C892343CC8923435B
:10B980001A430280838B4FF2FF74234083830B8A18
:10B99000038210BD70B50546002405E0601CC4B2EA
:10B9A000C82C01DD002070BD02210E48FFF7C6FF44
:10B9B0000028F3D029460B48FFF7CCFF002405E010
:10B9C000601CC4B2C82C01DD0020ECE70121054851
:10B9D000FFF7B4FF0028F3D00248FFF7B8FFC0B26A
:10B9E000E1E700000030014010B504460748008838
:10B9F0004FF6C77108400549088008460088204373
:10BA0000088001210148FFF745FE10BD00300140CC
:10BA100030B503460C461546002207E0184600F0F4
:10BA200008F824F812009B1C501C82B2AA42F5DBD5
:10BA300030BD0146088870477047000000B585B0EA
:10BA400001218805FFF756FC01210820FFF772FC51
:10BA50004FF44060ADF8000003208DF802001C2078
:10BA60008DF8030069461048FEF776F90020ADF81E
:10BA700008004BF6FF70ADF80A00D020ADF80C00BE
:10BA80004FF48060ADF80E000001ADF810000748DB
:10BA9000019001A90648FEF7EFFA01210448FEF7DC
:10BAA000DFFA05B000BD0000000C0140A0860100D7
:10BAB0000058004010B500F001F810BD0CB5002092
:10BAC000019000903348006840F4803031490860AC
:10BAD00000BF3048006800F4003000900198401C1E
:10BAE0000190009818B90198B0F5A06FF1D12948DC
:10BAF000006800F4003010B10120009001E0002047
:10BB000000900098012843D12348006840F01000BD
:10BB1000214908600846006820F0030008600846D4
:10BB2000006840F0020008601A48406819494860FF
:10BB30000846406848600846406840F480604860B5
:10BB40000846406820F47C1048600846406840F48D
:10BB5000E81048600846006840F08070086000BF48
:10BB60000C48006800F000700028F9D009484068CF
:10BB700020F00300074948600846406840F0020092
:10BB8000486000BF0348406800F00C000828F9D165
:10BB90000CBD000000100240002002407CB50446AD
:10BBA0000AA000231A460DA1CDE900040C4810F0AC
:10BBB000CFFB05460B2C07DAC4EBC4010948084447
:10BBC000002101608180817100207CBD41542B5196
:10BBD00049434C4F53453D25640D0A004F4B00002F
:10BBE000F0490200BC3B00202DE9F04F87B004462D
:10BBF0000F4690461E46DDE910A906EB061000EB45
:10BC0000800128480D186878002849D0002C47DBAF
:10BC10000B2C45DAC4EBC40105F108000844407957
:10BC200000283DD0C4EBC40105F108000844807928
:10BC3000002835D103F05EFD83465A461AA1012043
:10BC400003F03AFC204850F82900CDE90478CDE90A
:10BC500002401EA000231A4625A1CDE9000641F2AC
:10BC6000707010F075FB012812D103F043FD83467C
:10BC70005A4621A1012003F01FFC0121C4EBC4029C
:10BC800005F1080010448171012007B0BDE8F08F74
:10BC900003F030FD83465A461FA1012003F00CFC3F
:10BCA0000020F2E75F3B0020636C6F636B28256424
:10BCB00029205361747274204F70656E20736F6316
:10BCC0006B65742100000000FC02002041542B51E0
:10BCD000494F50454E3D25642C25642C2225732266
:10BCE0002C222573222C25642C302C300D0A0000C8
:10BCF0002B51494F50454E00636C6F636B28256490
:10BD000029536F636B6574204F70656E2073756384
:10BD10006365737321000000636C6F636B28256497
:10BD200029536F636B6574204F70656E206661697F
:10BD30006C21000070B50346144603EB031000EBC2
:10BD400080050E482A185078A8B1C1EBC10502F150
:10BD500008002844407901280DD00125C1EBC10617
:10BD600002F1080030444571C1EBC10502F1080041
:10BD70004455084670BD4FF0FF30FBE75F3B0020A5
:10BD80002DE9F04104460D46164632462946204626
:10BD900002F0C0F907463846BDE8F0810149486025
:10BDA00070470000040300202DE9F04106460F46CD
:10BDB0001446002503F09EFC804642460CA101205B
:10BDC00003F07AFB22463946304602F01DFA05465A
:10BDD00003F090FC80462B4642460CA1012003F064
:10BDE0006BFB15B92046BDE8F0810020FBE70000A1
:10BDF000636C6F636B28256429205374617274200F
:10BE0000536F636B65742073656E6400636C6F635E
:10BE10006B2825642920537461727420536F636BFF
:10BE2000657420636F6D706C6965746528726573E5
:10BE30002025642900000000042808D14FF0E021EB
:10BE4000096941F004014FF0E022116107E04FF071
:10BE5000E021096921F004014FF0E02211617047EF
:10BE600010B5FEF71FFAFEF747FEFEF72DFA09F0B0
:10BE7000CFFA10BD10B51248006840F0010010491B
:10BE80000860084640680F4908400D494860084668
:10BE900000680D4908400A4908600846006820F417
:10BEA000802008600846406820F4FE0048604FF497
:10BEB0001F008860FFF7FEFD04480549086010BDBB
:10BEC000001002400000FFF8FFFFF6FE00800008AF
:10BED00008ED00E010B50121074800F04FF950B11E
:10BEE0000121054800F046F804480068401C034959
:10BEF000086009F087F910BD000400401C0500200F
:10BF00001FB501210220FFF7F5F9184800F042F8AB
:10BF100042F20F70ADF8080041F61F40ADF8040082
:10BF20000020ADF80A00ADF8060001A90F4800F0A6
:10BF30003FF9012211460D4800F031F91D208DF81E
:10BF4000000000208DF8010003208DF80200012080
:10BF50008DF803006846FEF74BF90121034800F015
:10BF60000CF80020024908601FBD000000040040DA
:10BF70001C050020CA430282704721B1028842F0AA
:10BF80000102028004E002884FF6FE731A4002802C
:10BF90007047000010B504466848844208D101216A
:10BFA000C014FFF7D7F90021E014FFF7D3F9C4E07C
:10BFB000B4F1804F08D101210846FFF7ABF9002109
:10BFC0000120FFF7A7F9B8E05D48844208D10121BC
:10BFD0000220FFF79FF900210220FFF79BF9ACE058
:10BFE0005848844208D101210420FFF793F9002129
:10BFF0000420FFF78FF9A0E05348844208D10121C3
:10C000000820FFF787F900210820FFF783F994E063
:10C010004E48844208D101211020FFF77BF900210E
:10C020001020FFF777F988E04948844208D10121C0
:10C030002020FFF76FF900212020FFF76BF97CE04B
:10C040004448844208D101214014FFF783F90021BC
:10C050006014FFF77FF970E03F48844209D1012165
:10C06000C804FFF777F900214FF40020FFF772F9B9
:10C0700063E03A48844209D101210805FFF76AF9D3
:10C0800000214FF48010FFF765F956E034488442F0
:10C0900009D101214805FFF75DF900214FF4001097
:10C0A000FFF758F949E02F48844208D10121402088
:10C0B000FFF730F900214020FFF72CF93DE02A4836
:10C0C000844208D101218020FFF724F9002180203B
:10C0D000FFF720F931E02548844208D1012180157D
:10C0E000FFF718F90021A015FFF714F925E0204803
:10C0F000844209D101210804FFF72CF900214FF4F3
:10C100008030FFF727F918E01A48844209D101214D
:10C110004804FFF71FF900214FF40030FFF71AF928
:10C120000BE01548844208D101218804FFF712F979
:10C1300000214FF48020FFF70DF910BD002C0140C5
:10C140000004004000080040000C004000100040C7
:10C150000014004000340140004C014000500140F8
:10C160000054014000180040001C00400020004026
:10C1700000400140004401400048014030B5024603
:10C18000002000230024158A05EA0103958905EAA9
:10C19000010413B10CB1012000E0002030BD1AB140
:10C1A00083890B43838102E083898B4383817047BA
:10C1B000002202881D4B98420ED01D4B98420BD096
:10C1C000B0F1804F08D01B4B984205D01A4B9842D3
:10C1D00002D01A4B984204D14FF68F731A404B8805
:10C1E0001A43174B984207D0164B984204D04FF68B
:10C1F000FF431A40CB881A4302808B8883850B88C3
:10C2000003850A4B98420BD0094B984208D00E4B3D
:10C21000984205D00D4B984202D00D4B984201D167
:10C220000B7A03860123838270470000002C0140B3
:10C23000003401400004004000080040000C0040B1
:10C240000010004000140040004001400044014044
:10C250000048014008B5FEF725F840F22551164880
:10C2600000F000F950B1144800F0B8F9C0B20090E5
:10C2700001226946114805F02AF81AE04FF4587176
:10C280000D4800F0EFF878B10B4800F0A7F9C0B204
:10C2900000904FF45871084800F0B3F84FF458710B
:10C2A000054800F0A5F804E0034800F097F9C0B293
:10C2B0000090FEF709F808BD004C0040344E002005
:10C2C00008B5FDF7EFFF40F225511E4800F0CAF80F
:10C2D000A0B11C4800F082F9C0B20090012240F2E7
:10C2E0002441184800F0E8F800201749087001229E
:10C2F00069461548083004F0EAFF1FE040F2244187
:10C30000104800F0AFF8A0B10E48001D0088C0B280
:10C310000090002240F224410A4800F0CDF80122AA
:10C3200069460948083004F0D2FF01200649087028
:10C3300004E0044800F052F9C0B20090FDF7C4FFD9
:10C3400008BD000000380140104E002038B5002420
:10C35000FDF7A8FF40F22551214800F083F850B1C5
:10C360001F4800F03BF9C0B20090012269461D4809
:10C3700004F0ADFF30E040F22441194800F072F8BB
:10C3800028B31748001D0088C0B2009014480088E8
:10C39000C0B200909DF80000009000211248FDF707
:10C3A00089F91148FDF738FAC0F1640084B2002C15
:10C3B00004DD22460D490B4804F089FF64200A4938
:10C3C0006C39086701210848FDF774F904E0044856
:10C3D00000F004F9C0B20090FDF776FF38BD000010
:10C3E00000440040741A00206C000240081A00202B
:10C3F00001F40072B2F5007F00D100BFCA43028091
:10C40000704710B50022002340F66A14A14200D103
:10C4100000BF0A1201249440A3B2DC43048010BD83
:10C4200021B1828942F40052828104E082894DF672
:10C43000FF731A40828170471AB1838A0B4383824B
:10C4400002E0838A8B438382704702460020B1F565
:10C45000007F00D100BF13880B400BB1012000E02A
:10C460000020704770B502460024002300250020FC
:10C4700040F66A16B14200D100BFC1F3421501F087
:10C480001F03012606FA03F3012D02D196893340DA
:10C4900006E0022D02D1168A334001E0968A33402D
:10C4A0000C12012606FA04F41688344013B10CB1BC
:10C4B000012000E0002070BDF0B5034600240026F6
:10C4C0000025002040F66A17B94200D100BF184687
:10C4D000C1F3421401F01F06012707FA06F5012CEB
:10C4E00001D10C3004E0022C01D1103000E01430F6
:10C4F0001AB107682F43076002E00768AF4307607F
:10C50000F0BD00002DE9F04786B005460E46002438
:10C51000A24600BFA1460027B08900B100BF2F4648
:10C520002C8A4CF6FF700440F08804432C82AC89BE
:10C530004EF6F3100440B0883189084371890843EE
:10C540000443AC81AC8A4FF6FF400440B0890443F9
:10C55000AC8201A8FEF768FF1F48874202D1DDF8D0
:10C5600010A001E0DDF80CA0A88900F4004040B163
:10C570000AEBCA0000EB0A1031684900B0FBF1F881
:10C5800007E00AEBCA0000EB0A1031688900B0FB33
:10C59000F1F86420B8FBF0F004012009642101FBEC
:10C5A0001089A88900F4004040B1322000EBC90096
:10C5B000B0FBF1F000F00700044308E0322000EB8C
:10C5C00009106421B0FBF1F000F00F0004432C814E
:10C5D00006B0BDE8F08700000038014001468888B9
:10C5E000C0F308007047C1F308028280704700BFA3
:10C5F000FEE700000FB41CB50A46521ECDE900024A
:10C6000007A9054B6A46069800F076FC009A0021BF
:10C6100011701CBC5DF814FB27D600080FB4084B42
:10C6200010B504A902AA039800F066FC044602A90A
:10C63000002001F003F8204610BC5DF814FB000058
:10C640003DD6000837B514460846064B6A462146D3
:10C6500000F052FC04466946002000F0EFFF20463F
:10C660003EBD00003DD60008490050EAC12018BF79
:10C6700004204A0D18BF40F0010040F2FF72B2EBF7
:10C68000515F08BF40F00200012808BF0520704735
:10C6900000487047D80500202DE9F74F144694B0A4
:10C6A0000021C4E902111599079121F00045C949FB
:10C6B0008D4206DC1599C4E9000117B00020BDE8E1
:10C6C000F08FC549DFF814A3A9423CDD0799C44E99
:10C6D0000029C44FC44A1599534619DDFCF73AF9AD
:10C6E000554506D0C14AC24BFCF734F9C4E90001F4
:10C6F0000AE04FF0D352BE4BFCF72CF932463B46D2
:10C70000FCF728F9C4E9000117B00120BDE8F08F5B
:10C71000FCF77FF8554506D0B44AB54BFCF779F8DD
:10C72000C4E900010AE04FF0D352B14BFCF771F8B5
:10C7300032463B46FCF76DF8C4E9000117B04FF0F4
:10C74000FF30BDE8F08FAB49A942159978DB21F0A5
:10C75000004183468846A84AA84BFCF701F900220D
:10C76000A74BFCF756F8FCF740FA0990FCF7F5F9EF
:10C7700006460F469C4A5346FCF7F2F843465A4693
:10C78000FCF7EBF880468A46984A994B3046394682
:10C79000FCF7E6F82A0D01250B9242465346FCF7BA
:10C7A000DCF8032DC4E9000139D00B98C1F30A511C
:10C7B000401A05EB45111139814230DA9148C346E0
:10C7C000784400EB0510CDF80CA00C90D0E90023C4
:10C7D00030463946FCF7C4F802460B4604910690F1
:10C7E00058460399FCF7B6F880468A4602460B463F
:10C7F00058460399FCF7AEF8049B069AFCF7AAF892
:10C8000083460C9803913946D0E902233046FCF761
:10C81000A7F85A46039BFCF79DF86D1CBDE70798E7
:10C820000028A2BF099817B0BDE8F08F616881F0B9
:10C8300000416160099817B04042BDE8F08FFFE702
:10C8400084461598C1F31301C0F30A50A0F2F530E5
:10C850004FEA601800F01F06C6F120001390002078
:10C860000690079041F4801E05206D4676B1664A19
:10C8700008EB00017A4452F8213002EB8101B34009
:10C880004A68139922FA01F1194305E05F4908EB60
:10C890000002794451F82210A1FB0E27A1FB0C13D2
:10C8A0001A449A4234BF0123002303EB070A05EB25
:10C8B0008003D3E901B70F448F4234BF0121002127
:10C8C00093448B4411B1934502D903E0934501D2BF
:10C8D000012100E00021C3E901B7514445F82010CF
:10C8E000011EA0F10100C1DC0298059F00F100507B
:10C8F000800F12900298DDE903568000FCF72DF9B5
:10C90000834628460D91FCF739F96FF01D02FCF7BC
:10C91000A1FBCDE90E013046FCF730F96FF03D0286
:10C92000FCF798FB80468A463846FCF727F96FF0FB
:10C930005D02FCF78FFB0746424653461191FBF719
:10C9400068FFDDE90E23FBF764FF5A460D9BFBF7FA
:10C9500060FF00250E465A4628460D9BFBF7FAFF5E
:10C96000DDE90E23FBF7F6FF42465346FBF7F2FFE5
:10C970003A46119BFBF7F1FFDFF898A0244A534693
:10C98000FBF7EEFF07468846234A244B31462846EC
:10C99000FBF7E6FF3A464346FBF73BFF0746884670
:10C9A0004FF0A842534631462846FBF7D9FF3A4696
:10C9B0004346FBF72EFF159A12F0004F04D0129A4F
:10C9C00081F0004152421292C4E90001129817B05E
:10C9D000BDE8F08FFB21E93F7CD90240FB21F93F04
:10C9E0007370032E8A19A33B000040543163621A0E
:10C9F00061B4D03DFB21394183C8C96D305FE43F4C
:10CA00000000E03F4C3D0100C83C0100AA3C010091
:10CA1000182D4454FB21F93D3326A611460B113C39
:10CA20002DE9FF4D21F0004807460C46B8F1795F2B
:10CA300008DAFCF7DAF8002801BF0020324904B018
:10CA4000BDE8F08D3A46234610461946FBF788FFAD
:10CA5000054602462D480E460B460621784400F056
:10CA60005DF82A463346FBF77BFFDDE90223824669
:10CA70008B4638462146FBF773FF04460F46524665
:10CA80005B4628463146FBF76BFF22463B46FBF7E9
:10CA900061FF07468A464FF0FF3228463146FCF7D1
:10CAA000D9FA1B4A90450ADA3A465346FBF752FF39
:10CAB00004B00022BDE8F04D134BFBF74EBF154A02
:10CAC0004245A8BFA8F500154FF00004B8BF124DAD
:10CAD00022462B46FBF73EFF0646884622462B465B
:10CAE00000200949FBF736FF04460D463A465346F7
:10CAF00030464146FBF72EFF04B022462B46BDE8E8
:10CB0000F04DFBF72ABF00000000F03F783A01002B
:10CB10003333D33F0000E93F0000D23F2DE9F0411D
:10CB20004F1E00EBC7010446D1E9000115461E4621
:10CB300037F006020DD02A463346FBF711FF7F1E61
:10CB400004EBC703D3E90023FBF763FE37F00602CB
:10CB5000F1D1022F25D0042F13D0062F18BFBDE826
:10CB6000F0812A463346FBF7FBFED4E90A23FBF7A4
:10CB700050FE2A463346FBF7F3FED4E90823FBF7C1
:10CB800048FE2A463346FBF7EBFED4E90623FBF7C3
:10CB900040FE2A463346FBF7E3FED4E90423FBF7C5
:10CBA00038FE2A463346FBF7DBFED4E90223FBF7C7
:10CBB00030FE2A463346FBF7D3FED4E90023BDE816
:10CBC000F041FBF726BE00002DE9FF4D054621F0A0
:10CBD000004084B00C46B0F1795F0BDA2846FFF7CD
:10CBE00043FD042808BF00F07FF8284608B021461E
:10CBF000BDE8F08D2A460B461046FBF7B1FE06460F
:10CC00000F462A462346FBF7ABFE804626488A4657
:10CC100032463B4605217844FFF780FF8346109853
:10CC2000029160B3214A224B40465146FBF798FEE1
:10CC3000CDE900015A4640465146029BFBF790FE63
:10CC400082468846DDE906014FF0FF32FCF702FA22
:10CC500052464346FBF77EFE32463B46FBF780FEDC
:10CC6000DDE90623FBF776FEDDE90023FBF772FE24
:10CC700008B02A462346BDE8F04DFBF76EBE0B46D2
:10CC80005A4630463946FBF76BFE084A084BFBF71D
:10CC9000C0FD42465346FBF763FE08B02A462346D2
:10CCA000BDE8F04DFBF7B5BDBE39010049555555FE
:10CCB0005555C5BF0022134610460149FBF7C2BEB9
:10CCC0000000F03F0122FCF7C5B9FBF7A2BD00222E
:10CCD000134610461146FBF7B5BE40F20132002064
:10CCE0004FF0E041FCF7B6B9024A00201107FCF70B
:10CCF000B1B9000001FDFFFF02E008C8121F08C122
:10CD0000002AFAD170477047002001E001C1121FCC
:10CD1000002AFBD1704700000149086070470000FD
:10CD2000D805002000B58BB001210220FEF7D2FA11
:10CD30001548FCF7CBFC15480090154801901020D1
:10CD40000290C001039000200490802005900020F4
:10CD50000690079008904FF48050099000200A90A8
:10CD600069460948FCF75CFD00210748FCF776FDA1
:10CD700001210548FCF79EFC012280210348001F89
:10CD8000FFF75AFB0BB000BD58040240044C0040B2
:10CD9000104600202DE9FF5FDDE90220010DDDF8DE
:10CDA00038B0024318D044F61050A1F2FF3141438D
:10CDB0000D140F98012820D0A5EB0B00401C5FEA52
:10CDC000000A4FF00004474EDFF81C91A046504681
:10CDD00016D5CAF1000728E00F98012443A20128C4
:10CDE00008D0002100980F9BC0E90021C0E9024350
:10CDF000BDE8FF9F6FEA0B01F4E7CBF10000DEE72F
:10CE0000074612E0F80707D0224633464046494617
:10CE1000FBF7A6FD80468946224633461046194652
:10CE2000FBF79EFD04460E467F10002FEAD1DDE998
:10CE30000201BAF1000F42464B4602DAFBF790FDC1
:10CE400001E0FBF7FFFD04460E460022284BFBF7EE
:10CE500017FF03D84FF0FF30014607E00022254BB3
:10CE600020463146FBF7D5FCFCF75CF9102409E0BD
:10CE7000002C0ADB0A220023FBF7D0F9019B303299
:10CE80001A55641E50EA0102F2D1641C019AC4F1E1
:10CE9000110314440F9A012A03D0012208430DD133
:10CEA0000AE0084304D000204FF0110B0F9080E7F8
:10CEB000A3EB0B056D1E0DE05B4504DD4FF000029A
:10CEC00005F1010504E003DA4FF00002A5F10105C8
:10CED000002AECD000980F99C0E90231C0E9004562
:10CEE00086E70000000024400000F03F3000000012
:10CEF0000000F0430000E03F2DE9FF4F95B09B4656
:10CF00008946064600250FE2252877D100242746CA
:10CF1000F84A0121059400E0044316F8013F203B44
:10CF200001FA03F01042F7D130782A2811D06FF0BF
:10CF30002F033078A0F13002092A16D8059A44F060
:10CF4000020402EB820203EB42021044761C0590BD
:10CF5000EFE759F8042B0592002A03DA504244F413
:10CF60000054059044F00204761C30782E2816D127
:10CF700016F8010F44F004042A280DD06FF02F0298
:10CF80003078A0F13003092B09D807EB870302EBB7
:10CF90004303C718761CF3E759F8047B761C3078F6
:10CFA0006C280FD006DC4C2817D068280DD06A28D2
:10CFB00014D104E0742810D07A280FD10DE044F485
:10CFC00000140AE044F4801401E044F44014727840
:10CFD000824202D104F58014761C761C30786628D3
:10CFE0000BD013DC582877D009DC002875D04528F1
:10CFF000F6D04628F4D047281AD19DE118E06328DE
:10D0000035D0642879D0652812D195E1702873D085
:10D0100008DC6728F1D069286FD06E280DD06F2802
:10D0200006D1B5E073282CD0752875D0782874D037
:10D030005A46179990476D1C75E1C4F302500228B7
:10D0400009D003280DD0D9F8001004280DD00D60A8
:10D0500009F1040967E1D9F80010EA17C1E90052A3
:10D06000F6E7D9F800100D80F2E70D70F0E719F837
:10D07000041B8DF8001000208DF80100EA46012005
:10D0800003E059F804AB4FF0FF3061074FF00001A7
:10D0900002D40DE008F101018846B9420FDA80455B
:10D0A000F8DB1AF808100029F4D108E008F10101B2
:10D0B00088468142FADB1AF808100029F6D1059853
:10D0C0005B46A0EB080721463846179A00F094FA11
:10D0D000284400EB080507E04DE029E10DE01AF8CF
:10D0E000010B5A4617999047B8F10108F7D25B46F1
:10D0F00021463846179A13E142E00A220092C4F30F
:10D1000002524FF0000A022A08D059F804CB032A31
:10D110004FEAEC710AD00DE029E02AE009F107019D
:10D1200021F00702F2E802C1914609E00FFA8CFCF7
:10D130004FEAEC71042A03D14FFA8CFC4FEAEC71F0
:10D14000002907DA0A460021DCF1000C61EB02013C
:10D150002D2202E0220504D52B228DF80420012285
:10D1600003E0E20701D02022F7E7904659E00A21C8
:10D1700002E010220DE010214FF0000A00910BE0B8
:10D1800010224FF0000A44F004040827009203E044
:10D1900008224FF0000A0092C4F30252022A05D07E
:10D1A00059F804CB0021032A08D009E009F107014E
:10D1B00021F00702F2E802C1914605E01FFA8CFC5B
:10D1C000042A01D10CF0FF0C4FF00008220728D5EB
:10D1D000702806D0009B83F0100353EA0A0305D0A1
:10D1E0000EE040228DF80420012208E05CEA0102F2
:10D1F00006D030228DF804208DF8050002229046DA
:10D20000009B83F0080353EA0A030AD15CEA010297
:10D2100001D1620705D530228DF804204FF00108B6
:10D220007F1E582804D034A003900EA802900DE071
:10D2300036A0F9E753466046009AFAF7EFFF8446B6
:10D240000398825C0298401E029002705CEA010022
:10D25000F0D1029806A9081A00F1200A600702D549
:10D2600024F4803400E00127574502DDA7EB0A00D3
:10D2700000E0002000EB0A01009005984144401AAC
:10D280000590E00306D45B462146179A059800F006
:10D29000B3F90544002706E001A85A46C05D179976
:10D2A00090476D1C7F1C4745F6DBE0030CD55B46C1
:10D2B0002146179A059800F09FF9054404E03020B4
:10D2C0005A46179990476D1C0099481E00900029F6
:10D2D000F5DC08E0029802995A460078491C029150
:10D2E000179990476D1CBAF10001AAF1010AF1DC0F
:10D2F00065E100000928010030313233343536371A
:10D300003839616263646566000000003031323391
:10D310003435363738394142434445460000000031
:10D3200000F058F90544761C307800287FF4ECAD05
:10D3300019B02846BDE8F08F620700D4062709F12E
:10D34000070222F0070CFCE80223E14603F0004844
:10D350005FEA080C02D00FF2702C0DE05FEA045C6B
:10D3600002D50FF2682C07E05FEAC47C02D00FF20E
:10D37000602C01E0AFF2700C4FF0FF3823F0004357
:10D38000CDF850C065280CD006DC452809D04628C9
:10D390001DD047283DD13DE0662818D067287ED1B2
:10D3A00038E00021112F01DB112000E0781CCDE9CD
:10D3B000000106A90EA8FFF7EDFCDDE90F010E9AAA
:10D3C00003910021009207F1010A04914DE04FF012
:10D3D00000400097CDE9011006A90EA8FFF7DAFC7E
:10D3E000DDE90F0203920E9B11990022DDF80CA0DB
:10D3F0000093049211B9791C00EB010AB7EB0A0003
:10D4000004D4C0F1FF3007F1010A0490AAEB070031
:10D41000019044E0012F00DA01270021112F01DDE6
:10D42000112000E03846CDE9000106A90EA8FFF75B
:10D43000B1FCDDE90F010E9A0391002104910092E5
:10D44000BA4621070CD40399514500DA8A46BAF14D
:10D45000010F05DD009AAAF10101515C302908D0C5
:10D46000B84202DA10F1040F06DA0121CDE9011009
:10D4700015E0AAF10101E9E7002805DC049901445F
:10D480000491AAEB000102E0411C514500DD8A46EF
:10D490000499401A401C01904FF000400290200770
:10D4A00004D40198504501DBCDF8048000208DF8AC
:10D4B0004F0002980DF14F07B0F1004F25D02B20FF
:10D4C0000E9002984FF0020800280CDA40420290B9
:10D4D0002D200E9007E00A210298FBF719FC30314D
:10D4E000029007F8011DB8F10001A8F10108F2DC73
:10D4F00002980028EFD1791E0E980870307800F05D
:10D50000200040F0450007F8020D12A8C01B00F1F2
:10D5100007081498007800B1012000EB0A01019877
:10D5200001EBE07105984144401A401E0590E0036C
:10D5300006D45B462146179A059800F05DF805442D
:10D540001498007818B15A46179990476D1CE0035B
:10D5500024D55B462146179A059800F04DF80544FE
:10D560001CE00498002807DBDDE90301884203DDA5
:10D570000098405C179901E0179930205A4690476F
:10D58000049805F10105401C04900198401E01908B
:10D5900004D12E205A46179990476D1CBAF100010C
:10D5A000AAF1010ADDDC05E017F8010B5A461799CC
:10D5B00090476D1CB8F10001A8F10108F4DC5B464E
:10D5C0002146179A0598ABE62D0000002B000000BD
:10D5D000200000002DE9F041044600251E461746B4
:10D5E000880404D405E039462020B0476D1C641E31
:10D5F000F9D52846BDE8F0812DE9F0410446002523
:10D600001E469046C80301D5302700E02027880435
:10D6100004D505E041463846B0476D1C641EF9D577
:10D620002846BDE8F0814A68002A06D00A68531CE3
:10D630000B6010704868401E486070470A68531CB1
:10D640000B601070704770B504460E46002506B199
:10D650000CB9002070BDA5680DB9A66008E000E017
:10D660002D6828680028FBD1314628460FF042F982
:10D670000120EFE770B506460D4614460EB105B120
:10D680000CB9002070BD284607F0A4FEE0602146DA
:10D690003046FFF7D8FFF5E7024600210EE01148BB
:10D6A00050F8210090F83F0092F83F30984204D1A2
:10D6B0000C4840F8212000207047491C0A29EEDB65
:10D6C000002109E0074850F8210020B9054840F83A
:10D6D00021200020F0E7491C0A29F3DB6FF002004B
:10D6E000EAE70000843D00201CB502200CA10023C5
:10D6F0001A46CDE9001012A14FF416700EF028FE64
:10D700001F2010A100231A46CDE900100CA14FF4F0
:10D7100016700EF01DFE02200FF08EFA1CBD0000E8
:10D7200041542B51485454504346473D22636F6E39
:10D73000746578746964222C25640D0A0000000069
:10D740004F4B000041542B514750534346473D2215
:10D750006770736E6D656174797065222C25640D38
:10D760000A00000010B514210248FAF7F6FD002067
:10D7700010BD0000482F00203EB51748007C00284F
:10D780001DD0002014490874502014A117A20023B2
:10D79000CDE9002102901A461BA14FF416700EF03D
:10D7A000D7FD012815D101F0A5FF0446224617A197
:10D7B000012001F081FE06200FF03EFA3EBD01F08F
:10D7C00099FF0549C968401A782802D304200FF050
:10D7D00033FA00BFF2E70000482F002052414D3AD3
:10D7E000787472612E62696E0000000041542B5102
:10D7F000485454505245414446494C453D222573B6
:10D80000222C25640D0A00004F4B0000636C6F63EF
:10D810006B282564292041677073207365727669CF
:10D82000636520737461747573207472616E732004
:10D83000746F20414750535F46494C455F575249EA
:10D840005445000010B50A48407C30B1002008491A
:10D85000487407200FF0F0F909E001F04BFF04498C
:10D86000C968401A782802D304200FF0E5F910BDEA
:10D87000482F002030B5A1B0642108A8FAF76DFD4B
:10D880000020079006F009F820B109200FF0D4F924
:10D8900021B030BD29A0642308AA2BA100904FF429
:10D8A00016700EF055FD012807D108A8FAF77EFD85
:10D8B00085B2294608A801F093FA03F0E7FE079025
:10D8C00023490798884237D222490798884233D99A
:10D8D00007A8FBF765FA044606F052F81EA00023DD
:10D8E0001A4621A100904FF416700EF031FD94E815
:10D8F0000B00E268CDE90323CDE905102069401C47
:10D90000616901F26C7119A20023CDE90021029036
:10D910001A4615A14FF416700EF01AFD22A026A18A
:10D9200000231A46CDE900100FA14FF416700EF037
:10D930000FFD08200FF080F900BFA9E741542B43E9
:10D94000434C4B3F0D0A00002B43434C4B3A000025
:10D95000AFB816F62F0FBB5D41542B5147505358AB
:10D960005452413D310D0A004F4B000041542B51A0
:10D970004750535854524154494D453D302C22256F
:10D98000642F253032642F253032642C25303264E8
:10D990003A253032643A25303264222C312C312C35
:10D9A000333530300D0A000052414D3A78747261BF
:10D9B0002E62696E0000000041542B5147505358AD
:10D9C000545241444154413D222573220D0A000026
:10D9D00010B5FCF7EFFA10B101200FF02DF910BDD2
:10D9E0001CB5022008A100231A46CDE900100AA1A7
:10D9F00041F270700EF0ACFC012804D10749887028
:10DA000003200FF019F91CBD41542B5149414354D7
:10DA10003D25640D0A0000004F4B0000482F0020F8
:10DA20001CB5022006A100231A46CDE900100EA164
:10DA30004FF416700EF08CFC04200FF0FDF81CBDA6
:10DA400041542B514E54503D25642C226E7470313C
:10DA50002E616C6979756E2E636F6D222C313233B5
:10DA60002C300D0A000000004F4B0000012001493E
:10DA700088747047482F002010B505F0A5FF0920D5
:10DA80000FF0DAF810BD00000EB511F02EFF1949A5
:10DA900088422ED905200FF0CFF850202B2116A256
:10DAA0000023CDE9002102901A4618A14FF4167008
:10DAB0000EF04EFC01281CD116A021A100231A460D
:10DAC000CDE900101FA14FF416700EF041FC0128A3
:10DAD0000FD178201CA100231A46CDE9001019A10E
