:020000040800F2
:10000000009B00206D030008A72F0008592F00084F
:100010006D2F000845270008B352000800000000BB
:10002000000000000000000000000000D9470008A8
:100030005D29000800000000070300088D4B000840
:100040008703000887030008870300088703000868
:100050008703000887030008870300088703000858
:100060008703000887030008870300088703000848
:100070008703000887030008870300088703000838
:100080008703000887030008870300088703000828
:100090008703000887030008870300088703000818
:1000A0008703000887030008870300088703000808
:1000B00087030008FD4B000887030008870300083A
:1000C00087030008870300088703000887030008E8
:1000D00087030008B94F0008315000088703000863
:1000E00087030008870300088703000887030008C8
:1000F00087030008870300088703000887030008B8
:1001000087030008870300088703000887030008A7
:10011000794F000887030008870300088703000859
:100120008703000887030008870300088703000887
:1001300000F002F800F0B0F80AA090E8000C824449
:100140008344AAF10107DA4501D100F0A5F8AFF226
:10015000090EBAE80F0013F0010F18BFFB1A43F0A5
:10016000010318474C6A01006C6A01000A444FF011
:10017000000C10F8013B13F0070408BF10F8014B06
:100180001D1108BF10F8015B641E05D010F8016B4B
:10019000641E01F8016BF9D113F0080F1EBF10F8AF
:1001A000014BAD1C0C1B09D16D1E58BF01F801CBD2
:1001B000FAD505E014F8016B01F8016B6D1EF9D555
:1001C0009142D6D37047000000230024002500266A
:1001D000103A28BF78C1FBD8520728BF30C148BFAA
:1001E0000B6070476E2900F05987702900F0658216
:1001F000662914F0E384652914F0E084672914F07B
:10020000DD846129AFF3008003681B0A28BF41F039
:100210008001692900F0D681642900F0D381752915
:1002200000F0D0816F2901F04780782900F03182F9
:10023000E92900F0E187E42900F0DE87F52900F0E4
:10024000DB87EF2901F04480F82900F03082036851
:10025000DB0928BF41F08001632900F06287732920
:1002600000F06787E32901F08683F32901F08B838F
:10027000002070471FB501F0D9FD040000200021C7
:1002800013F0D6FA401C60600020002113F0E6FA5B
:10029000E0601FBD10B510BD01F0A3FD1146FFF7D2
:1002A000E9FF0CF01DF901F073FE03B4FFF7F2FF54
:1002B00003BC05F080FB0000EFF3108072B67047BE
:1002C00080F310887047204C204D25604FF00004CB
:1002D00084F309881E4C4FF0010525701D4C4FF02A
:1002E0008055256062B6FEE730B41A4C4FF0805559
:1002F000256030BC704730B4164C4FF080552560F7
:1003000030BC704700BF72B6EFF3098028B12038C7
:1003100080E8F00F10490968086000B50F48804771
:100320005DF804EB0E480F490A7802700A480E493E
:100330000A680260106890E8F00F203080F30988A6
:100340004EF0040E62B6704720ED00E00000FFFFA3
:10035000FA03002004ED00E000040020413800080A
:10036000EF030020F0030020080400200948804724
:1003700009480047FEE7FEE7FEE7FEE7FEE7FEE787
:10038000FEE7FEE7FEE7FEE704480549054A064B9F
:10039000704700009D4B00083101000800950020C7
:1003A000009B00200097002000970020704753EA30
:1003B000020C00F069802DE9F04B4FF00006002B95
:1003C0001FBFB3FA83F503FA05F424FA05F65E407D
:1003D00012BF1643B2FA82F502FA05F4C5F1200500
:1003E0001EBF22FA05FC44EA0C04203556EA044CF0
:1003F0004FEA144418BF641C4FF000084FF0000986
:10040000904271EB030C39D3002919BFB1FA81F77F
:1004100001FA07F6B0FA80F700FA07F6C7F12007ED
:100420001EBF20FA07FC46EA0C062037B6FBF4FC98
:10043000A7EB0507103F07F01F0BCBF120060CFAC6
:100440000BFB2CFA06F644BFB3460026202FA4BFB0
:100450005E464FF0000B5BEA060C08BF4FF0010B45
:1004600019EB0B09ABFB027C48EB0608C01B06FB33
:1004700002CC0BFB03CC71EB0C01C1E70B4602462F
:1004800041464846BDE8F08B13B54FF000004FF0F1
:100490000001AFF30080BDE81C4070471CB50C465E
:1004A000064B7B4469460090204600F010FE04464F
:1004B0000020694600F01EFE20461CBD4F0C0000C7
:1004C0000FB41CB5084B06AA7B44694600900598FA
:1004D00000F0FDFD04460020694600F00BFE2046BA
:1004E0001CBC5DF814FB0000290C00000FB47CB5A7
:1004F0000C0009AA009001D02044401E084B7B4408
:1005000069460190089800F0E2FD05461CB1002004
:10051000694600F0EFFD28467CBC5DF814FB000046
:10052000FD0B000070B5044685690068C10601D561
:10053000302600E02026C00707D070BDD4E9012195
:1005400030469047206A401C20626D1EF6D570BD73
:1005500070B5044685690078C00707D170BDD4E93D
:10056000012120209047206A401C20626D1EF6D594
:1005700070BD70B50C460546012A05D02878800666
:1005800000D5EA69002302E0012305E05B1C9342E9
:1005900002D2E05C0028F9D1A869E618C01AA86167
:1005A000286A184428622846FFF7BCFF04E0D5E912
:1005B000012114F8010B9047B442F8D32846FFF705
:1005C000C7FF70BD2DE9F04106460024106875296B
:1005D000314616A510D000F0F6FC002802DA4042A1
:1005E00013A507E031688A0701D512A502E0490783
:1005F00004D511A5012401E000F0EEFC00210A223F
:1006000006F1240709E0B0FBF2FCB0FBF2F302FBB9
:100610001C00303078541846491C0028F3D123467A
:100620002A463046BDE8F04100F0DFBC0000000083
:100630002D0000002B00000020000000F0B40D464B
:100640000188090502D5214C7C4402E01F4C7C4402
:100650000E34002100F1240608E002F00F07120911
:10066000E75D42EA03721B097754491C52EA03070B
:10067000F3D102780023120704D5702D06D009B1FA
:10068000022311342246F0BC00F0AFBC0123103429
:10069000F8E770B504460D462146106800F09CFC52
:1006A000024629462046BDE870400023C6E7D21D19
:1006B00022F00703D3E90023C0E70368126843F080
:1006C000200303600823C3610023B7E7084C01003F
:1006D0002DE9F05F894604464FF0000ADFF874B157
:1006E000FB44C0F820A02046E1688847002874D069
:1006F000252806D0D4E901219047206A401C2062B9
:10070000F1E700265F462046E16888472028054635
:1007100007DB312D05D2781910F8200C08B10643FB
:10072000F1E7B00701D526F00406C4F81CA00027A5
:10073000C4F818A02A2D09D0284605F035F938B399
:1007400004EB8708303DC8F8185019E059F8041B2D
:10075000204604EB87029161E1688847012F054636
:1007600018D1E069002820DA26F020061DE0D8F82C
:10077000180000EB800005EB40003038C8F8180086
:100780002046E1688847054605F00EF90028EED1BD
:10079000012F0AD02E2D08D12046E16888477F1C02
:1007A0000546022F46F02006C4DBA069002803DAC4
:1007B000404246F00106A061F00701D026F0100685
:1007C0006C2D0BD0682D09D04C2D39D06A2D35D029
:1007D000742D35D07A2D33D016E038E0E1682F46FD
:1007E00020468847B842054609D16C2F26D04FF4E1
:1007F0008060E168064320468847054604E06C2F88
:100800001AD04FF4807006430DB3A5F141001928AA
:1008100002D8203546F400664A462946204626601E
:100820004E46FFF7DFFC80B101280BD0F61D26F005
:10083000070000F1080956E74020E4E78020D8E7E8
:100840000020D6E706F104094DE7284652E7206A62
:10085000BDE8F09F984B01000FB400B58DB010A912
:10086000099000910B904FF0FF300A9000200C90FF
:10087000064878440690064878446A4607900F99DF
:1008800009A800F043FD0DB05DF814FBB70A0000A5
:10089000CF0A00002DE9FF5F1D464FF0FF3B914658
:1008A0004FF000085F46D5E90146A96901987F1C11
:1008B0008847296A824688470028F6D1BAF1FF3F67
:1008C0000CD0002E24F4C06419DD600614D5BAF1F2
:1008D0002B0F09D0BAF12D0F0ED103E0584604B00A
:1008E000BDE8F09F44F48064A96901987F1C8847A3
:1008F000761E8246002E02DDBAF1300F03D0B9F128
:10090000000F26D032E0A969761E01987F1C44F4BE
:1009100000748847002E824605DDBAF1780F06D0B4
:10092000BAF1580F03D0B9F1000F10D01EE0B9F1A1
:10093000000F02D0B9F1100F18D1A969761E0198E5
:100940007F1C24F4007488478246102002E00820AF
:1009500000E00A20814609E0A96908FB0908761E23
:1009600001987F1C44F4007488478246002E05DD00
:100970004946504600F0B6FC0028EDDAE9690198D6
:100980008847A00502D46FF00100A8E7E00725D151
:10099000600613D5600502D5C8F1000000E04046AE
:1009A00029680A1D2A600968220501D5087015E02A
:1009B000220701D5088011E008600FE02868011DBA
:1009C00029600068210502D580F8008006E0210733
:1009D00002D5A0F8008001E0C0F8008038467EE72C
:1009E0002DE9FF5F4FF0000899461446464691698D
:1009F000D2E901A7DDF838B001988847054659EAE1
:100A00000B0005D009E0A1690198761C88470546CE
:100A1000216A284688470028F5D1681C03D05FEA80
:100A2000CA7005D015E04FF0FF3004B0BDE8F09F6C
:100A30002068011D2160D0F800800AE05FEACA70DA
:100A400001D108F8015BA169761C01987F1E8847D7
:100A50000546002F1ADD681C18D0B9F1000F0DD023
:100A6000E81705EBD060421120F01F0059F8221062
:100A70002A1A012090400142E0D107E0BBF1000FAB
:100A8000DCD12846216A88470028D7D0E16901983F
:100A90008847BBF1000F07D1002E05DD5FEACA7061
:100AA00002D1002188F80010A068B84203DDBBF134
:100AB000000F03D017B16FF00100B6E73046B4E77E
:100AC00070B5064600F070FA0468054630460A2202
:100AD000002100F04BFC2C6070BD30B505460B4684
:100AE0002A4613F8014B12F8010B08B1A042F8D0C6
:100AF0001CB1002802D06D1CF1E7284630BD40EA49
:100B00000103024630B59B0710D14FF0013400E0DD
:100B100008C208C91D1B9D4315EAC41FF8D013F075
:100B2000FF0102F8011B0DD01B0AF8E711F8013B89
:100B3000002B02F8013B05D011F8013B002B02F815
:100B4000013BF3D130BD10B5431C02E010F8011B8E
:100B500071B18107FAD14FF0013202C88C1A8C436F
:100B600014EAC211F9D0C01A0A0603D0C01E10BD83
:100B7000C01A10BD0A0401D0801E10BD0902FCD0AD
:100B8000401E10BD032A40F2308010F0030C00F02C
:100B9000158011F8013BBCF1020F624498BF11F8B7
:100BA00001CB00F8013B38BF11F8013BA2F1040270
:100BB00098BF00F801CB38BF00F8013B11F00303E8
:100BC00000F02580083AC0F0088051F8043B083A4C
:100BD00051F804CBA0E80810F5E7121D5CBF51F8EE
:100BE000043B40F8043BAFF30080D20724BF11F868
:100BF000013B11F801CB48BF11F8012B24BF00F8CD
:100C0000013B00F801CB48BF00F8012B704710B53D
:100C1000203AC0F00B80B1E81850203AA0E81850F4
:100C2000B1E81850A0E81850BFF4F5AF5FEA027CB5
:100C300024BFB1E81850A0E8185044BF18C918C024
:100C4000BDE810405FEA827C24BF51F8043B40F8C5
:100C5000043B08BF7047D20728BF31F8023B48BFAA
:100C600011F8012B28BF20F8023B48BF00F8012BE8
:100C7000704702F0FF0343EA032242EA024200F017
:100C800002B84FF000020429C0F0128010F0030CEB
:100C900000F01B80CCF1040CBCF1020F18BF00F86F
:100CA000012BA8BF20F8022BA1EB0C0100F00DB81E
:100CB0005FEAC17C24BF00F8012B00F8012B48BF7C
:100CC00000F8012B70474FF0000200B51346944620
:100CD0009646203922BFA0E80C50A0E80C50B1F194
:100CE0002001BFF4F7AF090728BFA0E80C5048BFA8
:100CF0000CC05DF804EB890028BF40F8042B08BF46
:100D0000704748BF20F8022B11F0804F18BF00F841
:100D1000012B704710B5044610F0030F08BF11F007
:100D2000030F40F015804FF0013E121FC0F20E80FD
:100D300051F8043BA3EB0E0C2CEA030C1CEACE1C6E
:100D400008BF40F8043BF0D0A1F1040102F1040215
:100D5000521E08DB11F8013B002B00F8013BF7D1D4
:100D60001146FFF78EFF204610BD00004FF0013CFA
:100D700050F8042B51F8043B9A4221D1A2EB0C030A
:100D8000934313EACC1317D150F8042B51F8043BCA
:100D90009A4215D1A2EB0C03934313EACC130BD167
:100DA00050F8042B51F8043B9A4209D1A2EB0C03F2
:100DB000934313EACC13DBD04FF00000704700BF21
:100DC000D01A01BAB1FA81F101F0180122FA01F04A
:100DD000CB40C1F12001DBB2C0B2C01A2CFA01F342
:100DE000D11A914311EAC311E6D17047014900F0CD
:100DF000F5BA00007494002010B503681C1404EBCD
:100E000021449BB289B2194494FBF2F302FB1343D1
:100E100094FBF2F401EB034393FBF2F102FB11317B
:100E200093FBF2F301E05B1E11440029FBDB016040
:100E300003EB044010BD2DE9F04704464FF0FF3AA4
:100E400086B00068029060680390A0680490E06833
:100E5000019020690090656905F18040B0F1004F74
:100E60007DD83C22002102A8FFF7C6FF3C220146A4
:100E700003A8FFF7C1FF1822014604A8FFF7BCFF33
:100E8000411E40F2B55201A8FFF7B6FF0C220646FC
:100E900068460021FFF7B0FF00EB860028443E4D76
:100EA00000267D440FE09A1A491CCDE90012022960
:100EB00002D00C2907D104E0810704D0521C019212
:100EC00001E0401C00960099019B6A5C9A42EADDB1
:100ED000012906D11C2B04D1810702D00221CDE9C2
:100EE0000016A0F146018B2940D20199009B0022F7
:100EF0000F4602E0AE5C521C31449A42FADB012BF1
:100F000002DD820700D0491E40F2B55540F26D1651
:100F1000C21700EB927292106A4300F0030505FBC2
:100F2000062285070A4400D1521E049D02EB4206A8
:100F3000DDF80C80A94605EBC605184EC5EB051576
:100F4000DDF808C008EB850535442E14ADB2C6EBBC
:100F50000616C5EB0515B6000CEB850500E005E0AF
:100F600006EB154666F31F45360C03D0504606B017
:100F7000BDE8F087C4E904307F1C0720521CC4E997
:100F8000029792FBF0F3E4E806C800FB132084E824
:100F900003042846EBE70000CA440100A039CEFD57
:100FA000704770477047704700487047A094002012
:100FB00010B5FFF7F9FF006810BD10B50446FFF744
:100FC000F3FF046010BD09684A0501D540B27047BF
:100FD000C905FCD500B2704709684A0501D5C0B201
:100FE0007047C905FCD580B270472DE9F0470D4622
:100FF00099469246044600F124080168880604D503
:10100000E06921F01001216000E00120A84201DD2B
:10101000471B00E00027A1697A1902EB0900081AB2
:10102000A0612078C00602D42046FFF77BFA002694
:1010300008E0D4E901211AF806009047206A401C14
:10104000761C20624E45F4DB2078C0060AD5204687
:10105000FFF768FA06E0D4E9012130209047206AC2
:10106000401C2062381EA7F10107F4DC07E0D4E938
:10107000012118F805009047206A401C2062281EB4
:10108000A5F10105F3DC2046FFF762FA207800069F
:1010900002D50220BDE8F0870120FBE71168026855
:1010A000006A530501D508700AE0D30501D5088010
:1010B00006E0130603D5C217C1E9000200E008608C
:1010C0000120704701694A1C02610878704700B529
:1010D0008FB0CDE901310021059105497944CDE971
:1010E000031011466846FFF7F3FA0FB000BD000089
:1010F000E5FFFFFF0A6802F8010B0A607047D1E9BB
:1011000000239A4202D2531C0B601070704710B536
:10111000436913B1AFF3008001E0FFF72AFA012021
:1011200010BD127800F124010A7000224A700122D9
:10113000EDE711684FF0FF32E9E700002DE9FF5FAE
:1011400015468A460446DFF8AC80F8440027D8E903
:1011500000103E46CDE9001010E03AF816106A463D
:1011600002A800F01EFE411C07D02178890603D595
:10117000E269391891420DD80744761C2078800620
:1011800002D5E069B84205DDAE42E6DB3AF816006A
:101190000028E2D1A069C01BA0612046FFF7C2F978
:1011A000D8E90010CDE90010002017E03AF8181037
:1011B0006A4602A800F0F5FDB0F1FF3F81460BD072
:1011C00000250DF1080B05E0D4E901211BF805000D
:1011D00090476D1C4D45F7D308F10100B0428046A1
:1011E000E4DB206A384420622046FFF7B1F9BDE80D
:1011F000FF9F00001A4201002DE9F0418046D21DF8
:1012000022F007020025D2E90002F52915A614D024
:10121000011E72F1000106DA0023D0EB030063EB3C
:10122000020211A608E0D8F800108B0701D50FA61E
:1012300002E0490701D50EA601251146002408F158
:10124000240704E000F032F930323A55641C50EAC9
:101250000102F7D12B46324621464046BDE8F04117
:10126000FFF7C3BE000000002D0000002B000000AF
:101270002000000030B4002100F1240408E002F056
:101280000705D208303542EA4372DB086554491C31
:1012900052EA0305F3D10468002310A2250708D5FC
:1012A00004F020040C4304D0C46901230CA2641E82
:1012B000C46130BCFFF799BE10B5044621461068E2
:1012C000FFF78AFE02462046BDE810400023D1E722
:1012D000D21D22F00701D1E90023CBE70000000076
:1012E000300000003A2800D2303820F02002412A95
:1012F00001D3A2F13700884201D34FF0FF3070478D
:10130000026811441378016018467047D16005499E
:1013100079445161044979441162002111611146F7
:1013200000F036BBEDFFFFFF1D020000426842B136
:10133000016811F8013B23B1521EC0E900121846A2
:1013400070470121C160881E704742685AB1C36866
:10135000016843B983688B4205D0491E521CC0E91D
:101360000012002070474FF0FF3070472DE9F04722
:1013700091460F4680460446002614F8015B2DB1C5
:1013800000F08CF80068405DC007F6D12B2D02D02C
:101390002D2D18D0641E4A463946204600F0B2FC76
:1013A00027B13968A14201D1C7F800804FF002048B
:1013B00071050BD54042002803DDFFF7F5FD046001
:1013C000A007BDE8F08746F48066E4E70028F8DA75
:1013D000FFF7EAFD04606FF00040F2E770B50C46DD
:1013E000016800204A1C3ED03C22B1FBF2F302FB14
:1013F0001313B1FBF2F12360B1FBF2F302FB131301
:10140000B1FBF2F118226360B1FBF2F302FB13139C
:10141000B1FBF2F146F2E0320A440721A360B2FBCD
:10142000F1F301FB132140F2B553B2FBF3F5A161D7
:10143000B2FBF3F103FB15228900B2F5B77F08D3A5
:101440009B10521EB2FBF3F52944B2FBF3F503FBEC
:1014500015220F4BE261616189077B440CD03B2A66
:101460000AD3521C08E02C212046FFF72CFC012057
:10147000E0600AE0521A401C195C9142FAD9521CF1
:10148000C4E903204FF0FF302062204670BD000009
:10149000123F010000487047A094002010B500F0F2
:1014A000C5FC001D10BD00BF8923010030B5B0F19F
:1014B0000A024FEA900E71F100034EEA817EB0EB12
:1014C0000E0061EB91014FEA101E4EEA017E10EB17
:1014D0000E0041EB11114FEA102E4EEA016E10EB97
:1014E0000E0041EB11214FEA104E4EEA014E10EB77
:1014F0000E0041EB1141401841F100014FEAD000CC
:1015000040EA41704FEAD10110EB80054FEA8104B7
:1015100044EA907444EB01046D1944EB0404521B3B
:10152000A3414FF0000348BF0A3200D530BD401C34
:1015300041F1000130BD10B50446FFF7AFFF006870
:10154000005D00F0010010BD70472DE9FF4F0C4613
:101550001E464FF0FF378BB0D2E90001DDF8608006
:101560000A908A46C1F30A5505B93D46002108464E
:101570004FF00000BAF1000F00F4400005DA00EB74
:1015800080004FF4400101EA50004FEA9059B9F150
:10159000010F00DDB9460A9850EA4A000ED044F621
:1015A0001050A5F2FF3545432F14B8F1000F1ED09F
:1015B0007542291E1EDDC9F100021CE0B8F1010FC1
:1015C0004FF0000001D0302103E0F24305E0215448
:1015D000401CB042FBDB30460022002121540B9915
:1015E000C1F80880C1E900200FB0BDE8F08FBD1B35
:1015F0006D1CDEE74A4600DA694206A800F05AFC94
:1016000006AB93E8070003AB83E8070050460A994E
:1016100000F0C4FC8DE80700A0F500501F380090D2
:101620000398002D09DD42F21F014A46084403A930
:101630000390684600F023FF08E0A0F500504A46FA
:101640001F3803A90390684600F02DFF8DE80700BE
:101650000004000C03D04FF0FF30410800E01046BA
:10166000B8F1000F03D00022009215461EE0751E4F
:1016700005D4FFF71BFF303262556D1EF9D5B34616
:101680000122084302D000227F1C04E02078302889
:1016900001D100227F1E002A099786D01DE0112D5E
:1016A00007DAFFF703FF303262556D1C50EA010282
:1016B000F5D1084302D00098C8B10EE00021681EA1
:1016C00005E0235C625C63542254401E491C814245
:1016D000F7DBAB46A81B401E0990002004F80B0066
:1016E0000B98099AC0F80880C0E9002B7CE7112606
:1016F0004FF0000859E72DE9F04F88460446D21D07
:1017000022F0070191B0D1E90001CDE90A0103F00F
:10171000D2FD02460B98C00F01D02D2007E02068B3
:10172000810701D52B2002E0202101EAC000032A15
:10173000099001D0072A05DB03464146204600F008
:1017400079FB0BE12078800601D5E06900E00620F6
:10175000B8F1650F814606D0B8F1660F18D0B8F120
:10176000670F70D131E00020B9F1110F009001DB5B
:10177000112301E009F101030AAA01A90CA8FFF74E
:10178000E4FEDDE90C70002609F10105834647E01F
:1017900001204B4600904FF000470AAA01A90CA86F
:1017A000FFF7D3FEDDE90DB00C995D46002610B9B8
:1017B00009F101000D18B9EB050003D4C0F1FF36A3
:1017C00009F10105A5EB09002BE0B9F1010F01DAE0
:1017D0004FF001090020B9F1110F0090484601DDDA
:1017E000112300E003460AAA01A90CA8FFF7ADFEE9
:1017F000DDE90C704D4600268346207800070AD4A8
:10180000AB4500DA5D4601A8012D04DD411911F850
:10181000011C302907D04F4502DA17F1040F04DA12
:10182000012082460FE06D1EEEE7002F02DCED1B6B
:101830003E4403E0781CA84200DD7D1CB81B00F18B
:10184000010A4FF000472078000703D4AA4501DBC6
:101850004FF0FF3A0021B7F1004F0DF143088DF82A
:10186000431024D002202B23002F01DA7F422D23A6
:101870000A21021EA0F1010000DC5FB197FBF1FC20
:1018800097FBF1F201FB1C7C17460CF1300C08F8B9
:1018900001CDEEE7A8F1010003702188090501D50B
:1018A000452100E06521A0F1010800F8011C09981C
:1018B0000FA9A1EB0807FF1D00B10120411901EBA1
:1018C000EA70A1693844081A401EA0612078C00659
:1018D00002D42046FEF726FE099828B1D4E901215A
:1018E0009047206A401C20622078C00622D52046FE
:1018F000FEF718FE1EE0002E04DBB34502DD01A852
:10190000805D00E03020D4E901219047206A401C2E
:101910002062761CAAF101005FEA000A0AD100F0F9
:1019200085FAC0680168405CD4E901219047206ACB
:10193000401C2062281EA5F10105DCDC07E0D4E98B
:10194000012118F8010B9047206A401C2062381EC4
:10195000A7F10107F3DC2046FEF7FAFD032011B0E2
:1019600043E610B5436913B1AFF3008001E0FFF720
:10197000E5FB012010BD128800F1240182840022C1
:10198000C2840122EDE711684FF0FF32E9E7000061
:101990002DE9F34F4FF0000A0C4656468DB001205A
:1019A0000C9001F10C000B9062690B98012190479B
:1019B00005002DD0252D2CD0216A8847C0B1626941
:1019C0000B9801219047216A88470028F7D1626966
:1019D000411E0B98904700E0761CA1690D9888473E
:1019E000216A88470028F7D1E1690D988847DBE72D
:1019F000A1690D988847A842074601D1761CD3E714
:101A0000E1690D9888477F1C02D1BAF1000F6FD0B1
:101A10006BE162690B9800273D46394690472A28BA
:101A200004D162690B98012190470125DFF8D0822B
:101A300062690B9801219047A0F130010A290AD26E
:101A40004745E5DC07EB870100EB4107303FDFD47A
:101A500045F01005ECE7E90601D46FF000476C286B
:101A60000AD04C2814D0682815D06A280DD07428C4
:101A70001CD07A281AD01DE062690B98012190478A
:101A80006C2802D045F0040514E045F002050DE095
:101A900045F020050AE062690B980121904768280B
:101AA00002D045F0080505E045F4006562690B9831
:101AB00001219047C4E9015765283DD019DC582819
:101AC0007AD00CDC452837D004DC252826D04128E4
:101AD0009ED131E046282FD0472899D12CE05B28B1
:101AE00077D0612828D063287CD0642823D15AE09D
:101AF000F6E06F2848D008DC66281DD067281BD088
:101B0000692821D06E2816D127E0702845D0732887
:101B100068D0752847D078280DD14DE0A1690D987F
:101B20008847252805463FF469AFE1690D98884745
:101B30006D1C3FF46AAFD8E00D9923466A466FF0FA
:101B40000100AFF30080C5E045F0400023464FF0B0
:101B500000026060A80736D43EE0E8077FF447AF94
:101B60002068011D21600068290501D506701BE76A
:101B7000290701D5068017E7A90703D5F117C0E9A2
:101B8000006111E706600FE745F0400023464FF083
:101B900008026060A80716D41EE040F60E0125EA90
:101BA0000100606016E045F0400023464FF00A0255
:101BB0006060A80707D40FE045F040006060A80708
:101BC00008D5234610220D996FF00100AFF3008075
:101BD00080E007E0102223460D996FF00100FEF728
:101BE00059FE77E04FF0000963284F46C8464B4640
:101BF000CB4602D05B2806D038E0E80601D40120AD
:101C0000A060012732E06269D4F80CB00B98012182
:101C100090475E2807D14FF0010949466269D4F820
:101C20000CB00B989047216939B900210A4603ABE3
:101C300043F82120491C0829FADBD8B3216949B3AC
:101C400008F1010862690B98012190475D28F4D1E1
:101C5000B9F1000F09D0002003A951F82020D24388
:101C600041F82020401C0828F7DB03AB206900283E
:101C700020794FEA40701ED05B462246CDF80080A6
:101C8000CDE901970D9900286FF0010020DAAFF33C
:101C900000801FE0C11703AA00EBD1614B1121F0B6
:101CA0001F0102EB8302411A13680120884003439D
:101CB0001360C7E719E00D99224600286FF0010074
:101CC000009702DAAFF3008004E0FEF789FE01E03E
:101CD000AFF3008000280ADA401C06D10C9820B12E
:101CE0004FF0FF300FB0BDE8F08F5046FAE7E9073C
:101CF00001D10AF1010A064400200C9054E60000CC
:101D0000CCCCCC0C2DE9F05F824615468B460027E3
:101D10000AF10104B9460078302801D09DB113E0E2
:101D200014F8010B0127782803D0582801D045B1B9
:101D30000AE00DB1102D07D1002714F8010B102572
:101D400002E0082500E00A250026B0460EE005FB6B
:101D5000080005FB06F101271FFA80F801EB104689
:101D6000B6F5803F00D3B94614F8010B2946FFF7BA
:101D7000B9FA0028EBDABBF1000F05D00FB1641EF1
:101D800000E05446CBF80040B9F1000F06D0FFF751
:101D90000BF902210160C81EBDE8F09F48EA064029
:101DA000FAE770B516460C460546FFF777FB036861
:101DB00093F80101012806D0FF2C0FD8185D68B1F7
:101DC00001202C7070BDD3F807013246214603F282
:101DD000071303442846BDE8704018474FF0FF3012
:101DE00070BD7546FFF756FBAE4605006946534683
:101DF00020F00700854618B020B5FEF7C5FABDE80B
:101E000020404FF000064FF000074FF000084FF061
:101E1000000B21F00701AC46ACE8C009ACE8C009F2
:101E2000ACE8C009ACE8C0098D467047004870476F
:101E3000C09400202DE9F0411F46044603260168A6
:101E4000072A01F4006004DB08B116A505E016A519
:101E500003E008B115A500E015A521F010002060F1
:101E6000A069C01EA0610FB1401EA0612046FEF710
:101E700059FB4FB1D4E9012138469047206A401CF4
:101E80002062C01C206206E0206AFAE7D4E9012142
:101E900015F8010B9047761EF8D22046FEF758FB46
:101EA000BDE8F0814E414E006E616E00494E460025
:101EB000696E66002DE9F047814616468AB03348C0
:101EC00078440DC88DE80D0030487844801C03AC80
:101ED0000DC884E80D0041F69B300844372190FB83
:101EE000F1F290FBF1F5A5F1800501FB12041B3C1A
:101EF00002D56442012000E00020DFF890A0804677
:101F00000027FA44AAF1BE0A0DE0E00709D03246E4
:101F1000684607EB47010AEB810100F0C4FA8DE83F
:101F2000070064107F1C002CEFD1184F7F44AC3F9A
:101F300018E0E80714D007EB04100DF1180A90E838
:101F40000E008AE80E00C068F04201D1981908908E
:101F5000324606A903A800F0A6FA03AB83E80700FF
:101F60006D10641C002DE4D132466946B8F1000FB3
:101F700003A802D000F083FA01E000F094FAC9E966
:101F80000001C9F808200AB0BDE8F08760360100FA
:101F90000446AFF300802046FEF787F95FEA400C65
:101FA00008BF91F0000F4FEA8C234FEAC12243EAA9
:101FB00051514FEA1C5018BF00F5F0404FEA300075
:101FC00018BF41F000415FEA6C5C00F02980BCF171
:101FD000FF3F08BF40F080407047130C06BF12045B
:101FE0004FF0100C4FF0000C130E04BF12020CF156
:101FF000080C130F04BF12010CF1040C930F04BF63
:1020000092000CF1020CD30F04BF52000CF1010C32
:1020100011464FF00002A0F11F00A0EB0C0070472A
:1020200011F0004F08BF704731F000413FF4D5AFC9
:102030000B0C06BF09044FF0100C4FF0000C0B0EF8
:1020400004BF09020CF1080C0B0F04BF09010CF1CD
:10205000040C8B0F04BF89000CF1020CCB0F04BFE2
:1020600049000CF1010CCCF12003A0EB0C0022FA8A
:1020700003F302FA0CF241EA030100F10100704798
:1020800020F07F4C80EA030023F07F47ACEB07038E
:1020900003F57C5300F0004003F1FF032DE9804974
:1020A0004FEA154B09B44FEA144325EA0B4E24EAD4
:1020B00003480FF2042606EB132749083E785FEA2F
:1020C000320203FB0667C7F5000707FB06F64FEA77
:1020D00054374FEAD64606F1020607FB066CCCF1F0
:1020E000005C4FEA1C472CEA074C07FB06F40CFB8C
:1020F00006F504EB15464FEA961634BF00204FF064
:1021000000404FEAD13706FB07FC4FEA1C4C0CFBA2
:102110000BF7D21B03FB0CF761EB07010CFB0EF76F
:10212000B0EB074072EB17420CFB08F734BFA2EB91
:102130000742B2EB074261EB17414FEA0C444FEA0A
:10214000910706FB07FC4FEA1C4C0CFB0BF7B0EBAE
:10215000C74072EB573203FB0CF734BFA2EBC74208
:10216000B2EBC74261EB57310CFB0EF7B0EBC70087
:1021700072EB57720CFB08F734BFA2EBC702B2EB4D
:10218000C70261EB5771039F4FEA816141EA9211E7
:1021900004EBCC044FEAD1374FEA826206FB07FC1E
:1021A00042EA90124FEA80604FEA1C4C0CFB0BF79E
:1021B000D21B03FB0CF761EB07010CFB0EF7B0EB36
:1021C000074072EB17420CFB08F734BFA2EB074243
:1021D000B2EB074261EB17414FEA8C554FEA91078A
:1021E00004EB9C2406FB07FC4FEA1C4C0CFB0BF792
:1021F000B0EBC74072EB573203FB0CF734BFA2EBD6
:10220000C742B2EBC74261EB57310CFB0EF7B0EBA4
:10221000C70072EB57720CFB08F734BFA2EBC70282
:10222000B2EBC70261EB577115EB4C254FEA8161A8
:1022300041EA92114FEA82624FEAD13742EA9012A4
:1022400006FB07FC44F100044FEA80604FEA1C4C97
:102250000CFB0BF7D21B03FB0CF761EB07010CFB2C
:102260000EF7B0EB074072EB17420CFB08F734BFD8
:10227000A2EB0742B2EB074261EB174115EB1C15CD
:102280004FEA813141EA92414FEA823242EA90427A
:102290004FEA80304FEA0C7644F1000448EA0343E9
:1022A0004EEA0B484FF0000EB2EB080C71EB03073F
:1022B00024BF624639464EEB0E0E4FF0000B00185D
:1022C000524149414BEB0B0BB2EB080C71EB03078E
:1022D0007BF1000B24BF624639464EEB0E0E4FF0E9
:1022E000000B0018524149414BEB0B0BB2EB080CB1
:1022F00071EB03077BF1000B24BF624639464EEBBE
:102300000E0E51EA020718BF46F0010616EB0E76D4
:1023100055F1000254F1000103D5BDE88901BDE883
:102320000088BDE88901BDE80048B619524141EB7B
:102330000101A3F10103704780807F7E7D7C7B7A61
:102340007978777676757473727171706F6E6E6D61
:102350006C6C6B6A6A696868676666656464636307
:1023600062616160605F5F5E5E5D5D5C5C5B5B5A8D
:102370005A595958585757565655555554545353FA
:1023800052525251515050504F4F4F4E4E4D4D4D55
:102390004C4C4C4B4B4B4A4A4A49494948484847A0
:1023A00047474746464645454544444444434343DE
:1023B0004342424242414141002B26D4770021D082
:1023C0001CB54FEA370703B44FF010004FF010016F
:1023D0004FF000000FBCBDE810400BF1010BBBF14A
:1023E000010F08BF5FEA170722BF12F1010211F1C6
:1023F00001014FF0004143F1000300F0004043EAC7
:1024000000007047F9D35708DAE746EA064613F1A9
:10241000400F4FEA16461FDD13F1200FDFBF1643B2
:102420000A46002120335B42C8D0C3F1200746EAA8
:10243000064602FA07F74FEA164646EA0706C3F1D0
:10244000200722FA03F201FA07F721FA03F14FF00D
:10245000000342EA0702B1E746EA020646EA0646F8
:102460004FEA164646EA0106BCBF46EA0646360C67
:102470004FF000034FF000024FF000019EE72DE9FE
:10248000C048934630B491E8380007C831EA400CA0
:1024900048BF34EA430C03D5FFF7F2FDFFF78CFF8A
:1024A000F0BCBDE800882DE9C048934630B491E8FF
:1024B000380007C810F0804F08BF13F0804F03D1D9
:1024C00000F005F8FFF778FFF0BCBDE8008820F0C9
:1024D0007F4780EA030023F07F4C07EB0C03A3F552
:1024E0007C5300F00040A3F1FE0392F0000F00F0D7
:1024F000B38095F0000F00F077802DE901494FEA95
:1025000011404FEA144621EA004800FB06FC24EA89
:10251000064708FB06F607FB08F800FB07F718EB71
:1025200006484CEB164C4FEA124B18EB07484FEAA3
:1025300015464CEB174022EA0B4E0BFB06FC25EA36
:1025400006470EFB06F607FB0EFE0BFB07F71EEB1E
:10255000064E4CEB164C4FF000061EEB074E4CEBB4
:10256000174B18EB0B0840F1000018EB0E0B58EB63
:10257000000840F100008F1A4FF000013CBFC94332
:10258000661B14BFB5EB040C00213CBFC943F61B0E
:102590004FEA17444EEA8E0E27EA04454FEA1C47DD
:1025A00004FB07622CEA074C05FB07F70CFB05F65A
:1025B00004FB0CFC16EB074642EB174216EB0C46ED
:1025C00042EB1C421BEB060658EB0202414146EA75
:1025D0009E0601D5BDE80189B619524141EB0101C2
:1025E000A3F10103BDE801894FEA14454FEA114701
:1025F00024EA054621EA074C05FB07F406FB07F72A
:102600000CFB06F105FB0CFC11EB074144EB1744F6
:102610004FEA124711EB0C4144EB1C4422EA074CF1
:1026200005FB07F206FB07F70CFB06F605FB0CFCA7
:1026300016EB074642EB174216EB0C4642EB1C45E5
:102640006A1854F1000148BF7047B619524141EB76
:102650000101A3F10103704795F0000F37D04FEA55
:1026600011424FEA144721EA024624EA074C02FBD2
:1026700007F106FB07F70CFB06F402FB0CFC14EB5E
:10268000074441EB17414FEA154714EB0C4441EB6B
:102690001C4125EA074C02FB07F506FB07F70CFB7C
:1026A00006F602FB0CFC16EB074645EB174516EB4E
:1026B0000C4645EB1C42121951F1000148BF70470E
:1026C000B619524141EB0101A3F1010370474FEAF2
:1026D00014454FEA114724EA054621EA074C05FB59
:1026E00007F106FB07F70CFB06F24FF0000605FBAF
:1026F0000CFC12EB074241EB174112EB0C4251EB81
:102700001C4148BF7047921841EB0101A3F101033E
:102710007047000038B5002405A000231A4608A120
:10272000009040F6B8300FF0DBFE0446204638BD7E
:1027300041542B514944454143543D310D0A000059
:102740004F4B000000BFFEE70148807A7047000051
:102750006039002070B586B005460C460020029016
:10276000039004900590002605A804A903AB02AAD3
:10277000CDE900100BA12846FEF76EF804280DD114
:1027800002982070039860700498A0700598E0701B
:1027900002AE306810B1002006B070BD4FF0FF30BF
:1027A000FAE7000025642E25642E25642E2564009A
:1027B00021B1026842F00102026004E002684FF6B3
:1027C000FE731A400260704701684FF6FE721140B6
:1027D00001600021016041608160C1604B49884215
:1027E00008D14A490839496841F00F01474A083A77
:1027F00051608AE045491431884208D1434908397B
:10280000496841F0F001414A083A51607DE03F4992
:102810002831884208D13D490839496841F470613E
:102820003A4A083A516070E038493C31884208D150
:1028300036490839496841F47041344A083A5160D0
:1028400063E032495031884208D13049083949683B
:1028500041F470212D4A083A516056E02B49643109
:10286000884208D129490839496841F47001274A4A
:10287000083A516049E025497831884208D1234916
:102880000839496841F07061204A083A51603CE0DB
:102890001F49884206D1011F096841F00F01021F3C
:1028A000116032E01A491431884208D11849091FD1
:1028B000096841F0F001164A121F116025E0144921
:1028C0002831884208D11249091F096841F4706112
:1028D0000F4A121F116018E00D493C31884208D19F
:1028E0000B49091F096841F47041094A121F116020
:1028F0000BE007495031884207D10549091F096893
:1029000041F47021024A121F116070470800024012
:10291000080402400146486880B2704710B50022A2
:10292000026847F6F0739A430C6A8B6823430C697C
:1029300023434C6923438C692343CC6923434C6A6A
:1029400023438C6A23431A430260CB6843600B68BD
:1029500083604B68C36010BD4160704770470000E2
:10296000014602480160002070470000EC02002090
:102970000549096821F01001034A116011460968F0
:102980000143116070470000002002400146002012
:10299000034A106800F038000843106070470000D8
:1029A0000020024070B504464FF0FF350A2C1BDAB8
:1029B0000020C4EBC4010D4A02EB81010875C4EB91
:1029C000C40102EB81010861C4EBC402074B03EBB5
:1029D00082025168C4EBC40203EB820202F11800C8
:1029E000042201F0F3FD0025284670BDDC00002024
:1029F0002DE9F041064688460024651E304606F063
:102A0000B7F904460A2C26DAC4EBC400184901EBD6
:102A10008000007DE8B90120C4EBC401144A02EB38
:102A2000810108750420C4EBC40102EB8101086137
:102A3000C4EBC4020E4B03EB82025168C4EBC40228
:102A400003EB820202F11800042201F053FD254637
:102A500001E04FF0FF3504F0D3FB07462B463A4622
:102A600004A1022004F0AEFA2846BDE8F08100007F
:102A7000DC000020636C6F636B2825642920666985
:102A80006C652068616E646C652025640000000040
:102A90002DE9F04704460F46164698460025A946FC
:102AA0000A2C3CDAC4EBC4001E4901EB8000007D17
:102AB00018B96FF00900BDE8F0873546C4EBC400D3
:102AC000184901EB80008068B04204D2C4EBC40016
:102AD00001EB80008568C4EBC400124901EB800063
:102AE0004068C4EBC4010F4A02EB8101096900EBA5
:102AF0000109AAB24946384601F0FCFCC8F800506A
:102B0000C4EBC400074901EB800000692844C4EB12
:102B1000C401044A02EB810108612846CBE74FF06B
:102B2000FF30C8E7DC0000202DE9F04706460F46DD
:102B3000144698460025A9460A2E22DA0CB3C6EBA5
:102B4000C600114901EB8005287D18B96FF0090016
:102B5000BDE8F0872969686800EB010909EB04000A
:102B6000001DE96888420CD2A2B24946384601F0FD
:102B70002DFDC8F8004028692044001FA8612046A8
:102B8000E6E74FF0FF30E3E7DC00002010B5044635
:102B90002948844208D10121042001F0CBFA002108
:102BA000042001F0C7FA46E02448844208D10121FC
:102BB000082001F0BFFA0021082001F0BBFA3AE03A
:102BC0001F48844208D10121102001F0B3FA0021EE
:102BD000102001F0AFFA2EE01A48844208D10121FA
:102BE000202001F0A7FA0021202001F0A3FA22E022
:102BF0001548844208D10121402001F09BFA0021B0
:102C0000402001F097FA16E01048844208D10121D3
:102C1000802001F08FFA0021802001F08BFA0AE079
:102C20000B48844207D10121801501F083FA00216D
:102C3000A01501F07FFA10BD00080140000C014012
:102C4000001001400014014000180140001C014028
:102C5000002001402DE9F041024600250026002019
:102C600000230024002791F803C00CF00F0591F811
:102C700003C00CF0100CBCF1000F03D091F802C09F
:102C80004CEA050591F800C0BCF1000F31D0146882
:102C900000202BE04FF0010C0CFA00F3B1F800C05B
:102CA0000CEA03069E4220D183004FF00F0C0CFA71
:102CB00003F7BC4305FA03FC4CEA040491F803C093
:102CC000BCF1280F06D14FF0010C0CFA00FCC2F841
:102CD00014C00AE091F803C0BCF1480F05D14FF0D1
:102CE000010C0CFA00FCC2F810C0401C0828D1D31B
:102CF0001460B1F800C0BCF1FF0F34DD546800204F
:102D00002EE000F1080C4FF0010808FA0CF3B1F8BE
:102D100000C00CEA03069E4221D183004FF00F0C45
:102D20000CFA03F7BC4305FA03FC4CEA040491F8DF
:102D300003C0BCF1280F05D100F1080C08FA0CF80B
:102D4000C2F8148091F803C0BCF1480F07D100F11C
:102D5000080C4FF0010808FA0CF8C2F81080401C6B
:102D60000828CED35460BDE8F0810000F0B50A46D3
:102D7000002300240021002500F00046B6F1004F9A
:102D800002D11D4EF16901E01B4E7168C0F303458D
:102D900083B200F44016B6F5401F08D121F07061EF
:102DA000154E766826F07066134F7E6012E000F4D0
:102DB0008016B6F5801F06D1032606FA05F4A14356
:102DC00041F0706106E0460D360103FA06F6B143A4
:102DD00041F0706122B1460D360103FA06F6314327
:102DE00000F00046B6F1004F02D1034EF16101E060
:102DF000014E7160F0BD000000000140416170476C
:102E0000016170477CB50446002504F0F9F9401BC8
:102E100013D004F0F5F9054601200EA100231A464F
:102E2000CDE900100FA147F230500FF059FB0128F7
:102E300003D101210C4880F895100B4890F89500BB
:102E4000012802D1042020607CBD0020206000BF4A
:102E5000FAE7000041542B51494143543D25640D8C
:102E60000A0000004F4B0000603900202DE9FC41B2
:102E700004460F46154607A000231A460BA1CDE9CC
:102E800000044FF416700FF02BFB06462E70002046
:102E9000BDE8FC8141542B5149444E534749503DB4
:102EA000312C222573220D0A000000004F4B000038
:102EB00000B58FB000200E90342101A8FDF703FF6C
:102EC00004F09EF91A490968401A21D0194890F86F
:102ED000350001281CD0174890F83500052817D078
:102EE00004F08EF91249086013A0322301AA15A13B
:102EF00000904FF47A700FF0F3FA012808D10EAA6F
:102F000012A101A8FDF7A8FC0A490E9881F8350026
:102F1000084890F83500012804D0064890F835009C
:102F2000052802D101200FB000BD0020FBE7000002
:102F3000FC0200206039002041542B434752454792
:102F40003F0D0A002B43475245473A00252A5B5E56
:102F50002C5D2C256400000000BFFEE74AF6AA2085
:102F600001490860704700000030004000BFFEE7E4
:102F700070B502460B464FF6FF70002110E0565C1C
:102F80007040002408E000F00105401015B14AF23D
:102F900001067040661CB4B2082CF4DB4E1CB1B2C2
:102FA0009942ECDB70BD704710B54FF4A06000F0A3
:102FB00039F810BD70B5002100230F22C47804B386
:102FC000154C246804F4E064C4F5E064210AC1F1FE
:102FD0000403CA40447804FA03F18478144021437E
:102FE00009010E4C0678A155047804F01F05012450
:102FF000AC4005786D11AD0005F1E025C5F8004144
:1030000009E0047804F01F050124AC40044D067863
:10301000761145F8264070BD0CED00E000E400E0BC
:1030200080E100E002490143024A1160704700005C
:103030000000FA050CED00E010B500F013F800F008
:10304000BDFD00F0E5FD00F005FE00F08DFD00F097
:103050005FFD00F099FE00F03DFE00F063FE00F021
:1030600002F810BD7047704706480078012808D163
:1030700005480078FF2804D203480078401C024924
:1030800008707047FA030020ED03002010B50024FB
:103090001A480078012830D1FDF70EF90446184887
:1030A000007820B116480078401E15490870144871
:1030B0000078F8B913480078E0B900F0C7FE12486C
:1030C0001249097850F82100114908600F4800782A
:1030D0001049097888420DD00D480068806B401C6B
:1030E0000B49096888630C480068401C0A4908605D
:1030F000FDF701F92046FDF7E3F810BDFA030020C3
:10310000ED030020EE0300200C8F0020F0030020D0
:1031100008040020EF030020D40300202DE9F04133
:1031200006460D464FF000083078022804D00120F2
:1031300028700020BDE8F081FDF7BEF88046746875
:10314000E08A78B12169081D20610F68E08A401E7D
:10315000E082A1682069884201D160682061002076
:10316000287002E01F20287000274046FDF7A8F8CD
:103170003846DFE72DE9F04106460F464FF00008DC
:103180001F48007810B10020BDE8F081FDF794F8E9
:1031900080461C480568006820B11A4800684068ED
:1031A000184908604046FDF78BF83DB3FDF784F8F9
:1031B000804615480468C4B1006800681249086078
:1031C0004046FDF77DF8666006EB8700A060E6608C
:1031D0002661A7820020E08202202870002028813A
:1031E0006C60284600F086FC08E0064800686860CD
:1031F000044805604046FDF763F800252846C3E70C
:10320000ED030020D8030020140400202DE9F04134
:1032100005460E4600272878022802D00120BDE886
:10322000F081FDF749F80746A87A60B1002304222F
:103230003146284600F0C8FB3846FDF741F800F05B
:10324000CBFD0020EBE76C68E08AA18A884204DBB2
:103250003846FDF735F81E20E1E7E168081DE0601B
:103260000E60E08A401CE082D4E90210884201D15D
:103270006068E0603846FDF723F80020CFE70000E3
:1032800070B5054600260F48007808B1002070BDD3
:10329000FDF712F806460C480468006820B10A4899
:1032A00000684068084908603046FDF709F83CB1FD
:1032B00003202070258100206060204600F01AFC69
:1032C0002046E4E7ED030020D80300202DE9F0417B
:1032D00005460E46144600272878032803D001200F
:1032E0002070BDE8F0813148007810B102202070D4
:1032F000F7E72F48007810B10D202070F1E7FCF7B8
:10330000DBFF0746288940B12889401E28813846BE
:10331000FCF7D6FF00202070E3E72648006890F80D
:10332000300040F001002349096881F83000002096
:103330002049096881F831001E480068C6622846A5
:1033400000F09AFB3846FCF7BBFF00F045FDFCF7A8
:10335000B3FF07461748006890F8310020B10128F4
:1033600009D0022806D102E0002020700BE00E20D8
:10337000207008E000BF29460E48006800F066FB98
:103380000A20207000BF00BF00200A49096881F8A8
:1033900030000849096881F8310006490968C861A8
:1033A0003846FCF78DFF00BF9BE70000ED030020CF
:1033B000EE0300200004002070B5044600252078AC
:1033C000032801D0012070BDFCF776FF0546A07AE6
:1033D00060B1002301221946204600F0F5FA284684
:1033E000FCF76EFF00F0F8FC0020ECE720894FF6B8
:1033F000FF71884207D22089401C20812846FCF7B3
:103400005FFF0020DFE72846FCF75AFF3320DAE7AA
:103410002DE9F04104460E46154600272078032882
:1034200003D001202870BDE8F081FCF745FF074676
:1034300000202870208908B1268105E0A07A08B90B
:10344000268101E0492028703846FCF739FF00BF8B
:10345000E9E7000010B50B48007890B900F0F6FCE1
:10346000094800780949087009480749097850F85F
:103470002100084908600846006807490860FCF711
:1034800022FF10BDFA030020F0030020EF0300200C
:103490000C8F00200804002000040020704700006A
:1034A0002DE9FE4F06460F4690461C464FF0000998
:1034B000FCF702FF81461F48007828B14846FCF718
:1034C000FFFE3C20BDE8FE8F1B4850F8240060BB87
:1034D0000120194941F824004846FCF7F1FE002379
:1034E00042463946304600F009F9824600200090F5
:1034F00001900346024651460290204600F0BCFC73
:10350000054635B90D48007801280CD100F064FC5F
:1035100009E0FCF7D1FE81460020074941F824006C
:103520004846FCF7CDFE2846CCE74846FCF7C8FEE7
:103530002820C7E7ED0300200C8F0020FA030020AD
:103540002DE9F04F85B081468A4693461C46DDE959
:103550000F78129D00200390FCF7AEFE03902348E5
:10356000007830B10398FCF7ABFE3C2005B0BDE815
:10357000F08F1F4850F8240088BB01201C4941F8F7
:1035800024000398FCF79CFE2A464146384600F08A
:1035900083FD2B465A465146484600F0AFF804904A
:1035A0001198CDE9008002953A4620460E9B049979
:1035B00000F062FC064636B90E48007801280CD1AE
:1035C00000F00AFC09E0FCF777FE039000200849B0
:1035D00041F824000398FCF773FE3046C6E7FFE786
:1035E0000398FCF76DFE2820C0E70000ED030020E3
:1035F0000C8F0020FA030020704770472DE9F0413E
:1036000006460F4614464FF000081548007818B1DA
:1036100012202070BDE8F081FCF74EFE8046FF2EA0
:1036200003D11048006890F832600F4850F82650D7
:103630002DB94046FCF744FE43202070EAE7012DF7
:1036400005D14046FCF73CFE43202070E2E7EF64E2
:103650004046FCF735FE0020207000BFDAE700008E
:10366000ED030020000400200C8F002070470000B4
:103670002DE9F04707460D464FF0000A002028606C
:103680006860FCF719FE8246FF2F03D119480068D5
:1036900090F83270184850F827402CB95046FCF783
:1036A0000FFE4320BDE8F087012C04D15046FCF703
:1036B00007FE4320F6E7207C00F0010020B95046C9
:1036C000FCF7FEFD4520EDE70026D4F80C90D4F879
:1036D00008805046FCF7F4FD00E0761C58F8041B07
:1036E0000029FAD0B0002860A9EB060080006860CD
:1036F0000020D7E7000400200C8F002070B504469E
:1037000010464FF080750560051F28462C606FF04D
:103710000106051F28462E604FF01236051F284669
:103720002E604FF00336051F28462E604FF00236FC
:10373000051F28462E607610051F28462E60051F9F
:10374000284629604FF01136051F28462E604FF09D
:103750001036051F28462E604FF00936051F2846F3
:103760002E604FF00836051F28462E604FF00736B2
:10377000051F28462E604FF00636051F28462E608E
:103780004FF00536051F28462E604FF00436051F02
:1037900028462E6070BD00002DE9F04105464FF02F
:1037A0000008FCF789FD8046FF2D05D12048006800
:1037B00090F83250012608E01D48006890F8320069
:1037C000A84201D1012600E000261A4850F8254001
:1037D0002CB94046FCF774FD4820BDE8F081012C6F
:1037E00004D14046FCF76CFD4320F6E794F83470B2
:1037F0001148C05D94F8351088430F49C8550846F4
:10380000C05D30B994F836100C48007888430B49F5
:10381000087094F8300040F0080084F8300040460A
:10382000FCF74EFD012E01D100F0D6FA0020D4E7BE
:10383000000400200C8F0020F2030020F103002080
:103840007047000070B5054600261748007800B1A3
:1038500070BD1648007800B1FAE71DB3FCF72CFDE7
:1038600006461348006890F834401248005D10493D
:10387000096891F8351088430E4908550846005DDF
:1038800040B90B48006890F836100B480078884320
:103890000949087006480068C5623046FCF710FD0B
:1038A00000F09AFA00BFD3E7ED030020EE030020FA
:1038B00000040020F2030020F103002070B5002571
:1038C000FCF7FAFC0546034804682846FCF7F8FCB8
:1038D000204670BD1804002070B5002600F072F874
:1038E000FCF7EAFC064631480068401C2F49086096
:1038F0003046FCF7E5FC2E480078012853D12D48CE
:10390000007820B1012804D0022809D103E0012564
:103910000BE0002509E0012501202649087004E09C
:10392000012500202349087000BF00BF05B970BD04
:103930002148046833E0FCF7BFFC0646E06A50B358
:10394000E06A401EE062E06A28BB94F8300000F0B4
:10395000370040B114F8300F00F0C800207001208B
:103960006070303C02E0002084F8310094F83000B0
:1039700000F0080078B93434A07810490978084379
:103980000E49087020780E49085C6178084314F8E5
:1039900034190B4A505464693046FCF791FC94F892
:1039A00032003F28C7D100BFC1E700001804002043
:1039B000FA030020100400200C040020F103002072
:1039C000F2030020704700002DE9F04F05460F4636
:1039D00090469946A87A19490E5C05F10B00805D66
:1039E00011F800B00BEBC60000F0FF0A144850F8C5
:1039F0002A4000202034E0602760207C20EA080074
:103A0000207484F81190207C203C00F0080068B9F4
:103A100094F836000B49097808430A4908700A48A7
:103A2000805D94F83510084307498855294620469B
:103A300000F00CF85046BDE8F08F0000545101082A
:103A40000C8F0020F1030020F203002010B590F845
:103A5000342001F10B039B5C90F83540A34301F146
:103A60000B04A35423469B5C23B98B7A90F8364011
:103A7000A3438B7210BD000010B51B4A1268D061C1
:103A8000194A126892F8343000F10B02D25C164BDE
:103A90001B6893F835301A43134B1B6893F8344076
:103AA00000F10B031A55827A0F4B1B6893F83630DE
:103AB0001A4382720C4A126892F834100B4A525C14
:103AC000094B1B6893F835309A43084B5A541A46F1
:103AD000525C42B9044A126892F83630044A1278AD
:103AE0009A43034B1A7010BD00040020F20300201B
:103AF000F1030020014600228A72002005E0002325
:103B000001F10B021354421CD0B20828F7D37047BE
:103B10002DE9F0415021114800F02CF900250DE06D
:103B2000681C86B20D4800EB051400EB0617002058
:103B3000207067600AA0E060681C85B2042DEFD396
:103B4000064800EB051400202070606004A0E060CF
:103B5000024804490860BDE8F0810000BC8A0020EA
:103B60003F000000DC03002070B5C821114800F0C0
:103B700001F900230FE0581C85B203EB83000D49C7
:103B800001EB800405EB850001EB8006002020702E
:103B90006660581C83B2092BEDD303EB8300054903
:103BA00001EB800400202070606008460249086034
:103BB00070BD0000F4890020D803002000200A49CD
:103BC00008600A4908700A4908700A4908700A49D9
:103BD00008700A4908600A4908600A4908600A49E9
:103BE00008600A490870704718040020ED0300209F
:103BF000EE030020FB030020FA030020D403002082
:103C0000FC030020E8030020E4030020EC03002074
:103C100000210A4A1170002004E00021084A1154D2
:103C2000411CC8B20828F8D30021064A1170064A80
:103C30001170064A1160064A11607047F1030020B6
:103C4000F2030020EF030020F0030020080400200E
:103C50000004002070B54FF47C71194800F08AF818
:103C60004FF48071174800F085F8002413E0601CC1
:103C7000C5B2C4EBC40000EB4000114901EB800366
:103C8000C5EBC50000EB400001EB80065E610EA0B5
:103C9000D864601CC4B20B2CE9D3C4EBC40000EBA5
:103CA0004000074901EB80030020586106A0D8645A
:103CB00000200649086002480549086070BD000000
:103CC0000C9000200C8F00203F0000000C0400200E
:103CD0000404002000B587B00320002180220A4B95
:103CE000CDE90132CDE903104FF6FF703F23074ABB
:103CF00000900748FFF724FC06AA06A13F20FFF723
:103D00007DFC07B000BD00000C8D0020088F002056
:103D1000AD3F000875432F4F532D49492049646C2E
:103D20006500000000B587B00320002180220A4B07
:103D3000CDE90132CDE903104FF6FE703E23074A6C
:103D400000900748FFF7FCFB06AA06A13E20FFF7FC
:103D500055FC07B000BD00000C8B0020088D002032
:103D6000D53F000875432F4F532D494920537461A7
:103D70007400000004E0002200F8012B4A1E91B2FA
:103D80000029F8D1704700002DE9F0417821104852
:103D9000FFF7F0FF00240DE0601C86B204EB440046
:103DA0000B4901EBC00506EB460001EBC0072F6095
:103DB000601C84B2042CEFD304EB4400044901EBF3
:103DC000C00500202860084602490860BDE8F0816F
:103DD000FC9300201404002010B50024FCF76CFABA
:103DE000044613480078F8B912480078E0B900F0AA
:103DF0002DF811481149097850F821001049086040
:103E00000E4800780F49097888420DD00C480068A8
:103E1000806B401C0A49096888630B480068401C95
:103E200009490860FCF760FA2046FCF749FA10BD22
:103E3000ED030020EE0300200C8F0020F003002093
:103E400008040020EF030020D40300200649074A9D
:103E50001278885C0649095C034A515C01EBC00199
:103E6000044A11707047000054510108F10300200A
:103E7000F2030020F00300202DE9F84F05460F461D
:103E800090469946DDE90AAB00200090FCF714FA51
:103E900000903F480468002C74D0183454F8040C87
:103EA0003B4908600098FCF70BFA44F8187CA576AB
:103EB000002020766076606144F814BC44F80CACB5
:103EC00044F8108C0C9824F8080C24F8069C002068
:103ED000E077E810207705F00700E076217F0120E9
:103EE0008840A077E17E01208840607700206060F4
:103EF000E060A0602062A0626062E062206325A0B2
:103F00006063183C002606E0002104F1500040F8F0
:103F10002610701CC6B2002EF6D02046FFF7BEFA5F
:103F20002046FFF769FBFCF7C7F900901A4840F8F4
:103F300025401A48006860610020A06117480068A9
:103F400010B1164800688461144804603434A078C5
:103F50001349097808431249087020781149085C10
:103F60006178084314F834190E4A50540E4800780A
:103F7000401C0D4908700098FCF7A2F90020BDE82C
:103F8000F88FFFE70098FCF79BF94220F7E7000065
:103F9000040400203F0000000C8F00200C040020CF
:103FA000F1030020F2030020FB030020002400BFE7
:103FB00000BFFCF781F9044605480068401C04492D
:103FC00008602046FCF77CF9FFF717FBF1E70000DB
:103FD000FC030020002400BF02E02820FFF732FC91
:103FE000194800780028F8D0184800686421B0FB10
:103FF000F1F0164908600846006828B90020144905
:104000000870FF20FFF7C8FB00BFFCF755F9044616
:10401000104800681049086000200E4908602046DA
:10402000FCF74EF90C48006808490968B0FBF1F04C
:10403000C0F1640006490870FFF718FB00F00EF8A5
:104040001420FFF7FFFBE0E7EC030020E40300206F
:10405000E0030020FC030020E80300207CB50025DD
:1040600014E069462846FFF703FB064666B909488F
:1040700050F8254044B1012C06D0D4E9020100EBF0
:10408000810060640198A064681CC5B23F2DE8D926
:104090007CBD00000C8F002002F0010343B102F050
:1040A00002032BB102E0491E002308C00029FAD107
:1040B0007047000029B1064A52690243044B5A6115
:1040C00004E0034A52698243014B5A617047000081
:1040D0000010024029B1064AD2690243044BDA615A
:1040E00004E0034AD2698243014BDA617047000061
:1040F0000010024029B1064A12690243044B1A61BA
:1041000004E0034A12698243014B1A6170470000C0
:104110000010024029B1064A92690243044B9A6199
:1041200004E0034A92698243014B9A6170470000A0
:104130000010024029B1064AD2680243044BDA60FB
:1041400004E0034AD2688243014BDA607047000002
:104150000010024010B500F031F84FF4803000F04C
:10416000EFF800F04BF9012826D1002000F0DCF830
:10417000002000F017F94FF4806000F007F90220EA
:10418000FEF704FC1020FEF7F3FB4FF4E0114FF4B0
:10419000803000F019F9012000F010F900BF39203B
:1041A00000F09CF80028FAD0022000F01BF900BFB4
:1041B00000F0B2F80828FBD110BD00000F480068DD
:1041C00040F001000D490860084640680C4908406D
:1041D0000A494860084600680A49084007490860DB
:1041E0000846006820F4802008600846406820F4F3
:1041F000FE0048604FF41F008860704700100240C6
:104200000000FFF8FFFFF6FE30B500210022002479
:1042100000232D4D6D6805F00C0121B1042905D056
:10422000082923D105E0294D056022E0274D0560CE
:104230001FE0254D6D6805F47012234D6D6805F47F
:104240008034022505EB92421CB9214D554305608F
:104250000BE01D4D6D6805F400351DB11C4D554337
:10426000056002E0194D5543056002E0174D0560F9
:1042700000BF00BF144D6D6805F0F0010909154D30
:104280006B5C0568DD4045600F4D6D6805F4E061CD
:10429000090A104D6B5C4568DD4085600A4D6D680C
:1042A00005F46051C90A0B4D6B5C4568DD40C56083
:1042B000054D6D6805F44041890B074D6B5CC56881
:1042C000B5FBF3F5056130BD0010024000127A0025
:1042D00000093D00AC030020BC03002010B50146DE
:1042E0000022002300204A11012A02D1094C236830
:1042F00006E0022A02D1074C236A01E0054C636AFA
:1043000001F01F02012494401C400CB1012000E088
:10431000002010BD001002400248406800F00C0070
:10432000704700000010024001460020034A506818
:1043300020F0F00008435060704700000010024079
:104340001149096821F480310F4A1160114609684A
:1043500021F480211160B0F5803F03D0B0F5802FAB
:104360000ED106E00849096841F48031064A11601F
:1043700007E00549096841F4A021034A116000E003
:1043800000BF00BF7047000000100240014600203F
:10439000034A506820F4E060084350607047000012
:1043A0000010024001460020034A506820F460508B
:1043B00040EAC100506070470010024001490866A1
:1043C000704700000000424202460020044B58683B
:1043D00020F47C1042EA01031843014B58607047F7
:1043E0000010024001460020034A506820F00300FC
:1043F00008435060704700000010024038B50020AC
:1044000000900024002500BF3120FFF767FF05461C
:104410000098401C00900098B0F5A06F01D0002DCE
:10442000F2D03120FFF75AFF08B1012400E0002448
:10443000204638BD70B5044600200649087002F0D9
:10444000DFFE054623462A4603A1032002F0BAFDFB
:1044500070BD00004403002028636C6F636B20254F
:10446000642952657365742053797374656D2825CA
:104470007329000021B1028842F04002028004E06A
:1044800002884FF6BF731A400280704710B50020B3
:1044900004490860062000F06DF901200249C1F8C6
:1044A000900110BD900121420000214210B5044648
:1044B0002403FFF7EBFF00F07FF800200B490860B2
:1044C000202000F057F9C4F3074000F053F9C4F37B
:1044D000072000F04FF9E0B200F04CF90120044948
:1044E000C1F8900100F068F810BD00009001214271
:1044F000000021422DE9F04106460C4617460020F7
:104500000F490860032000F035F9C4F3074000F0BC
:1045100031F9C4F3072000F02DF9E0B200F02AF9D8
:10452000002505E0FF2000F025F97055681C85B2D4
:10453000BD42F7DB012002490860BDE8F0810000C0
:104540009001214210B5002400200E4908609020FF
:1045500000F010F9002000F00DF9002000F00AF939
:10456000002000F007F9FF2000F004F944EA0024DD
:10457000FF2000F0FFF8044301200349C1F8900137
:10458000204610BD900121420000214210B50024B8
:10459000002007490860052000F0ECF8FF2000F03B
:1045A000E9F8044601200349C1F89001204610BDF6
:1045B000900121420000214210B500BFFFF7E6FF45
:1045C00000F001000028F9D110BD00002DE9F047EE
:1045D00081460F4616464FEA1738C7F30B0ACAF54D
:1045E0008054A64200DC344644E04FEA08314FF4E0
:1045F00080522248FFF77EFF002508E00AEB050005
:104600001E49085CFF2800D003E0681C85B2A54263
:10461000F4DB00BFA54216DA4046FFF747FF00254E
:1046200007E019F8050005EB0A01144A5054681C0C
:1046300085B2A542F5DB4FEA08314FF480520F48AE
:1046400000F01EF804E022463946484600F018F80B
:10465000A64200D10FE008F101084FF0000AA14482
:104660002744301B86B2B6F5805F02DD4FF48054DC
:1046700000E03446B9E700BFBDE8F087C81C002061
:104680002DE9F04107460E461446F0B2C0F580759C
:10469000AC4200DC254612E02A463146384600F09E
:1046A00013F8AC4200D10BE02F442E44601B84B2BF
:1046B000B4F5807F02DD4FF4807500E02546EBE71E
:1046C00000BFBDE8F08100002DE9F04106460C4630
:1046D0001746FFF7DBFE00200F490860022000F0BC
:1046E00049F8C4F3074000F045F8C4F3072000F090
:1046F00041F8E0B200F03EF8002504E0705D00F003
:1047000039F8681C85B2BD42F8DB01200249086017
:10471000FFF752FFBDE8F0819001214202460020E0
:1047200013890B400BB1012000E0002070470146C7
:10473000888970478181704710B50022028802F491
:1047400041520B884C8823438C882343CC882343D5
:104750000C8923434C8923438C892343CC892343ED
:104760001A430280838B4FF2FF74234083830B8AAA
:10477000038210BD70B50446002500BF02210B481E
:10478000FFF7CCFF0028F9D021460848FFF7D2FFF9
:10479000002500BF01210548FFF7C0FF0028F9D020
:1047A0000248FFF7C4FFC0B270BD000000300140F6
:1047B00010B50446074800884FF6C7710840054900
:1047C0000880084600882043088001210148FFF73F
:1047D00051FE10BD00300140704710B500F002F8E6
:1047E00010BD00000CB50020019000903348006817
:1047F00040F480303149086000BF3048006800F460
:10480000003000900198401C0190009818B9019860
:10481000B0F5A06FF1D12948006800F4003010B164
:104820000120009001E0002000900098012843D171
:104830002348006840F010002149086008460068DD
:1048400020F0030008600846006840F0020008609D
:104850001A48406819494860084640684860084658
:10486000406840F4806048600846406820F47C104E
:1048700048600846406840F4E81048600846006810
:1048800040F08070086000BF0C48006800F00070C5
:104890000028F9D00948406820F003000749486023
:1048A0000846406840F00200486000BF0348406886
:1048B00000F00C000828F9D10CBD000000100240E7
:1048C000002002407CB504460CA000231A460FA12C
:1048D000CDE9000440F6B8300DF002FE0546012D8A
:1048E00009D10B2C07DAC4EBC401094808440021A4
:1048F00001608180817100207CBD000041542B51FA
:1049000049434C4F53453D25640D0A004F4B000071
:10491000FC3900202DE9F04F87B004460F46904641
:104920001E46DDE910A906EB061000EB80012848C1
:104930000D186878002849D0002C47DB0B2C45DA8D
:10494000C4EBC40105F108000844407900283DD0BB
:10495000C4EBC40105F1080008448079002835D172
:1049600002F04EFC83465A461AA1022002F02AFBAE
:10497000204850F82900CDE90478CDE902401EA076
:1049800000231A4625A1CDE9000641F270700DF012
:10499000A7FD012812D102F033FC83465A4621A11B
:1049A000022002F00FFB0121C4EBC40205F1080054
:1049B00010448171012007B0BDE8F08F02F020FCA7
:1049C00083465A461FA1022002F0FCFA0020F2E7BB
:1049D0009F390020636C6F636B2825642920536125
:1049E000747274204F70656E20736F636B657421F1
:1049F00000000000E402002041542B51494F504573
:104A00004E3D25642C25642C222573222C222573EF
:104A1000222C25642C302C300D0A00002B51494FDC
:104A200050454E00636C6F636B28256429536F6398
:104A30006B6574204F70656E207375636365737367
:104A400021000000636C6F636B28256429536F633A
:104A50006B6574204F70656E206661696C21000083
:104A600070B50346144603EB031000EB80050E48B7
:104A70002A185078A8B1C1EBC10502F108002844FA
:104A8000407901280DD00125C1EBC10602F10800D3
:104A900030444571C1EBC10502F108004455084698
:104AA00070BD4FF0FF30FBE79F3900202DE9F0414A
:104AB00004460D46164632462946204601F0A4FC1F
:104AC00007463846BDE8F08101494860704700005C
:104AD000EC0200202DE9F04106460F461446002561
:104AE00002F08EFB804642460CA1022002F06AFAD8
:104AF00022463946304601F009FD054602F080FBAA
:104B000080462B4642460CA1022002F05BFA15B902
:104B10002046BDE8F0810020FBE70000636C6F6376
:104B20006B2825642920537461727420536F636B62
:104B300065742073656E6400636C6F636B28256415
:104B40002920537461727420536F636B6574206302
:104B50006F6D706C696574652872657320256429B2
:104B600000000000042808D14FF0E021096941F05D
:104B700004014FF0E022116107E04FF0E0210969E4
:104B800021F004014FF0E0221161704710B5FEF7EB
:104B90006BFAFEF7A1FEFEF779FA10BD10B51248C8
:104BA000006840F0010010490860084640680F495D
:104BB00008400D494860084600680D4908400A4908
:104BC00008600846006820F48020086008464068B5
:104BD00020F4FE0048604FF41F008860FFF7FDFDE1
:104BE00004480549086010BD001002400000FFF8AD
:104BF000FFFFF6FE0080000808ED00E010B501217F
:104C0000064800F04DF940B10121044800F044F895
:104C100003480068401C0249086010BD00040040C1
:104C20006C0300201FB501210220FFF753FA18483A
:104C300000F042F842F20F70ADF8080041F61F4054
:104C4000ADF804000020ADF80A00ADF8060001A997
:104C50000F4800F03FF9012211460D4800F031F9EC
:104C60001D208DF8000000208DF8010003208DF834
:104C7000020001208DF803006846FEF79BF9012130
:104C8000034800F00CF80020024908601FBD000036
:104C9000000400406C030020CA430282704721B127
:104CA000028842F00102028004E002884FF6FE739F
:104CB0001A4002807047000010B5044668488442DC
:104CC00008D10121C014FFF735FA0021E014FFF7E5
:104CD00031FAC4E0B4F1804F08D101210846FFF752
:104CE00009FA00210120FFF705FAB8E05D48844287
:104CF00008D101210220FFF7FDF900210220FFF772
:104D0000F9F9ACE05848844208D101210420FFF7AA
:104D1000F1F900210420FFF7EDF9A0E053488442A7
:104D200008D101210820FFF7E5F900210820FFF74D
:104D3000E1F994E04E48844208D101211020FFF7A8
:104D4000D9F900211020FFF7D5F988E049488442BD
:104D500008D101212020FFF7CDF900212020FFF705
:104D6000C9F97CE04448844208D101214014FFF78E
:104D7000E1F900216014FFF7DDF970E03F4884425B
:104D800009D10121C804FFF7D5F900214FF4002013
:104D9000FFF7D0F963E03A48844209D101210805C0
:104DA000FFF7C8F900214FF48010FFF7C3F956E070
:104DB0003448844209D101214805FFF7BBF900219D
:104DC0004FF40010FFF7B6F949E02F48844208D1AC
:104DD00001214020FFF78EF900214020FFF78AF9DA
:104DE0003DE02A48844208D101218020FFF782F962
:104DF00000218020FFF77EF931E02548844208D168
:104E000001218015FFF776F90021A015FFF772F94F
:104E100025E02048844209D101210804FFF78AF9DE
:104E200000214FF48030FFF785F918E01A488442DA
:104E300009D101214804FFF77DF900214FF400302A
:104E4000FFF778F90BE01548844208D10121880466
:104E5000FFF770F900214FF48020FFF76BF910BDC8
:104E6000002C01400004004000080040000C0040FD
:104E7000001000400014004000340140004C01408C
:104E8000005001400054014000180040001C004048
:104E90000020004000400140004401400048014023
:104EA00030B50246002000230024158A05EA0103DC
:104EB000958905EA010413B10CB1012000E000203E
:104EC00030BD1AB183890B43838102E083898B4310
:104ED00083817047002202881D4B98420ED01D4BE3
:104EE00098420BD0B0F1804F08D01B4B984205D0B0
:104EF0001A4B984202D01A4B984204D14FF68F7346
:104F00001A404B881A43174B984207D0164B9842C9
:104F100004D04FF6FF431A40CB881A4302808B8897
:104F200083850B8803850A4B98420BD0094B984226
:104F300008D00E4B984205D00D4B984202D00D4B35
:104F4000984201D10B7A03860123838270470000C7
:104F5000002C0140003401400004004000080040E3
:104F6000000C0040001000400014004000400140D0
:104F7000004401400048014008B5FEF775F840F2D2
:104F800025510B4800F0D1F850B1094800F088F9DC
:104F9000C0B2009001226946064803F053FD04E0C8
:104FA000034800F07DF9C0B20090FEF76FF808BD2D
:104FB000004C0040E089002008B5FEF755F840F2AB
:104FC0002551184800F0B1F888B1164800F068F98A
:104FD000C0B200901448006814494860002008706E
:104FE000012269461148083003F02CFD17E040F219
:104FF00024410C4800F099F860B10A48001D00886F
:10500000C0B2009007480088C0B200900120074954
:10501000087004E0034800F043F9C0B20090FEF7C6
:1050200035F808BD0038014018040020BC89002074
:1050300038B50024FEF718F840F22551214800F059
:1050400074F850B11F4800F02BF9C0B20090012253
:1050500069461D4803F0F6FC30E040F2244119484F
:1050600000F063F828B31748001D0088C0B2009014
:1050700014480088C0B200909DF800000090002104
:105080001248FDF795FB1148FDF744FCC0F16400A0
:1050900084B2002C04DD22460D490B4803F0D2FCFB
:1050A00064200A496C39086701210848FDF780FB34
:1050B00004E0044800F0F4F8C0B20090FDF7E6FF09
:1050C00038BD000000440040B41800206C000240CD
:1050D0004818002001F40072B2F5007F00D100BF33
:1050E000CA430280704721B1828942F40052828112
:1050F00004E082894DF6FF731A40828170471AB12D
:10510000838A0B43838202E0838A8B4383827047C6
:1051100002460020B1F5007F00D100BF13880B408C
:105120000BB1012000E00020704770B5024600245A
:1051300000230025002040F66A16B14200D100BFCE
:10514000C1F3421501F01F03012606FA03F3012DF6
:1051500002D19689334006E0022D02D1168A3340EF
:1051600001E0968A33400C12012606FA04F41688F0
:10517000344013B10CB1012000E0002070BDF0B547
:105180000346002400260025002040F66A17B94295
:1051900000D100BF1846C1F3421401F01F060127D9
:1051A00007FA06F5012C01D10C3004E0022C01D1E4
:1051B000103000E014301AB107682F43076002E096
:1051C0000768AF430760F0BD2DE9F04786B005469C
:1051D0000E460024A24600BFA1460027B08900B1B8
:1051E00000BF2F462C8A4CF6FF700440F088044321
:1051F0002C82AC894EF6F3100440B0883189084304
:10520000718908430443AC81AC8A4FF6FF400440E7
:10521000B0890443AC8201A8FEF7F6FF1F4887421D
:1052200002D1DDF810A001E0DDF80CA0A88900F49F
:10523000004040B10AEBCA0000EB0A103168490097
:10524000B0FBF1F807E00AEBCA0000EB0A10316886
:105250008900B0FBF1F86420B8FBF0F004012009EC
:10526000642101FB1089A88900F4004040B132207C
:1052700000EBC900B0FBF1F000F00700044308E0C8
:10528000322000EB09106421B0FBF1F000F00F00B8
:1052900004432C8106B0BDE8F087000000380140CF
:1052A00001468888C0F308007047C1F30802828075
:1052B000704700BFFEE7490050EAC12018BF042034
:1052C0004A0D18BF40F0010040F2FF72B2EB515F8F
:1052D00008BF40F00200012808BF05207047000009
:1052E0002DE9F74F144694B00021C4E90211159935
:1052F000079121F00045C9498D4206DC1599C4E9A2
:10530000000117B00020BDE8F08FC549DFF814A3F5
:10531000A9423CDD0799C44E0029C44FC44A1599DF
:10532000534619DD0EF0B2FF554506D0C14AC24BB7
:105330000EF0ACFFC4E900010AE04FF0D352BE4BBF
:105340000EF0A4FF32463B460EF0A0FFC4E9000178
:1053500017B00120BDE8F08F0EF0C8FA554506D011
:10536000B44AB54B0EF0C2FAC4E900010AE04FF0AE
:10537000D352B14B0EF0BAFA32463B460EF0B6FAB3
:10538000C4E9000117B04FF0FF30BDE8F08FAB4922
:10539000A942159978DB21F0004183468846A84A46
:1053A000A84B0EF04DFD0022A74B0EF09FFA0EF019
:1053B000B1FC09900EF0DDFC06460F469C4A5346B0
:1053C0000EF03EFD43465A460EF06EFE80468A467B
:1053D000984A994B304639460EF032FD2A0D012588
:1053E0000B92424653460EF05FFE032DC4E90001C6
:1053F00039D00B98C1F30A51401A05EB4511113908
:10540000814230DA9148C346784400EB0510CDF86C
:105410000CA00C90D0E90023304639460EF010FD68
:1054200002460B4604910690584603990EF02EFF53
:1054300080468A4602460B46584603990EF026FFE0
:10544000049B069A0EF022FF83460C98039139467E
:10545000D0E9022330460EF0F3FC5A46039B0EF0CF
:1054600015FF6D1CBDE707980028A2BF099817B06B
:10547000BDE8F08F616881F000416160099817B064
:105480004042BDE8F08FFFE784461598C1F3130151
:10549000C0F30A50A0F2F5304FEA601800F01F0682
:1054A000C6F12000139000200690079041F4801E62
:1054B00005206D4676B1664A08EB00017A4452F841
:1054C000213002EB8101B3404A68139922FA01F1BD
:1054D000194305E05F4908EB0002794451F82210B6
:1054E000A1FB0E27A1FB0C131A449A4234BF0123DF
:1054F000002303EB070A05EB8003D3E901B70F4450
:105500008F4234BF0121002193448B4411B1934554
:1055100002D903E0934501D2012100E00021C3E953
:1055200001B7514445F82010011EA0F10100C1DC73
:105530000298059F00F10050800F12900298DDE95B
:10554000035680000EF015FC834628460D910EF0A0
:1055500027FC6FF01D020FF065FBCDE90E01304610
:105560000EF01EFC6FF03D020FF05CFB80468A4699
:1055700038460EF015FC6FF05D020FF053FB074646
:105580004246534611910EF0B1F9DDE90E230EF0BB
:10559000ADF95A460D9B0EF0A9F900250E465A4664
:1055A00028460D9B0EF072FEDDE90E230EF06EFE16
:1055B000424653460EF06AFE3A46119B0EF074FDC9
:1055C000DFF898A0244A53460EF03AFC0746884676
:1055D000234A244B314628460EF032FC3A464346D5
:1055E0000EF084F9074688464FF0A84253463146EC
:1055F00028460EF025FC3A4643460EF077F9159AF8
:1056000012F0004F04D0129A81F0004152421292DF
:10561000C4E90001129817B0BDE8F08FFB21E93F03
:105620007CD90240FB21F93F7370032E8A19A33BFA
:10563000000040543163621A61B4D03DFB2139410E
:1056400083C8C96D305FE43F0000E03FACFF00005D
:1056500028FF00000AFF0000182D4454FB21F93DEB
:105660003326A611460B113C2DE9FF4D21F00048D1
:1056700007460C46B8F1795F08DA0EF04BFB0028BC
:1056800001BF0020324904B0BDE8F08D3A46234600
:10569000104619460EF0D4FB054602462D480E462C
:1056A0000B460621784400F05DF82A4633460EF09A
:1056B000C7FBDDE9022382468B46384621460EF0C1
:1056C000BFFB04460F4652465B46284631460EF065
:1056D000B7FB22463B460EF0D9FD07468A464FF0FF
:1056E000FF32284631460FF09DFA1B4A90450ADAF0
:1056F0003A4653460EF0CAFD04B00022BDE8F04D14
:10570000134B0EF0D1BC154A4245A8BFA8F50015B1
:105710004FF00004B8BF124D22462B460EF0B6FDE6
:105720000646884622462B46002009490EF0AEFD6B
:1057300004460D463A465346304641460EF0A6FD15
:1057400004B022462B46BDE8F04D0EF0ADBC000083
:105750000000F03FD8FC00003333D33F0000E93FA6
:105760000000D23F2DE9F0414F1E00EBC701044677
:10577000D1E9000115461E4637F006020DD02A4633
:1057800033460EF05DFB7F1E04EBC703D3E9002315
:105790000EF0ACF837F00602F1D1022F25D0042F1D
:1057A00013D0062F18BFBDE8F0812A4633460EF00D
:1057B00047FBD4E90A230EF099F82A4633460EF047
:1057C0003FFBD4E908230EF091F82A4633460EF049
:1057D00037FBD4E906230EF089F82A4633460EF04B
:1057E0002FFBD4E904230EF081F82A4633460EF04D
:1057F00027FBD4E902230EF079F82A4633460EF04F
:105800001FFBD4E90023BDE8F0410EF06FB80000A3
:105810002DE9FF4D054621F0004084B00C46B0F163
:10582000795F0BDA2846FFF746FD042808BF00F031
:105830007FF8284608B02146BDE8F08D2A460B4681
:1058400010460EF0FDFA06460F462A4623460EF095
:10585000F7FA804626488A4632463B460521784478
:10586000FFF780FF83461098029160B3214A224BD4
:10587000404651460EF0E4FACDE900015A46404652
:105880005146029B0EF0DCFA82468846DDE90601AD
:105890004FF0FF320FF0C6F9524643460EF0F6FCC9
:1058A00032463B460EF0CCFADDE906230EF0EEFC64
:1058B000DDE900230EF0EAFC08B02A462346BDE8E5
:1058C000F04D0EF0F1BB0B465A46304639460EF00D
:1058D000B7FA084A084B0EF009F8424653460EF054
:1058E000AFFA08B02A462346BDE8F04D0DF0FEBFE2
:1058F0001EFC0000495555555555C5BF002213469D
:10590000104601490EF0AEB80000F03F01220FF042
:1059100089B90DF0EBBF00221346104611460EF078
:10592000A1B840F2013200204FF0E0410FF07AB907
:10593000024A002011070FF075B9000001FDFFFFBA
:1059400000B58BB001210220FEF7B4FB1348FCF731
:105950003BFF134800901348019010200290C001B3
:10596000039000200490802005900020069007906E
:1059700008904FF48050099000200A90694607482B
:10598000FCF7CCFF01210548FCF712FF0122802122
:105990000348001FFFF7B3FB0BB000BD58040240E3
:1059A000044C0040BC81002030380A2801D201207C
:1059B000704700207047014600BF70470246002133
:1059C0000EE0114850F8210090F83F0092F83F3067
:1059D000984204D10C4840F8212000207047491C0F
:1059E0000A29EEDB002109E0074850F8210020B920
:1059F000054840F821200020F0E7491C0A29F3DB84
:105A00006FF00200EAE70000B03B00201CB5022066
:105A10000CA100231A46CDE9001012A14FF4167014
:105A20000CF05EFD1F2010A100231A46CDE90010E6
:105A30000CA14FF416700CF053FD02200DF056F936
:105A40001CBD000041542B51485454504346473D1F
:105A500022636F6E746578746964222C25640D0A64
:105A6000000000004F4B000041542B51475053435E
:105A700046473D226770736E6D656174797065226B
:105A80002C25640D0A00000010B514210248FBF714
:105A90001AF9002010BD0000882D00203EB51748DF
:105AA000007C00281DD0002014490874502014A147
:105AB00017A20023CDE9002102901A461BA14FF442
:105AC00016700CF00DFD012815D101F099FB04466C
:105AD000224617A1022001F075FA06200DF006F902
